:020000040800F2
:1000000000000220A9140008CD110008CF1100083B
:10001000D1110008D3110008D5110008000000001C
:100020000000000000000000000000006131000836
:10003000D7110008000000000132000865320008F6
:10004000F9140008F9140008F9140008F91400085C
:10005000F9140008F9140008F9140008F91400084C
:10006000F9140008F9140008F9140008F91400083C
:10007000D9110008F9140008F9140008F91400084F
:10008000F9140008F9140008F9140008F91400081C
:10009000F9140008F9140008F9140008F91400080C
:1000A000F9140008F9140008F9140008F9140008FC
:1000B000F9140008F9140008F9140008F9140008EC
:1000C000F9140008F9140008F9140008F9140008DC
:1000D000F9140008F9140008F9140008F9140008CC
:1000E000F9140008F9140008F9140008F9140008BC
:1000F000F9140008F9140008F9140008F9140008AC
:10010000F9140008F9140008F9140008F91400089B
:10011000F9140008F9140008F9140008F511000892
:10012000F9140008F9140008F9140008F91400087B
:10013000F9140008F9140008F9140008F91400086B
:10014000F9140008F9140008F9140008F91400085B
:10015000F9140008F9140008F9140008F91400084B
:10016000F9140008F9140008F9140008F91400083B
:10017000F9140008F9140008F91400080000000040
:08018000F9140008F91400084D
:1001900010B5054C237833B9044B13B10448AFF3C1
:1001A00000800123237010BD5005002000000000D6
:1001B000B455000808B5034B1BB103490348AFF31E
:1001C000008008BD0000000054050020B455000860
:1001D00081F0004102E000BF83F0004330B54FEAF8
:1001E00041044FEA430594EA050F08BF90EA020F65
:1001F0001FBF54EA000C55EA020C7FEA645C7FEAF8
:10020000655C00F0E2804FEA5454D4EB5555B8BF1A
:100210006D420CDD2C4480EA020281EA030382EA8B
:10022000000083EA010180EA020281EA0303362D1D
:1002300088BF30BD11F0004F4FEA01314FF4801CF0
:100240004CEA113102D0404261EB410113F0004F02
:100250004FEA03334CEA133302D0524263EB4303B9
:1002600094EA050F00F0A780A4F10104D5F1200E57
:100270000DDB02FA0EFC22FA05F2801841F10001B2
:1002800003FA0EF2801843FA05F359410EE0A5F186
:1002900020050EF1200E012A03FA0EFC28BF4CF0B7
:1002A000020C43FA05F3C01851EBE37101F000456D
:1002B00007D54FF0000EDCF1000C7EEB00006EEB7A
:1002C0000101B1F5801F1BD3B1F5001F0CD3490804
:1002D0005FEA30004FEA3C0C04F101044FEA44525B
:1002E00012F5800F80F09A80BCF1004F08BF5FEAE2
:1002F000500C50F1000041EB045141EA050130BDC2
:100300005FEA4C0C404141EB0101013C28BFB1F5D3
:10031000801FE9D291F0000F04BF01460020B1FA1E
:1003200081F308BF2033A3F10B03B3F120020CDAF1
:100330000C3208DD02F1140CC2F10C0201FA0CF0CF
:1003400021FA02F10CE002F11402D8BFC2F1200C34
:1003500001FA02F120FA0CFCDCBF41EA0C019040EA
:10036000E41AA2BF01EB0451294330BD6FEA040433
:100370001F3C1CDA0C340EDC04F11404C4F120021E
:1003800020FA04F001FA02F340EA030021FA04F330
:1003900045EA030130BDC4F10C04C4F1200220FA87
:1003A00002F001FA04F340EA0300294630BD21FAC5
:1003B00004F0294630BD94F0000F83F4801306BF8B
:1003C00081F480110134013D4EE77FEA645C18BF7F
:1003D0007FEA655C29D094EA050F08BF90EA020F16
:1003E00005D054EA000C04BF1946104630BD91EA0E
:1003F000030F1EBF0021002030BD5FEA545C05D111
:100400004000494128BF41F0004130BD14F580044F
:100410003CBF01F5801130BD01F0004545F0FE41C3
:1004200041F470014FF0000030BD7FEA645C1ABFF8
:10043000194610467FEA655C1CBF0B46024650EA2F
:10044000013406BF52EA033591EA030F41F400215B
:1004500030BD00BF90F0000F04BF0021704730B5E1
:100460004FF4806404F132044FF000054FF00001B6
:1004700050E700BF90F0000F04BF0021704730B577
:100480004FF4806404F1320410F0004548BF40424C
:100490004FF000013EE700BF42004FEAE2014FEAA1
:1004A00031014FEA02701FBF12F07F4393F07F4F7C
:1004B00081F06051704732F07F4208BF704793F07F
:1004C0007F4F04BF41F40021704730B54FF4607492
:1004D00001F0004521F000411CE700BF50EA010295
:1004E00008BF704730B54FF000050AE050EA01023E
:1004F00008BF704730B511F0004502D5404261EBAE
:1005000041014FF4806404F132045FEA915C3FF4EE
:10051000D8AE4FF003025FEADC0C18BF03325FEA8B
:10052000DC0C18BF033202EBDC02C2F1200300FA3C
:1005300003FC20FA02F001FA03FE40EA0E0021FA61
:1005400002F11444BDE600BF70B54FF0FF0C4CF44F
:10055000E06C1CEA11541DBF1CEA135594EA0C0F01
:1005600095EA0C0F00F0DEF82C4481EA030621EA3C
:100570004C5123EA4C5350EA013518BF52EA033577
:1005800041F4801143F4801338D0A0FB02CE4FF029
:100590000005E1FB02E506F00042E0FB03E54FF059
:1005A0000006E1FB03569CF0000F18BF4EF0010E51
:1005B000A4F1FF04B6F5007F64F5407404D25FEA4D
:1005C0004E0E6D4146EB060642EAC62141EA555100
:1005D0004FEAC52040EA5E504FEACE2EB4F1FD0C42
:1005E00088BFBCF5E06F1ED8BEF1004F08BF5FEAC0
:1005F000500E50F1000041EB045170BD06F0004672
:1006000046EA010140EA020081EA0301B4EB5C041E
:10061000C2BFD4EB0C0541EA045170BD41F4801116
:100620004FF0000E013C00F3AB8014F1360FDEBF3B
:10063000002001F0004170BDC4F10004203C35DA17
:100640000C341BDC04F11404C4F1200500FA05F39A
:1006500020FA04F001FA05F240EA020001F000423B
:1006600021F0004110EBD37021FA04F642EB0601B1
:100670005EEA430E08BF20EAD37070BDC4F10C04DB
:10068000C4F1200500FA04F320FA05F001FA04F29F
:1006900040EA020001F0004110EBD37041F100018B
:1006A0005EEA430E08BF20EAD37070BDC4F1200596
:1006B00000FA05F24EEA020E20FA04F301FA05F2FE
:1006C00043EA020321FA04F001F0004121FA04F2A6
:1006D00020EA020000EBD3705EEA430E08BF20EA76
:1006E000D37070BD94F0000F0FD101F000464000B0
:1006F00041EB010111F4801F08BF013CF7D041EA32
:10070000060195F0000F18BF704703F00046520035
:1007100043EB030313F4801F08BF013DF7D043EA06
:100720000603704794EA0C0F0CEA135518BF95EABC
:100730000C0F0CD050EA410618BF52EA4306D1D143
:1007400081EA030101F000414FF0000070BD50EA62
:10075000410606BF1046194652EA430619D094EAEC
:100760000C0F02D150EA013613D195EA0C0F05D1D6
:1007700052EA03361CBF104619460AD181EA03012A
:1007800001F0004141F0FE4141F470014FF00000E2
:1007900070BD41F0FE4141F4780170BD70B54FF07D
:1007A000FF0C4CF4E06C1CEA11541DBF1CEA1355FD
:1007B00094EA0C0F95EA0C0F00F0A7F8A4EB0504DF
:1007C00081EA030E52EA03354FEA013100F08880D6
:1007D0004FEA03334FF0805545EA131343EA12639F
:1007E0004FEA022245EA111545EA10654FEA002654
:1007F0000EF000419D4208BF964244F1FD0404F50D
:10080000407402D25B084FEA3202B61A65EB030568
:100810005B084FEA32024FF480104FF4002CB6EB25
:10082000020E75EB030E22BFB61A754640EA0C00A5
:100830005B084FEA3202B6EB020E75EB030E22BFE5
:10084000B61A754640EA5C005B084FEA3202B6EB26
:10085000020E75EB030E22BFB61A754640EA9C00E5
:100860005B084FEA3202B6EB020E75EB030E22BFB5
:10087000B61A754640EADC0055EA060E18D04FEA73
:10088000051545EA16754FEA06164FEAC30343EA13
:1008900052734FEAC2025FEA1C1CC0D111F4801FE0
:1008A0000BD141EA00014FF000004FF0004CB6E7D9
:1008B00011F4801F04BF01430020B4F1FD0C88BF78
:1008C000BCF5E06F3FF6AFAEB5EB030C04BFB6EB83
:1008D000020C5FEA500C50F1000041EB045170BD76
:1008E0000EF0004E4EEA113114EB5C04C2BFD4EBA3
:1008F0000C0541EA045170BD41F480114FF0000E27
:10090000013C90E645EA060E8DE60CEA135594EAA2
:100910000C0F08BF95EA0C0F3FF43BAF94EA0C0FA5
:100920000AD150EA01347FF434AF95EA0C0F7FF41A
:1009300025AF104619462CE795EA0C0F06D152EA6E
:1009400003353FF4FDAE1046194622E750EA410652
:1009500018BF52EA43067FF4C5AE50EA41047FF463
:100960000DAF52EA43057FF4EBAE12E74FF0FF3CC8
:1009700006E000BF4FF0010C02E000BF4FF0010C99
:100980004DF804CD4FEA410C7FEA6C5C4FEA430C12
:1009900018BF7FEA6C5C1BD001B050EA410C0CBF61
:1009A00052EA430C91EA030F02BF90EA020F0020C3
:1009B000704710F1000F91EA030F58BF994208BF2A
:1009C00090422CBFD8176FEAE37040F001007047E7
:1009D0004FEA410C7FEA6C5C02D150EA013C07D13E
:1009E0004FEA430C7FEA6C5CD6D152EA033CD3D089
:1009F0005DF8040B704700BF8446104662468C4683
:100A00001946634600E000BF01B5FFF7B7FF0028B5
:100A100048BF10F1000F01BD4DF808EDFFF7F4FFDE
:100A20000CBF012000205DF808FB00BF4DF808ED69
:100A3000FFF7EAFF34BF012000205DF808FB00BF8C
:100A40004DF808EDFFF7E0FF94BF012000205DF8AE
:100A500008FB00BF4DF808EDFFF7CEFF94BF012063
:100A600000205DF808FB00BF4DF808EDFFF7C4FF5C
:100A700034BF012000205DF808FB00BF4FEA4102AF
:100A800012F5001215D211D56FF47873B3EB6252E0
:100A900012D94FEAC12343F0004343EA505311F007
:100AA000004F23FA02F018BF404270474FF0000099
:100AB000704750EA013005D111F0004008BF6FF0D7
:100AC000004070474FF00000704700BF4A0011D24D
:100AD00012F5001211D20DD56FF47873B3EB625298
:100AE0000ED44FEAC12343F0004343EA505323FAA4
:100AF00002F070474FF00000704750EA013002D119
:100B00004FF0FF3070474FF0000070474FEA41024E
:100B1000B2F1E04324BFB3F5001CDCF1FE5C0DD95B
:100B200001F0004C4FEAC0024CEA5070B2F1004FA5
:100B300040EB830008BF20F00100704711F0804FA8
:100B400021D113F13872BCBF01F00040704741F46D
:100B500080114FEA5252C2F11802C2F1200C10FA71
:100B60000CF320FA02F018BF40F001004FEAC12355
:100B70004FEAD32303FA0CFC40EA0C0023FA02F3F9
:100B80004FEA4303CCE77FEA625307D150EA0133CF
:100B90001EBF4FF0FE4040F44000704701F000409F
:100BA00040F0FE4040F40000704700BF53B94AB91E
:100BB000002908BF00281CBF4FF0FF314FF0FF3065
:100BC00000F06AB9ADF1080C6DE904CE00F006F84A
:100BD000DDF804E0DDE9022304B070472DE9F047B9
:100BE000089D0C46002B4ED194468C458646B2FAA1
:100BF00082F262D94AB1C2F12003914020FA03F394
:100C00000CFA02FC194300FA02FE4FEA1C471FFAD5
:100C10008CF6B1FBF7F44FEA1E4307FB141143EACD
:100C2000014304FB06F199420AD91CEB030304F1CA
:100C3000FF3080F01281994240F20F81023C634400
:100C4000591A1FFA8EF3B1FBF7F007FB101143EAB4
:100C5000014300FB06F69E420AD91CEB030300F198
:100C6000FF3180F0FC809E4240F2F98063440238FC
:100C70009B1B40EA044000211DB1D3400022C5E97E
:100C80000032BDE8F0878B4205D90DB1C5E90001FE
:100C900000210846F5E7B3FA83F1002946D1A342C3
:100CA00002D39042C0F0F080861A64EB0303012067
:100CB000002DE6D0C5E90063E3E7002A40F090800C
:100CC000A1EB0C044FEA1C481FFA8CF70121B4FB7E
:100CD000F8F64FEA1E4308FB164443EA044307FBB9
:100CE00006F0984208D91CEB030306F1FF3402D248
:100CF000984200F2CD8026461C1A1FFA8EF3B4FBF0
:100D0000F8F008FB104443EA044300FB07F79F4256
:100D100008D91CEB030300F1FF3402D29F4200F21A
:100D2000B0802046DB1B40EA0640A5E7C1F1200663
:100D30008B4022FA06F71F4320FA06FC04FA01F35F
:100D400043EA0C03F44000FA01F8380C4FEA134967
:100D5000B4FBF0FE1FFA87FC00FB1E4449EA044482
:100D60000EFB0CF9A14502FA01F20AD93C190EF169
:100D7000FF3A80F08480A14540F28180AEF1020EFE
:100D80003C44A4EB09041FFA83F9B4FBF0F300FB25
:100D9000134449EA044403FB0CFCA44507D93C195D
:100DA00003F1FF3067D2A44565D9023B3C4443EAD6
:100DB0000E40A0FB0293A4EB0C049C42CE469C4642
:100DC00051D34ED055B1B8EB0E0364EB0C0404FACA
:100DD00006F6CB401E43CC40C5E90064002150E735
:100DE000C2F1200320FA03F10CFA02FC24FA03F307
:100DF00094400C434FEA1C4800FA02FE1FFA8CF79D
:100E0000B3FBF8F008FB1031230C43EA014300FB6D
:100E100007F1994208D91CEB030300F1FF362CD2ED
:100E200099422AD9023863445B1AA4B2B3FBF8F1A1
:100E300008FB113344EA034401FB07F3A34208D93A
:100E40001CEB040401F1FF3613D2A34211D902397D
:100E50006444E41A41EA004139E70446F0E60846F2
:100E600006E7C845AED2B9EB020E63EB070C0138BA
:100E7000A8E73146EDE7034699E73046D4E7D64682
:100E80007FE7634402384DE70646234608460FE7EE
:100E9000023E634430E700BF704700BF00B583B037
:100EA00000220192094B196B41F4001119631B6B6D
:100EB00003F400130193019B05210C2000F09EFB1D
:100EC0000C2000F0ABFB03B05DF804FB00380240DF
:100ED00008B5012002F09FF8FBE70000034B036018
:100EE000034B0B6080231360704700BF7007002026
:100EF0006C05002010B59CB0244C0DF1540CA64696
:100F0000BEE80F00ACE80F009EE807008CE8070081
:100F1000002115A802F04CF81D4B18600DF1380C9B
:100F200004F11C0EBEE80F00ACE80F009EE80700BD
:100F30008CE8070000210EA802F03AF8154B186063
:100F40000DF11C0C04F1380EBEE80F00ACE80F00E8
:100F50009EE807008CE80700002107A802F028F8A7
:100F60000D4B1860EE4604F1540CBCE80F00AEE8DF
:100F70000F009CE807008EE807000021684602F099
:100F800017F8064B18601CB010BD00BFD055000804
:100F9000F4080020F0080020EC080020E8080020F9
:100FA00084B000220192104B196B41F001011963CA
:100FB000196B01F00101019101990292196B41F045
:100FC00004011963196B01F0040102910299039263
:100FD0001A6B42F080021A631B6B03F080030393C9
:100FE000039B04B0704700BF0038024008B5026898
:100FF000034B9A4200D008BD00F09AFAFBE700BF0D
:101000000014004072B6FEE700B595B03022002112
:1010100008A804F0CDF800230393049305930693E6
:10102000079301931F4A116C41F080511164126CB7
:1010300002F080520192019A02931B4A116841F416
:1010400080411160126802F480420292029A0222E8
:10105000089201210B9110210C910E920F930823FD
:101060001093A823119312920423139308A800F05D
:10107000D9FD98B90F23039302230493002305930A
:101080004FF4A05306934FF480530793052103A810
:1010900001F018F820B915B05DF804FBFFF7B2FFB6
:1010A000FFF7B0FF003802400070004008B500F0C4
:1010B00025FAFFF7A9FFFFF773FFFFF7EFFE00F038
:1010C00013F900F07BF912220449054801F052FFA0
:1010D000FFF710FF01F067FFFEE700BF10090020D7
:1010E000180A002000B583B0002200920D4B596C05
:1010F00041F480415964596C01F480410091009998
:101100000192196C41F0805119641B6C03F08053FB
:101110000193019B0F216FF0010000F06FFA03B003
:101120005DF804FB0038024030B589B00446002366
:101130000193214B1A6C42F020021A641B6C03F0DD
:1011400020030193019B02A903A801F091F8069BDB
:10115000CBB901F06DF80346184AA2FB03239B0CA0
:10116000013B1748174A026040F2E732C260436011
:10117000002303618360836101F0C4FA054630B146
:10118000284609B030BD01F053F84300E4E70C48AD
:1011900001F054F905460028F2D1372000F03EFA5C
:1011A0000F2C01D90125EBE700222146372000F062
:1011B00025FA054B1C60E3E70038024083DE1B4341
:1011C000240900200014004008000020FEE7FEE78C
:1011D000FEE7FEE7FEE7704708B502F09FFE034812
:1011E00002F094FE024800F039FB08BDF808002028
:1011F000B809002008B5024801F069F908BD00BF30
:101200002409002010B503460C4A0D490D4800681A
:1012100040B10C4800680344521A934206D8094A68
:10122000136010BD0748084C0460F2E703F0F4FFB8
:101230000C2303604FF0FF30F3E700BF00000220F3
:10124000000400006C090020F84A0020034AD2F88C
:10125000883043F47003C2F88830704700ED00E036
:101260000268094B9A4200D0704782B00023019374
:10127000064B1A6C42F008021A641B6C03F0080358
:101280000193019B02B07047000C004000380240FF
:1012900000B587B000230193029303930493059351
:1012A00002680E4B9A4202D007B05DF804FB00239F
:1012B00000930B4B1A6B42F080021A631B6B03F016
:1012C00080030093009B4FF4E053019302230293A9
:1012D000059301A9034800F0AFFBE5E7000C0040CF
:1012E00000380240001C024000B58FB000230A9372
:1012F0000B930C930D93089309930193029303931B
:1013000004930593069307932A482B4A0260A72269
:101310004260836040F2E732C2600361836101F0A2
:10132000F1F9002831D14FF480530A930AA92148DA
:1013300001F0F3FA60BB1F4801F010FA58BB00231C
:101340000893099308A91B4801F0F8FB30BB602300
:101350000193002202920392059201A9154801F01F
:1013600061FAF0B904220DEB0201124801F05AFAB9
:10137000D0B9082201A90F4801F054FAB8B90D48B4
:10138000FFF786FF0FB05DF804FBFFF73BFECAE7EF
:10139000FFF738FECFE7FFF735FED0E7FFF732FE65
:1013A000D5E7FFF72FFEDDE7FFF72CFEE1E7FFF7BC
:1013B00029FEE4E770090020000C004008B50A4847
:1013C0000A4B03600A4B436000238360C3600361E0
:1013D0000C2242618361C36101F0BEFC00B908BD0B
:1013E000FFF710FEFBE700BF180A0020004800408E
:1013F000A086010030B589B00023039304930593C0
:10140000069307930268244B9A4201D009B030BD7D
:1014100004460025019503F5F8331A6C42F4802246
:101420001A641A6C02F480220192019A02951A6BD6
:1014300042F004021A631B6B03F004030293029B45
:101440004FF440630393022304930323069307237B
:10145000079303A9114800F0EFFA1148114B0360FC
:101460004FF0006343608560C5604FF480630361A3
:10147000456185614FF48073C3614FF4403303626B
:10148000456200F04FF918B9054BE3639C63BDE773
:10149000FFF7B8FDF8E700BF004800400008024031
:1014A000B809002028600240DFF834D0FFF7CEFEF4
:1014B0000C480D490D4A002302E0D458C4500433AF
:1014C000C4188C42F9D30A4A0A4C002301E0136085
:1014D0000432A242FBD303F0A5FEFFF7E7FD7047FD
:1014E00000000220000000204C0500207C5800086D
:1014F00050050020F44A0020FEE7000008B50B4B21
:101500001A6842F400721A601A6842F480621A6023
:101510001A6842F480721A60032000F05DF80F2010
:10152000FFF702FEFFF7DEFD002008BD003C024091
:10153000034A1168034B1B780B441360704700BFCC
:10154000600A002004000020014B1868704700BFAB
:10155000600A0020002807DB00F01F024009012379
:101560009340024A42F82030704700BF00E100E09B
:10157000002808DB0901C9B200F1604000F56140B4
:1015800080F80013704700F00F000901C9B2014B49
:101590001954704714ED00E000B500F00700C0F1E9
:1015A000070CBCF1040F28BF4FF0040C031D062BE1
:1015B0000FD9C31E4FF0FF3E0EFA0CF021EA0001D6
:1015C00099400EFA03FE22EA0E0241EA02005DF89B
:1015D00004FB0023EEE70000074AD36823F4E0632E
:1015E0001B041B0C000200F4E060034343F0BF63E4
:1015F00043F40033D360704700ED00E010B50446BB
:10160000054BD868C0F30220FFF7C6FF014620460D
:10161000FFF7AEFF10BD00BF00ED00E008B5FFF71B
:1016200099FF08BD30B405682C6824F480242C6030
:10163000046863608368402B05D003689960036881
:10164000DA6030BC704703689A600368D960F8E7D5
:1016500010B40368D9B210390C4AA2FB0142120936
:101660000B4CA25CC2655F2909D923F47F7323F078
:10167000030304338365806D5DF8044B704723F4E6
:101680007F7323F003038365F5E700BFABAAAAAA23
:101690007C560008836A826992B9012B0AD0022B1A
:1016A00002D00BB100207047C36A13F0807F28D1AD
:1016B00000207047C36AB3F1C07F24D00020704778
:1016C000B2F5005F09D0022B25D9032B25D1C36ABF
:1016D00013F0807F23D100207047032B03D8DFE86D
:1016E00003F01404140A00207047C36A13F0807FCB
:1016F0000DD100207047C36AB3F1C07F09D000202C
:101700007047012070470120704701207047012079
:10171000704701207047012070470020704701206A
:101720007047000070B50446FFF70EFF002C5BD039
:101730000546022384F83530002384F834302268CB
:10174000136823F00103136023681A6812F0010F75
:101750000AD0FFF7F9FE431B052BF5D9202363655B
:10176000032084F8350070BD1A6820491140626872
:10177000A0680243E06802432069024360690243B3
:10178000A0690243E0690243206A02430A43616A96
:1017900004291ED01A602668756925F00705636A5A
:1017A0001D43042B07D1A36A1D43E36A1BB12046E6
:1017B000FFF770FF90B975612046FFF749FFE26DB2
:1017C0003F239340836000206065012384F8353017
:1017D000C9E7E16A206B01430A43DBE74023636505
:1017E000012084F83500BEE70120BCE73F8010F0FF
:1017F00038B50446856D90F8340001282BD00120BF
:1018000084F8340094F83500C0B2012804D00023D5
:1018100084F83430022038BD022084F835000020DE
:1018200060652046FFF7FEFEE26D3F239340AB600C
:101830002268136843F016031360236C23B12268F7
:10184000136843F0080313602268136843F0010330
:1018500013600020DFE70220DDE70000F0B583B071
:10186000044600230193724B1D68724BA3FB0535A0
:10187000AD0A876D3E68C26D08239340334210D095
:1018800003681A6812F0040F0BD01A6822F00402E1
:101890001A60C26D08239340BB60436D43F001039F
:1018A0004365E26D01239340334209D022685269B7
:1018B00012F0800F04D0BB60636D43F002036365D8
:1018C000E26D04239340334209D02268126812F07B
:1018D000020F04D0BB60636D43F004036365E26DE7
:1018E00010239340334224D02268126812F0080F6C
:1018F0001FD0BB6023681A6812F4802F0DD01B68BC
:1019000013F4002F04D1236C9BB12046984710E0BC
:10191000A36C73B1204698470BE01A6812F4807FDD
:1019200003D11A6822F008021A60236C0BB120461A
:101930009847E26D20239340334255D022681268C5
:1019400012F0100F50D0BB6094F83530DBB2052B8D
:101950000ED023681A6812F4802F33D01B6813F45A
:10196000002F2AD1636C002B3ED0204698473BE0E5
:101970002268136823F0160313602268536923F06A
:1019800080035361236CA3B12268136823F008031A
:101990001360E26D3F239340BB60012384F8353030
:1019A000002384F83430236D002B3FD02046984725
:1019B0003CE0A36C002BE7D1EBE7E36BA3B120463F
:1019C000984711E01A6812F4807F09D11A6822F052
:1019D00010021A60012384F83530002384F8343073
:1019E000E36B0BB120469847636DFBB1636D13F059
:1019F000010F17D0052384F835302268136823F0CF
:101A000001031360019B01330193AB4204D82368A7
:101A10001B6813F0010FF5D1012384F83530002342
:101A200084F83430E36C0BB12046984703B0F0BD26
:101A300000000020B5814E1B00230F2B00F2E9802F
:101A400070B582B065E085684FEA430E032404FA5E
:101A50000EF425EA0405CC6804FA0EF42C438460E5
:101A6000446824EA02044A68C2F300129A402243FE
:101A700042605CE0DC08083450F8242003F00705DD
:101A8000AD004FF00F0E0EFA05FE22EA0E0E0A69A7
:101A9000AA4042EA0E0240F824205CE0072200E05F
:101AA000002202FA0EF22A4302345A4D45F824204D
:101AB000594A94686FEA0C0224EA0C054E6816F441
:101AC000801F01D04CEA0405534CA560E46802EA8B
:101AD00004054E6816F4001F01D04CEA04054E4C74
:101AE000E560646802EA04054E6816F4003F01D020
:101AF0004CEA0405484C6560246822404D6815F4A2
:101B0000803F01D04CEA0402434C226001330F2B8A
:101B10007DD801229A400C6804EA020C32EA0404DF
:101B2000F4D14C6804F00304013C012C8BD94A68C1
:101B300002F00302032A09D0C4685D000322AA4010
:101B400024EA02048A68AA402243C2604A6802F07A
:101B50000302022A8ED004684FEA430E032202FADF
:101B60000EF224EA02044A6802F0030202FA0EF2BC
:101B7000224302604A6812F4403FC7D0002201921B
:101B8000264A546C44F480445464526C02F48042FB
:101B90000192019A9C08A51C1E4A52F8255003F098
:101BA000030E4FEA8E0E0F2202FA0EF225EA02050C
:101BB0001B4A90423FF474AF02F5806290421AD003
:101BC00002F58062904218D002F58062904216D0F1
:101BD00002F58062904214D002F58062904212D0E9
:101BE00002F58062904210D002F5806290423FF48C
:101BF00055AF082255E7012253E7022251E703229D
:101C00004FE704224DE705224BE7062249E702B0E1
:101C100070BD704700380140003C01400038024070
:101C200000000240002800F0E08170B582B0044658
:101C3000036813F0010F3BD09F4B9B6803F00C032C
:101C4000042B2CD09C4B9B6803F00C03082B21D059
:101C50006368B3F5803F4FD0B3F5A02F52D0964BB9
:101C60001A6822F480321A601A6822F480221A60FC
:101C70006368002B50D0FFF767FC05468E4B1B684E
:101C800013F4003F14D1FFF75FFC401B6428F5D923
:101C90000320B1E1884B5B6813F4800FD8D0864BEA
:101CA0001B6813F4003F03D06368002B00F09F8192
:101CB000236813F0020F54D07F4B9B6813F00C0F76
:101CC0003ED07D4B9B6803F00C03082B33D0E368B8
:101CD000002B68D0794B01221A60FFF735FC0546CE
:101CE000754B1B6813F0020F54D1FFF72DFC401BFE
:101CF0000228F5D903207FE16F4A136843F480334B
:101D00001360B5E76C4B1A6842F480221A601A68B7
:101D100042F480321A60ABE7FFF716FC0546664BCB
:101D20001B6813F4003FC3D0FFF70EFC401B642870
:101D3000F5D9032060E1604B5B6813F4800FC6D1D6
:101D40005D4B1B6813F0020F03D0E368012B40F0DA
:101D50005081594A136823F0F803216943EAC1030B
:101D60001360236813F0080F42D063696BB3534BC1
:101D70000122C3F8802EFFF7E7FB05464E4B5B6F51
:101D800013F0020F34D1FFF7DFFB401B0228F5D917
:101D9000032031E1484A136823F0F803216943EA3C
:101DA000C1031360DDE7454B00221A60FFF7CCFB4F
:101DB0000546414B1B6813F0020FD2D0FFF7C4FB5E
:101DC000401B0228F5D9032016E13C4B0022C3F842
:101DD000802EFFF7B9FB0546374B5B6F13F0020F00
:101DE00006D0FFF7B1FB401B0228F5D9032003E121
:101DF000236813F0040F77D02F4B1B6C13F0805F18
:101E000033D1002301932C4B1A6C42F080521A6498
:101E10001B6C03F080530193019B0125284B1B6829
:101E200013F4807F23D0A368012B34D0052B38D046
:101E3000214B1A6F22F001021A671A6F22F0040276
:101E40001A67A368002B3DD0FFF77EFB06461A4BAE
:101E50001B6F13F0020F46D1FFF776FB801B41F298
:101E600088339842F3D90320C6E00025D6E7144A08
:101E7000136843F480731360FFF766FB0646104B4C
:101E80001B6813F4807FCED1FFF75EFB801B022816
:101E9000F5D90320B0E0084A136F43F0010313673C
:101EA000CFE7054B1A6F42F004021A671A6F42F02F
:101EB00001021A67C5E700BF003802400000474230
:101EC00000700040FFF740FB0646524B1B6F13F0BB
:101ED000020F08D0FFF738FB801B41F2883398428D
:101EE000F3D9032088E0EDB9A369002B00F08380CB
:101EF000484A926802F00C02082A51D0022B17D0EF
:101F0000454B00221A66FFF71FFB0446414B1B6836
:101F100013F0007F42D0FFF717FB001B0228F5D912
:101F2000032069E03B4A136C23F080531364DBE722
:101F3000394B00221A66FFF707FB0546354B1B6835
:101F400013F0007F06D0FFF7FFFA401B0228F5D9F7
:101F5000032051E0E369226A1343626A43EA821371
:101F6000A26A5208013A43EA0243E26A43EA026380
:101F7000284A5360284B01221A66FFF7E5FA044607
:101F8000244B1B6813F0007F06D1FFF7DDFA001B1E
:101F90000228F5D903202FE000202DE000202BE0BF
:101FA000012B2BD01B4B5B6803F48001E26991424B
:101FB00026D103F03F02216A8A4223D1616A47F6A3
:101FC000C0721A40B2EB811F1ED103F44031A26AE5
:101FD0005208013AB1EB024F18D103F07063E26A84
:101FE000B3EB026F14D1002006E0012070470120FE
:101FF00002E0012000E0002002B070BD0120FBE7FC
:102000000120F9E70120F7E70120F5E70120F3E7D8
:102010000120F1E7003802400000474208B5264B96
:102020009B6803F00C03042B41D0082B41D1224BB9
:102030005A6802F03F025B6813F4800F12D01E4B07
:102040005968C1F388111D480023A1FB0001FEF768
:10205000ADFD194B5B68C3F3014301335B00B0FB7B
:10206000F3F027E0144B5868C0F388104FEA401C87
:10207000BCEB000C6EEB0E0E4FEA8E1343EA9C6332
:102080004FEA8C11B1EB0C0163EB0E03DB0043EA6A
:102090005173C90011EB000C43F1000399020023B6
:1020A0004FEA8C2041EA9C51FEF780FDD1E70348BE
:1020B00000E0034808BD00BF0038024040787D01C1
:1020C0000024F400002800F09B8070B50D46044603
:1020D0004F4B1B6803F007038B4208D2CBB24C4A2C
:1020E0001370136803F007038B4240F08B80236862
:1020F00013F0020F17D013F0040F04D0454A936871
:1021000043F4E0539360236813F0080F04D0414A6E
:10211000936843F4604393603E4A936823F0F0036E
:10212000A1680B439360236813F0010F32D06368FA
:10213000012B21D09A1E012A25D9364A126812F0A5
:10214000020F61D033498A6822F0030213438B6087
:10215000FFF7FAF906462F4B9B6803F00C03626801
:10216000B3EB820F16D0FFF7EFF9801B41F28833F3
:102170009842F0D9032042E0264A126812F4003F48
:10218000E0D101203BE0234A126812F0007FD9D150
:10219000012034E01E4B1B6803F00703AB4207D954
:1021A000EAB21B4B1A701B6803F00703AB422DD138
:1021B000236813F0040F06D0164A936823F4E05303
:1021C000E1680B439360236813F0080F07D0114AAE
:1021D000936823F46043216943EAC1039360FFF7E6
:1021E0001DFF0C4B9B68C3F303130B4AD35CD84011
:1021F0000A4B18600A4B1868FEF796FF002070BD66
:10220000012070470120FAE70120F8E70120F6E7F6
:10221000003C0240003802406C56000800000020DC
:1022200008000020014B1868704700BF0000002024
:1022300008B5FFF7F7FF044B9B68C3F38223034AFB
:10224000D35CD84008BD00BF003802406456000887
:1022500008B5FFF7E7FF044B9B68C3F34233034A1B
:10226000D35CD84008BD00BF003802406456000867
:102270000F2303600B4B9A6802F0030242609A68D6
:1022800002F0F00282609A6802F4E052C2609B6839
:10229000DB0803F4E0530361034B1B6803F00703FF
:1022A0000B60704700380240003C024030B4036AC3
:1022B000026A22F0010202624268846924F0730C0F
:1022C0000C6844EA0C0423F0020C8B6843EA0C030C
:1022D000114DA84203D005F58065A84205D123F031
:1022E0000803CD682B4323F004030B4DA84203D011
:1022F00005F58065A84207D122F440724D6945EA90
:10230000020C8A6942EA0C02426084614A684263B4
:10231000036230BC704700BF0000014030B4036A64
:10232000026A22F4807202624268C46924F0730C6B
:102330000C6844EA0C0523F400738C6843EA042318
:10234000114CA04203D004F58064A04206D123F4CE
:102350000063CC6843EA042323F480630A4CA04260
:1023600003D004F58064A04207D122F440524C69A6
:1023700042EA04128C6942EA04124260C5614A686A
:10238000C263036230BC70470000014030B4036A8E
:10239000026A22F4805202624468C26922F4E64270
:1023A0000D6842EA052223F400538D6843EA0533A1
:1023B000094DA84203D005F58065A84204D124F454
:1023C00080444D6944EA85144460C2614A680264ED
:1023D000036230BC704700BF0000014010B4036AC4
:1023E000046A24F001040462846924F0F00C4CEACD
:1023F000021223F00A030B43826103625DF8044B6F
:10240000704710B4036A046A24F0100404628469FB
:1024100024F4704C4CEA023223F0A00343EA011387
:10242000826103625DF8044B7047836823F0700398
:102430000B4343F0070383607047000090F83D3082
:10244000DBB2012B37D1022380F83D300268D3681C
:1024500043F00103D3600368194A934220D0B3F1DB
:10246000804F1DD0A2F57C42934219D002F58062C4
:10247000934215D002F58062934211D002F5784262
:1024800093420DD002F57052934209D0A2F59432D6
:10249000934205D01A6842F001021A60002070478A
:1024A0009A6802F00702062A07D01A6842F0010271
:1024B0001A6000207047012070470020704700BF5D
:1024C000000001407047704770477047704770B513
:1024D00004460368DE681D6915F0020F10D016F07F
:1024E000020F0DD06FF002021A6101230377036817
:1024F0009B6913F0030F5ED0FFF7E6FF00232377FD
:1025000015F0040F12D016F0040F0FD023686FF0EF
:1025100004021A610223237723689B6913F4407F26
:102520004FD02046FFF7D0FF0023237715F0080F88
:1025300012D016F0080F0FD023686FF008021A614E
:10254000042323772368DB6913F0030F40D0204670
:10255000FFF7BAFF0023237715F0100F12D016F003
:10256000100F0FD023686FF010021A610823237731
:102570002368DB6913F4407F31D02046FFF7A4FFC6
:102580000023237715F0010F02D016F0010F2DD193
:1025900015F0800F02D016F0800F2FD115F0400FEC
:1025A00002D016F0400F31D115F0200F02D016F0F6
:1025B000200F33D170BDFFF786FF2046FFF785FF60
:1025C0009CE72046FFF77FFF2046FFF77EFFABE743
:1025D0002046FFF778FF2046FFF777FFBAE720464F
:1025E000FFF771FF2046FFF770FFC9E723686FF020
:1025F00001021A612046FEF7F9FCC9E723686FF073
:1026000080021A61204600F0E0FAC7E723686FF005
:1026100040021A612046FFF759FFC5E723686FF0B3
:1026200020021A61204600F0CFFAC3E70368344A5B
:10263000904212D0B0F1804F0FD0A2F57C42904270
:102640000BD002F58062904207D002F58062904282
:1026500003D002F57842904203D123F070034A6818
:102660001343274A90422AD0B0F1804F27D0A2F5D9
:102670007C42904223D002F5806290421FD002F546
:10268000806290421BD002F57842904217D002F54A
:102690007052904213D002F5806290420FD002F542
:1026A000806290420BD0A2F59832904207D002F59A
:1026B0008062904203D002F58062904203D123F4FD
:1026C0004073CA68134323F080034A6913430360CD
:1026D0008B68C3620B688362094B984203D003F591
:1026E0008063984201D10B6903630123436103694D
:1026F00013F0010F03D0036923F001030361704756
:102700000000014040B310B5044690F83D30F3B1ED
:10271000022384F83D30214651F8040BFFF786FF71
:10272000012384F8463084F83E3084F83F3084F842
:10273000403084F8413084F8423084F8433084F8E3
:10274000443084F8453084F83D30002010BD80F8D6
:102750003C30FEF785FDDBE70120704740B310B544
:10276000044690F83D30F3B1022384F83D30214611
:1027700051F8040BFFF75AFF012384F8463084F820
:102780003E3084F83F3084F8403084F8413084F89B
:10279000423084F8433084F8443084F8453084F87B
:1027A0003D30002010BD80F83C30FFF78BFEDBE7AA
:1027B0000120704730B4036A026A22F010020262FC
:1027C0004468826922F4E6420D6842EA052223F059
:1027D00020038D6843EA0513114DA84203D005F587
:1027E0008065A84206D123F08003CD6843EA051333
:1027F00023F040030A4DA84203D005F58065A842A6
:1028000007D124F440644D6944EA85048D6944EAA3
:102810008504446082614A688263036230BC704709
:102820000000014038B590F83C30012B66D00446DA
:102830000D46012380F83C300C2A5AD8DFE802F01C
:10284000075959591B595959305959594400006869
:10285000FFF72CFD2268936943F008039361226817
:10286000936923F0040393612268936929690B43F8
:10287000936100203EE00068FFF79CFF22689369A7
:1028800043F4006393612268936923F48063936146
:1028900022689369296943EA01239361002029E0B2
:1028A0000068FFF73BFD2268D36943F00803D3615A
:1028B0002268D36923F00403D3612268D3692969AC
:1028C0000B43D361002015E00068FFF75FFD22682D
:1028D000D36943F40063D3612268D36923F480632E
:1028E000D3612268D369296943EA0123D3610020B7
:1028F00000E00120002384F83C3038BD0220FCE7D2
:1029000010B4846824F47F4C42EA03220A4342EA6A
:102910000C0282605DF8044B704790F83C30012B4C
:1029200078D010B50446012380F83C30022380F8AB
:102930003D300268936823F47F4323F0770393606C
:102940000B68602B4CD029D8402B54D00CD9502B7D
:1029500022D1CA6849680068FFF740FD502120680D
:10296000FFF763FD002005E0202B0DD009D9302BA7
:102970000AD00120012384F83D30002384F83C3044
:1029800010BD0BB1102B05D119462068FFF74DFD86
:102990000020EFE70120EDE70120EBE7B3F5805FD2
:1029A00034D0B3F5005F0CD1CB684A688968006801
:1029B000FFF7A6FF2268936843F4804393600020EA
:1029C000D8E7702B24D1CB684A6889680068FFF784
:1029D00097FF2268936843F0770393600020C9E76C
:1029E000CA6849680068FFF70CFD60212068FFF79E
:1029F0001CFD0020BEE7CA6849680068FFF7EEFCCE
:102A000040212068FFF711FD0020B3E70020B1E767
:102A10000120AFE70220704701F01F014FF0010CC9
:102A20000CFA01FC036A23EA0C030362036A8A407E
:102A3000134303627047000010B50446084600299E
:102A400042D194F83E30DBB2013B18BF0123002B8A
:102A50006ED1002851D1022384F83E300122014674
:102A60002068FFF7D9FF2368334A934203D002F569
:102A70008062934203D15A6C42F400425A64236844
:102A80002D4A934249D0B3F1804F46D0A2F57C4203
:102A9000934242D002F5806293423ED002F58062BA
:102AA00093423AD002F57842934236D002F5705202
:102AB000934232D0A2F5943293422ED01A6842F05B
:102AC00001021A60002032E0042908D008290DD044
:102AD00094F84130DBB2013B18BF0123B7E794F80B
:102AE0003F30DBB2013B18BF0123B0E794F8403020
:102AF000DBB2013B18BF0123A9E7042805D0082851
:102B000007D0022384F84130A8E7022384F83F303D
:102B1000A4E7022384F84030A0E79A6802F0070295
:102B2000062A07D01A6842F001021A60002010BD80
:102B30000120FCE70020FAE70000014090F83C206B
:102B4000012A3DD010B40346012280F83C20022225
:102B500080F83D2002685068946820F0700C086886
:102B600040EA0C0050601A68164882421AD0B2F14E
:102B7000804F17D0A0F57C40824213D000F58060D2
:102B800082420FD000F5806082420BD000F5784081
:102B9000824207D000F57050824203D0A0F59430F5
:102BA000824204D124F080044968214391600122CB
:102BB00083F83D20002083F83C005DF8044B70470B
:102BC000022070470000014070477047026802F120
:102BD0000C0353E8003F23F0C0030C3242E80031FD
:102BE0000029F3D1202380F841307047026802F1B8
:102BF0000C0353E8003F23F490730C3242E8003199
:102C00000029F3D1026802F1140353E8003F23F0D6
:102C10000103143242E800310029F3D1036B012B88
:102C200005D0202380F842300023036370470268F8
:102C300002F10C0353E8003F23F010030C3242E88A
:102C400000310029F3D1ECE710B50446026813699E
:102C500023F44053C1680B431361836802691A432C
:102C600043691A43C3691A430168CB6823F41643C6
:102C700023F00C031343CB600268536923F44073C1
:102C800081690B4353610368314A934206D002F5D0
:102C90008062934202D0FFF7CBFA01E0FFF7D8FA47
:102CA000E369B3F5004F29D00021031849411B18EF
:102CB00041F10001C90041EA5371DB001818636853
:102CC0004FEA83024FEA937341F10001FDF76EFF73
:102CD000204AA2FB00314909642303FB11031B01B5
:102CE0003233A2FB03235B0903F0F00202EB011273
:102CF00003F00F03216813448B6010BD00230218FA
:102D000043EB0301121841F10001C90041EA52717D
:102D1000D200101841F10001626892185B41FDF782
:102D200045FF0C4AA2FB00314909642303FB110350
:102D3000DB003233A2FB03235B095A0002F4F87272
:102D400002EB011203F00703216813448B60D4E700
:102D5000001001401F85EB5160B310B5044690F898
:102D6000413013B3242384F841302268D36823F41C
:102D70000053D3602046FFF767FF2268136923F4EE
:102D8000904313612268536923F02A035361226838
:102D9000D36843F40053D36000206064202384F898
:102DA000413084F84230606310BD80F84030FEF757
:102DB00021FBD7E70120704770477047704710B577
:102DC000846B23685A6994F84130DBB2212B10D010
:102DD00023685A6902F0400294F84230DBB2222B99
:102DE00011D0636C43F0100363642046FFF7E6FFE5
:102DF00010BD02F08002002AEAD00023E3842046BE
:102E0000FFF7E4FEE4E7002AEBD00023E385204649
:102E1000FFF7ECFEE5E7704708B5806B01234363DD
:102E2000036B012B02D0FFF7C8FF08BD818D490855
:102E3000FFF7F1FFF9E708B50346806B1B681B68D5
:102E400013F4807F2BD10023C385026802F10C03A9
:102E500053E8003F23F480730C3242E8003100292C
:102E6000F3D1026802F1140353E8003F23F0010399
:102E7000143242E800310029F3D1026802F1140350
:102E800053E8003F23F04003143242E800310029A8
:102E9000F3D1202380F84230036B012B07D00023AD
:102EA0004363036B012B0FD0FFF786FF08BD026859
:102EB00002F10C0353E8003F23F010030C3242E808
:102EC00000310029F3D1EAE7818DFFF7A4FFEDE798
:102ED00030B583B00446134681628285002545647F
:102EE000222280F84220C26B1F48D063E26B1F4849
:102EF0001064E26B1E48D064E26B156520680A46D8
:102F0000011DE06BFEF774FC019523681A680192BD
:102F10005B680193019B23695BB1226802F10C039A
:102F200053E8003F43F480730C3242E8003100293B
:102F3000F3D1226802F1140353E8003F43F0010388
:102F4000143242E800310029F3D1226802F114035F
:102F500053E8003F43F04003143242E800310029B7
:102F6000F3D1002003B030BD372E0008192E000821
:102F7000BF2D000808B590F84230DBB2202B08D1F5
:102F800049B10AB9012008BD00230363FFF7A0FF80
:102F9000F9E70220F7E70120F5E7842801D00330A4
:102FA00070470020704708B500F068FD002008BD9C
:102FB0002DE9F04387B00E464469C4B18569B5B1C7
:102FC0004768D0F80080D0F81090B0F90800FFF7FB
:102FD000E4FF02950194009033464A464146384644
:102FE00000F0DCFC0590059807B0BDE8F08344686C
:102FF00005680769B0F90800FFF7CFFF05AB01933B
:1030000000903346BAB22946204600F004FD01285C
:10301000E9D00020E8E708B500B9012000F080FE03
:10302000002008BD00F1080343604FF0FF328260CA
:10303000C36003610023036070470023036170478E
:1030400043684B609A688A605160996008610368C0
:1030500001330360704730B40D68B5F1FF3F11D004
:1030600000F108031C465B681A68AA42FAD9636833
:103070004B6099608C606160086103680133036094
:1030800030BC70470469F2E70369416882688A606E
:10309000416851605A68824206D0002202611A6873
:1030A000013A1A601868704782685A60F5E70000B4
:1030B00082B0002301930D4B1B68B3F1FF3F08D092
:1030C0004FF0500383F31188BFF36F8FBFF34F8F1F
:1030D000FEE74FF0500383F31188BFF36F8FBFF308
:1030E0004F8F019B002BFCD002B070470C000020DA
:1030F00008480068006880F308884FF0000080F3FB
:10310000148862B661B6BFF34F8FBFF36F8F00DFD5
:1031100000BF000008ED00E0DFF80C00016841F49A
:10312000700101607047000088ED00E04FF080738F
:1031300040F8043C21F0010140F8081C054B40F820
:103140000C3C40F8202C6FF0020340F8243C44383B
:10315000704700BFB1300008000000000000000010
:10316000074B19680868B0E8F04F80F30988BFF38F
:103170006F8F4FF0000080F311887047AFF300802D
:10318000B44700204FF0500383F31188BFF36F8FD3
:10319000BFF34F8F0B4A136801331360012B00D02C
:1031A00070474FF0E023D3F8043D13F0FF0FF7D042
:1031B0004FF0500383F31188BFF36F8FBFF34F8F2E
:1031C000FEE700BF0C000020094B1B6843B94FF01D
:1031D000500383F31188BFF36F8FBFF34F8FFEE768
:1031E000013B034A13600BB983F31188704700BF9A
:1031F0000C000020000000000000000000000000A3
:10320000EFF30980BFF36F8F154B1A681EF0100F94
:1032100008BF20ED108A20E9F04F10602DE9090069
:103220004FF0500080F31188BFF34F8FBFF36F8FC3
:1032300000F09CFD4FF0000080F3118809BC196874
:103240000868B0E8F04F1EF0100F08BFB0EC108A0D
:1032500080F30988BFF36F8F704700BFAFF3008022
:10326000B447002008B54FF0500383F31188BFF333
:103270006F8FBFF34F8F00F04BFC28B14FF0E0236E
:103280004FF08052C3F8042D002383F3118808BD4A
:103290004FF0E022002313619361054B1B68054941
:1032A000A1FB03139B09013B536107231361704783
:1032B00000000020D34D62104FF0E023D3F8002D22
:1032C0003D4B9A421CD04FF0E023D3F8002D3B4BEE
:1032D0009A421ED030B583B0394B1A78D2B20192DF
:1032E000FF221A701B78DBB28DF803309DF8033093
:1032F00003F05003334A1370334B07221A601BE06C
:103300004FF0500383F31188BFF36F8FBFF34F8FDC
:10331000FEE74FF0500383F31188BFF36F8FBFF3C5
:103320004F8FFEE7284A1368013B13609DF8033076
:103330005B00DBB28DF803309DF8033013F0800F93
:10334000F0D1214B1B68032B08D04FF0500383F3BF
:103350001188BFF36F8FBFF34F8FFEE71B021A4A2E
:10336000136003F4E0631360019BDBB2144A137033
:103370004FF0E024D4F8203D43F47003C4F8203D1E
:10338000D4F8203D43F07043C4F8203DFFF780FFA0
:1033900000250E4B1D60FFF7BFFED4F8343F43F00D
:1033A0004043C4F8343FFFF7A3FE00F0DFFCFFF713
:1033B0007FFE284603B030BD71C20F4170C20F417D
:1033C00000E400E0680A0020640A00200C000020ED
:1033D000124A12F0070F1ED0D11D21F00701C1F5CE
:1033E000705313440A460E480260002141601344A2
:1033F000083B23F007030B48036059601960991AD2
:1034000051601360084B1960084B1960084B4FF06E
:1034100000421A6070474FF47053E4E78C0A0020B2
:10342000840A0020800A0020780A00207C0A0020FC
:103430006C0A0020164B1A461B688342FBD3516866
:1034400002EB010C844509D0416800EB010C634597
:1034500009D00360904219D0106070474068014461
:1034600051601046F0E710B40A4C2468A3420BD018
:103470005B681944416013681B680360904200D088
:1034800010605DF8044B70470460F7E7704700BFB9
:10349000840A0020800A002038B5044600F030FB82
:1034A000384B1B68B3B1384B1B681C4250D1002C01
:1034B00050D004F1080214F0070F02D022F00702E6
:1034C0000832002A55D0314B1B68934253D3304900
:1034D0000C6804E0FFF77CFFE5E721461C466368C3
:1034E000934202D22368002BF7D1264B1B68A342DC
:1034F00043D00D68083523680B6063689B1A102B56
:1035000010D9A01810F0070F08D04FF0500383F324
:103510001188BFF36F8FBFF34F8FFEE74360626088
:10352000FFF788FF626819490B689B1A0B601949FD
:1035300009688B4201D217490B60134B1B68134378
:10354000636000232360144A13680133136002E0B0
:10355000002500E0002500F067FB15F0070F0ED0F6
:103560004FF0500383F31188BFF36F8FBFF34F8F7A
:10357000FEE70025EFE70025EDE70025EBE728460D
:1035800038BD00BF800A00206C0A00207C0A0020A1
:10359000840A0020780A0020740A0020002834D011
:1035A00038B50446A0F1080550F8043C174A1268E3
:1035B000134208D14FF0500383F31188BFF36F8F8C
:1035C000BFF34F8FFEE750F8081C41B14FF0500396
:1035D00083F31188BFF36F8FBFF34F8FFEE723EAAA
:1035E000020340F8043C00F08BFA54F8041C084A2B
:1035F00013680B4413602846FFF71CFF054A136845
:103600000133136000F010FB38BD70476C0A0020D6
:103610007C0A0020700A0020084B1B681B6823B935
:10362000074B4FF0FF321A607047044B1B68DB6892
:10363000DB685A68024B1A60704700BFFC460020E6
:10364000944600202DE9F04707469846089DDDF88E
:1036500024900A9C266B02F18042013A06EB820616
:1036600026F00706002964D008464FF0000CBCF194
:103670000F0F09D810F80C2004EB0C0383F834204A
:1036800012B10CF1010CF2E7002384F84330062D4F
:1036900000D90625E56265644FF0000AC4F848A029
:1036A000201DFFF7CAFC04F11800FFF7C6FC2461D7
:1036B000C5F10705A5616462C4F870A184F874A11E
:1036C0004FF49072514604F1500001F071FD1B4B14
:1036D000636503F16802A265D033E365012200232C
:1036E000C4E93A2343F20E33A4F8F0304AF6CD335E
:1036F000A4F8F23041F23423A4F8F4304EF26D63B2
:10370000A4F8F6304DF6EC63A4F8F8300523A4F8DD
:10371000FA300B23A4F8FC30424639463046FFF716
:1037200005FD2060B9F1000F01D0C9F80040BDE8E7
:10373000F087002384F83430A9E700BFF447002065
:1037400038B5002407E004EB840293000E481844C7
:10375000FFF768FC0134062CF5D90C4D2846FFF71D
:1037600061FC0B4C2046FFF75DFC0A48FFF75AFC52
:103770000948FFF757FC0948FFF754FC084B1D6048
:10378000084B1C6038BD00BF2847002014470020AC
:1037900000470020E4460020D0460020B846002024
:1037A000FC460020F846002010B50446FFF7EAFC6E
:1037B000214A136801331360204B1B685BB1204B17
:1037C0001B686BB91D4B1B68DA6AE36A9A4207D81B
:1037D0001A4B1C6004E0194B1C601368012B28D0A5
:1037E000184A136801331360E06A01238340164AC4
:1037F00011680B43136000EB8000211D134B03EB9A
:103800008000FFF71DFCFFF7DFFC0D4B1B687BB151
:103810000A4B1B68DA6AE36A9A4209D24FF0E02346
:103820004FF08052C3F8042DBFF34F8FBFF36F8F5B
:1038300010BDFFF785FFD3E7B4460020B447002052
:10384000A846002098460020AC46002028470020CB
:1038500010B50446503001F0B3FC94F8753163B1F3
:10386000012B11D0022B0ED04FF0500383F311889F
:10387000BFF36F8FBFF34F8FFEE7206BFFF78EFE16
:103880002046FFF78BFE10BD2046FFF787FEFAE7C4
:103890000F4B1B68D3B110B5FFF774FC0D4BDB6801
:1038A000DC68201DFFF7F0FB0B4A1368013B136037
:1038B000074A1368013B1360FFF786FC2046FFF7B9
:1038C000C7FF034B1B68002BE6D110BD704700BF3C
:1038D000CC460020D0460020B446002008B5FFF7B3
:1038E000D7FF074B1B68012BF9D94FF0E0234FF0AE
:1038F0008052C3F8042DBFF34F8FBFF36F8FEEE7F5
:103900002847002070B504460D461D4B1E681D4B10
:1039100018680430FFF7B8FB48B91A4B1B68DB6A1C
:1039200001229A4018490B6823EA02030B60B4F1A4
:10393000FF3F0DD03444134B1B685C60A64210D986
:10394000124B18680F4B19680431FFF784FB70BDE8
:10395000002DEFD00B4B196804310D48FFF770FBB9
:10396000F5E70C4B1868074B19680431FFF773FB38
:10397000094B1B68A342EAD9074B1C60E7E700BF6D
:10398000B0460020B4470020AC460020F846002096
:10399000B8460020FC4600209446002030B587B091
:1039A0000B9C8CB10C9DC5B14FF4BC750495049D66
:1039B000B5F5BC7F1AD04FF0500383F31188BFF3E5
:1039C0006F8FBFF34F8FFEE74FF0500383F31188E3
:1039D000BFF36F8FBFF34F8FFEE74FF0500383F3BA
:1039E0001188BFF36F8FBFF34F8FFEE7049D0C9DCF
:1039F0002C63022485F8754100240394029505ACDC
:103A000001940A9C0094FFF71DFE0C98FFF7CCFE72
:103A1000059807B030BD2DE9F04385B007468846CC
:103A200014461E469000FFF737FD10B381464FF451
:103A3000BC70FFF731FD0546A8B1C0F830900023F7
:103A400080F87531039302900D9B01930C9B0093BA
:103A50003346224641463846FFF7F4FD2846FFF735
:103A6000A3FE012007E04846FFF798FD4FF0FF3026
:103A700001E04FF0FF3005B0BDE8F08310B588B02D
:103A800000240594069407AA06A905A8FDF726FABE
:103A9000059B0293069B019300942346079A1049C5
:103AA0001048FFF77BFF104B1860B8B14FF0500380
:103AB00083F31188BFF36F8FBFF34F8F0B4B1B68DE
:103AC00050330B4A13600B4B4FF0FF321A600A4B16
:103AD00001221A60094B1C60FFF7EEFB08B010BD15
:103AE00084560008DD38000890460020B4470020C6
:103AF0001000002094460020A8460020B046002078
:103B0000024A136801331360704700BF8C460020DF
:103B1000F8B53A4B1B68002B69D1394B1D6801354C
:103B20001D60C5B9374B1B681B6843B14FF050038C
:103B300083F31188BFF36F8FBFF34F8FFEE7314AD6
:103B40001168314B186810601960304A13680133EE
:103B50001360FFF761FD2E4B1B68AB423DD9002778
:103B60002C4B1B68DB6A03EB83039A002A4B9B58A0
:103B7000012B00D90127294B1B68002B3CD00127C2
:103B80003AE001271F4B1B681B6843B31D4B1B68A2
:103B9000DB68DC6863689D4226D3261D3046FFF74C
:103BA00073FAA36A1BB104F11800FFF76DFAE36A18
:103BB00001229A401A49086802430A6003EB830312
:103BC0009A00314614481044FFF73AFAE26A114B62
:103BD0001B68DB6A9A42D4D2D4E70027D2E70C4BA9
:103BE0004FF0FF321A60BBE7094A1360B8E70D4A8D
:103BF00013680133136000273846F8BD8C46002057
:103C0000B0460020FC460020F84600209C460020DC
:103C100094460020B447002028470020A0460020FA
:103C2000AC460020A446002038B5354B1B6843B98C
:103C30004FF0500383F31188BFF36F8FBFF34F8FA3
:103C4000FEE7FFF79FFA2E4B1A68013A1A601B68CD
:103C5000002B4FD12B4B1B680BB900244BE00024E9
:103C6000294B1B681BB3284BDB68DC6804F1180088
:103C7000FFF70AFA251D2846FFF706FAE06A012336
:103C80008340224A11680B43136000EB80002946F1
:103C90001F4B03EB8000FFF7D3F9E26A1D4B1B6853
:103CA000DB6A9A42DCD31C4B01221A60D8E70CB1C4
:103CB000FFF7B2FC194B1C6884B9174B1C68D4B1D0
:103CC0004FF0E0234FF08052C3F8042DBFF34F8F25
:103CD000BFF36F8F01240EE0013C07D0FFF718FF00
:103CE0000028F9D00C4B01221A60F5E70B4B00229B
:103CF0001A60E2E70024FFF767FA204638BD00BFEC
:103D00008C460020B4460020E4460020AC4600204B
:103D100028470020B4470020A0460020A4460020E9
:103D200010B5A8B10446104B1B6843B14FF05003C7
:103D300083F31188BFF36F8FBFF34F8FFEE7FFF759
:103D4000DFFE00212046FFF7DDFDFFF76DFF48B9DC
:103D50004FF0E0234FF08052C3F8042DBFF34F8F94
:103D6000BFF36F8F10BD00BF8C460020224B1B6835
:103D70001BB1224B01221A607047204B00221A60AF
:103D80001F4B1B68B3FA83F3DBB2C3F11F0303EBD2
:103D900083018A001B498A5842B94FF0500383F3CC
:103DA0001188BFF36F8FBFF34F8FFEE7154803EB0A
:103DB00083018A00024451684968516003EB830C17
:103DC0004FEA8C020832024491420DD003EB830388
:103DD0009A000C4B13445B68DA680B4B1A601B6843
:103DE00050330A4A13607047486862469100054A9A
:103DF0000A445060EAE700BF8C460020A04600203D
:103E0000AC46002028470020B447002010000020C6
:103E1000284B1A78597842EA0122C2F30A02A2F525
:103E20008062028059789A78520142EAD102C2F344
:103E30000A02A2F5806242809978DA78920042EA1A
:103E40009112197942EA8122C2F30A02A2F5806234
:103E5000828093F804C05979CA0142EA5C02C2F335
:103E60000A02A2F58062C2808A090272C1F30111BE
:103E700041729A79D97942EA012242811A7A597AB1
:103E800042EA012282819A7AD97A42EA0122C281E7
:103E90001A7B02745A7B42749A7BD97B42EA0122D4
:103EA00042821A7C5B7C42EA0323A3F5806383820F
:103EB000704700BF1009002038B505460C46FFF7D3
:103EC000A7FFB5F900302380B5F902306380B5F95A
:103ED0000430A380B5F90630E38095F908302372E9
:103EE00095F909306372B5F90A306381B5F90C3080
:103EF000A381B5F90E30E3812B7C23746B7C637452
:103F00006B8A6382B5F91430A38238BD08B50146C7
:103F10000148FFF7D1FF08BDB847002008B50248A7
:103F2000FFF776FF08BD00BFB847002010B50C466C
:103F30009DF808100270438084600171022907D047
:103F4000032909D001290BD100212046FEF774FD79
:103F500004212046FEF770FD08212046FEF76CFD87
:103F600010BD000000000000F8B504464180037950
:103F7000022B32D0032B5ED0012B40F08A8000252B
:103F800028E0FCF777FA02460B4643A1D1E900018D
:103F9000FCF704FC06460F462846FCF76BFA32464F
:103FA0003B46FCF7D1FAFCF7B1FDFCF775FA41ECA2
:103FB000100B00F0CDF851EC100B0022384BFCF741
:103FC000C3FAFCF783FDA3681B6858630120FFF761
:103FD00022F801356088A842D3DC002528E0FCF7F0
:103FE00049FA02460B462CA1D1E90001FCF7D6FBA9
:103FF00006460F462846FCF73DFA32463B46FCF79C
:10400000A3FAFCF783FDFCF747FA41EC100B00F034
:104010009FF851EC100B0022214BFCF795FAFCF7AE
:1040200055FDA3681B6898630120FEF7F4FF013576
:104030006088A842D3DC002528E0FCF71BFA024682
:104040000B4615A1D1E90001FCF7A8FB06460F4677
:104050002846FCF70FFA32463B46FCF775FAFCF7A8
:1040600055FDFCF719FA41EC100B00F071F851EC1A
:10407000100B00220A4BFCF767FAFCF727FDA36838
:104080001B68D8630120FEF7C6FF01356088A8428F
:10409000D3DCF8BDAFF3008097D17E5AFB210940F5
:1040A00000408F4000B583B00123009341F2883374
:1040B000472207490748FFF739FF074B93F90830B4
:1040C000012BFAD141F288310248FFF74DFFF4E7A6
:1040D00070090020D0470020F808002000B583B008
:1040E0000223009340F6B833472207490748FFF7F9
:1040F0001DFF074B93F90830022BFAD140F6B83177
:104100000248FFF731FFF4E770090020DC47002088
:10411000F808002000B583B0032300934FF47A73AE
:10412000522207490748FFF701FF074B93F9083070
:10413000032BFAD14FF47A710248FFF715FFF4E729
:1041400070090020E8470020F80800200000000067
:104150001FB553EC102B264823F00041814207D8AD
:104160009FED211B002005B05DF804EB00F00CB9B9
:104170002048814208D910461946FCF72DF841EC39
:10418000100B05B05DF804FB684600F0B9F900F0CB
:10419000030001280CD0022811D0E8B99DED021BC4
:1041A0009DED000B012000F0EFF851EC100BE6E75D
:1041B0009DED021B9DED000B00F01EF8F5E79DED57
:1041C000021B9DED000B012000F0DEF853EC102BDC
:1041D000104603F10041D2E79DED021B9DED000B5F
:1041E00000F00AF8F2E700BF000000000000000045
:1041F000FB21E93FFFFFEF7F2DE9F74F57EC106BF5
:1042000027F00048B8F1795F8DED001B06D23046EB
:104210003946FCF733FC002800F0888032463B46E4
:1042200030463946FCF790F9514B002204460D46C2
:10423000FCF78AF940A3D3E9002382468B46204647
:104240002946FCF781F93EA3D3E90023FBF7C6FF1B
:1042500022462B46FCF778F93BA3D3E90023FBF772
:10426000BBFF22462B46FCF76FF939A3D3E90023A5
:10427000FBF7B4FF22462B46FCF766F936A3D3E9D9
:104280000023FBF7A9FF22462B46FCF75DF934A378
:10429000D3E90023FBF7A2FF22462B46FCF754F993
:1042A00022462B46FCF750F9DDE9002304460D4673
:1042B00030463946FCF748F90B4602462946204667
:1042C000FBF78AFF2B4B984506460F4610D802464F
:1042D0000B4650465946FBF77FFF0B4626490246E0
:1042E0000020FBF779FF41EC100B03B0BDE8F08F25
:1042F000224B214998458CBF214DA8F5001500247B
:1043000022462B460020FBF767FF2246804689465F
:104310002B4650465946FBF75FFF32463B46FBF7BC
:104320005BFF02460B4640464946DAE79FED0E0B1F
:10433000DBE700BFAFF30080D43888BEE9FAA8BD40
:10434000C4B1B4BD9EEE213EAD529C804F7E923EE4
:104350009015CB19A001FA3E7751C1166CC1563F9A
:104360004C5555555555A53F000000000000F03F45
:104370000000E03F3233D33F0000F03F0000E93F50
:104380000000D23F000000002DE9F04F55EC104B2B
:1043900025F0004385B0B3F1795F8DED021B8046B7
:1043A00005D220462946FCF769FB002852D0224658
:1043B0002B4620462946FCF7C7F882468B46024624
:1043C0000B4620462946FCF7BFF842A3D3E9002359
:1043D000CDE9000150465946FCF7B6F83FA3D3E9B2
:1043E0000023FBF7F9FE52465B46FCF7ADF83DA310
:1043F000D3E90023FBF7F2FE52465B46FCF7A4F834
:104400003AA3D3E90023FBF7E7FE52465B46FCF7ED
:104410009BF838A3D3E90023FBF7E0FE06460F46DE
:10442000B8F1000F1BD102460B4650465946FCF727
:104430008BF825A3D3E90023FBF7CEFEDDE90023AB
:10444000FCF782F802460B4620462946FBF7C6FEDB
:1044500004460D4645EC104B05B0BDE8F08FDDE994
:1044600002011B4B0022FCF76FF83246804689465A
:104470003B46DDE90001FCF767F802460B46404683
:104480004946FBF7A9FE52465B46FCF75DF8DDE9BD
:104490000223FBF7A1FE0CA3D3E9002306460F4637
:1044A000DDE90001FCF750F802460B46304639467C
:1044B000FBF794FE02460B4620462946FBF78CFE8E
:1044C000C6E700BFAFF30080495555555555C53F68
:1044D0000000E03F7CD5CF5A3AD9E53DEB9C2B8AD2
:1044E000E6E55A3E7DFEB157E31DC73ED561C119D1
:1044F000A0012A3FA6F810111111813F0000000011
:104500002DE9F04F57EC106BC54B8DB027F00048EC
:1045100098450446049707D80022002380ED000B3D
:10452000C0E90223002528E0BE4B984578D8049BBB
:10453000BD4D002B3046ACA3D3E90023394638DD0E
:10454000FBF74AFEA84506460F461AD0A8A3D3E9B2
:104550000023FBF741FE02460B4680468946304663
:104560003946FBF739FEA2A3D3E90023FBF734FE5B
:10457000C4E90089C4E90201012528460DB0BDE85F
:10458000F08F9DA3D3E90023FBF726FE9CA3D3E97C
:10459000002306460F46FBF71FFE02460B468046E9
:1045A000894630463946FBF717FE95A3D3E9002329
:1045B000DCE7FBF713FEA84506460F4618D08CA390
:1045C000D3E90023FBF70AFE02460B4680468946E4
:1045D00030463946FBF700FE85A3D3E90023FBF7FD
:1045E000FDFD4FF0FF35C4E90089C4E90201C4E7CD
:1045F00081A3D3E90023FBF7F1FD81A3D3E90023D5
:1046000006460F46FBF7EAFD02460B468046894602
:1046100030463946FBF7E0FD79A3D3E90023DEE716
:10462000824B984500F2D18000F066F957EC106B90
:1046300075A3D3E9002330463946FBF785FF7C4B51
:104640000022FBF7CBFDFCF719FA0546FBF712FF3A
:1046500002460B46CDE9022363A3D3E90023FBF70F
:1046600073FF02460B4630463946FBF7B5FD60A3A3
:10467000D3E9002382468B46DDE90201FBF764FFA4
:104680001F2D06460F460CDC6A4B6A1E53F822307B
:10469000434506D032463B4650465946FBF79CFD03
:1046A0000EE03B46324650465946FBF795FD4FEA31
:1046B00028530593C1F30A53C3EB1853102B02DCA4
:1046C000C4E9000139E04CA3D3E90023DDE902018C
:1046D000FBF73AFF06460F4602460B465046594640
:1046E000FBF77AFD02460B468046894650465946FE
:1046F000FBF772FD32463B46FBF76EFD40A3D3E964
:10470000002306460F46DDE90201FBF71DFF324696
:104710003B46FBF761FD02460B4606460F46404608
:104720004946FBF759FD059AC1F30A53D31A312BB9
:1047300020DCC4E90001C246CB46D4E900895046DA
:1047400042464B465946FBF747FD3B463246FBF790
:1047500043FD049B002BC4E90201BFF60EAF09F133
:104760000043636001F10043C4F80080A060E3608F
:104770006D4202E726A3D3E90023DDE90201FBF73E
:10478000E3FE06460F4602460B4640464946FBF707
:1047900023FD02460B4682468B4640464946FBF7C0
:1047A0001BFD32463B46FBF717FD1BA3D3E9002355
:1047B00006460F46DDE90201FBF7C6FE32463B46E0
:1047C000FBF70AFD06460F4664E71B4B984535D9B3
:1047D00032463B4630463946FBF7FEFCC4E902014F
:1047E000C4E900019EE600BF00004054FB21F93FF0
:1047F0003163621A61B4D03D0000601A61B4D03DEB
:104800007370032E8A19A33B83C8C96D305FE43FE0
:104810000000002E8A19A33BC14920259A837B39C9
:10482000FB21E93F7BD90240FB21F93FFB213941C4
:104830000000E03F8C560008FFFFEF7F4FEA28554D
:10484000A5F21645A8EB055130460F46FCF716F9C0
:10485000FBF710FE02460B4630463946CDE90623EB
:10486000FBF7BAFC224B0022FBF76EFE0F46064612
:10487000FCF704F9FBF7FEFD02460B4630463946CD
:10488000CDE90823FBF7A8FC194B0022FBF75CFEDF
:10489000CDE90A010DF130094FF003080026002789
:1048A00079E9020132463B46C24608F1FF38FCF77F
:1048B000B3F80028F4D10F4B0193022300932A464A
:1048C0005346214606A800F01FF8049B002B05461E
:1048D000BFF653AED4E9002101F10043C4E900233F
:1048E000D4E9022101F10043C4E9022340E700BFFB
:1048F000000070410C57000851EC100B024621F0EB
:10490000004343EC102B70472DE9F04F2DED028B47
:10491000ADF5197D12F1140F06930491BE4BA499C5
:10492000089053F821300093069B03F1FF33A8BF92
:10493000D41E0593B2BF0024182394FBF3F46FF048
:10494000170304FB033303EB020B009B059A9FED57
:10495000AE8B03EB0208A59BA71A20AE03EB8709D9
:104960000025454513DD069B20AA02EBC3050DF586
:10497000E07A4FF00008009B984531DC9FEDA27B68
:10498000DDF820908DED027B2F4600261BE0EF42E4
:1049900007D459F82500FBF76DFDE6E80201013563
:1049A000DFE751EC180BF8E7D7E90023F9E802013B
:1049B000FBF7CAFD02460B46DDE90201FBF70EFCE0
:1049C000CDE902010136059B9E42A7F10807EBDD08
:1049D0009DED027B08F10108AAEC027B0835CAE7CD
:1049E000009BDDF800800CAA02EB83030A93A59BD1
:1049F00003EB840309934FEAC8030B9398AB03EBD3
:104A0000C80313ED287B8DED027B0CAC70AB03EB80
:104A1000C805A146C246BAF1000FA5F1080577DC2A
:104A200058469DED020B00F0C7FA57EC106B0022C0
:104A30004FF07F5330463946FBF786FD41EC100BB3
:104A400000F03AFB754B51EC100B0022FBF77CFD9C
:104A500002460B4630463946FBF7BEFB0F4606467C
:104A6000FCF70CF80290FBF705FD02460B463046BA
:104A70003946FBF7B1FBBBF1000F06460F466CDD74
:104A800008F1FF310CAB029D53F82130CBF1180037
:104A900043FA00F2154482409B1A0CAA029542F890
:104AA0002130CBF1170243FA02F9B9F1000F64DDAE
:104AB000029B00220133029315466FF07F4190451F
:104AC00000F3B880BBF1000F07DDBBF1010F00F070
:104AD000BF80BBF1020F00F0C680B9F1020F4CD1CC
:104AE00032463B464E490020FBF776FB06460F4612
:104AF000002D42D058469FED460B00F05DFA30463F
:104B0000394653EC102BFBF767FB06460F4634E0A3
:104B1000444B0022DDE90201FBF716FDFBF7AEFF77
:104B2000FBF7A8FC404B002206460F46FBF70CFDA6
:104B300002460B46DDE90201FBF74EFBFBF79EFF49
:104B4000D5E9002349F8040B39463046FBF746FB0C
:104B50000AF1FF3ACDE902015DE707D108F1FF3321
:104B60000CAA52F823304FEAE3599EE72F4B00225C
:104B7000FBF770FF002843D1814600220023304616
:104B80003946FBF749FF002800F0BF8008F1FF33EA
:104B9000002200998B426EDA002A00F0898008F129
:104BA000FF380CABABF1180B53F82830002BF6D0C4
:104BB00058469FED170B00F0FFF908F10103DA00EA
:104BC000059255EC104B70AADFF858B002EBC30702
:104BD00046464FF0000A002E80F2CF804446002C5B
:104BE000C0F2FD80124B1F4670AB03EBC40306936B
:104BF0004FF0000A4FF0000B0026A8EB0405E2E09E
:104C00004FF0020954E700BF000000000000000060
:104C1000000000000000F03F58580008000020404D
:104C20000000F03F0000703E000070410000E03FD7
:104C30001858000854F8043B45B923B1C3F18073F8
:104C400044F8043C012301321D4638E7CB1AF7E74C
:104C500008F1FF320CAB53F82230C3F316030CA952
:104C600041F8223039E708F1FF320CAB53F822301B
:104C7000C3F31503F3E70CA951F82310013B0A43D2
:104C800087E7013453F8042D002AFAD00B9B03F573
:104C900018730DEB0305069B20AA434408F1010796
:104CA000983D02EBC3064444BC4204DAA046A2E6A7
:104CB0000A9B0124E6E7099B53F82700FBF7DAFB80
:104CC0009FEDB17BE6E802018DED027BDDF82090DF
:104CD000B2464FF00008059B984505DD9DED027B2F
:104CE0000137A5EC027BDFE77AE90223F9E802014C
:104CF000FBF72AFC02460B46DDE90201FBF76EFAE0
:104D000008F10108CDE90201E5E7CBF1000047EC2D
:104D1000106B00F051F955EC104B9D4B00222046D2
:104D20002946FBF797FE00B39A4B002220462946FE
:104D3000FBF70AFCFBF7A2FE0646FBF79BFB944B36
:104D40000022FBF701FC0B46024629462046FBF7F2
:104D500043FAFBF793FE0CAB0BF1180B43F828005A
:104D600008F1010843F8286022E720462946FBF7AE
:104D700085FE0CAB43F828001AE70CAB53F826006D
:104D8000FBF778FB22462B46FBF7DEFB524667E932
:104D900002015B4620462946FBF7D6FB013E04464E
:104DA0000D4618E70699F1E802230691F7E802019B
:104DB000FBF7CAFB02460B4650465946FBF70EFA74
:104DC000013682468B46009B9E4201DCB542E9DA01
:104DD00048AB03EBC505C5E900AB013CFFE6A49B6E
:104DE000022B0BDC002B39DC5DD0029B03F00700AB
:104DF0000DF5197DBDEC028BBDE8F08FA49B032B54
:104E0000F3D1059B03F518730DEB0304A4F5A4740B
:104E10002546C246BAF1000FA5F108056BDC4546F0
:104E2000012DA4F1080400F38780059C48AB1C44C5
:104E300000200021B8F1010F00F39C80DDE94878E3
:104E4000DDE94A56B9F1000F40F0A680049BC3E9A2
:104E50000078C3E90256C3E90401C6E7059D48ABE3
:104E60001D44444600200021002C35DAB9F1000F22
:104E700038D0024601F10043049CC4E900230246F5
:104E80000B46DDE94801FBF7A7F94AAD0124A0452F
:104E90002BDAB9F1000F02D001F100431946049B4F
:104EA000C3E90201A1E7059C48AB1C440020002196
:104EB000B8F1000F09DAB9F1000F02D001F1004397
:104EC0001946049BC3E900018FE774E90223FBF74D
:104ED00085F908F1FF38EBE775E90223FBF77EF966
:104EE000013CC1E702460B46C6E7F5E80223FBF7A3
:104EF00075F90134CBE795ED007B8DED007B95EDE9
:104F0000027BDDE9000153EC172B8DED067BFBF7EF
:104F100065F902460B4606460F46DDE90001FBF740
:104F20005BF9DDE90623FBF759F90AF1FF3AC5E918
:104F30000201C5E900676DE794ED007BD4E902AB9F
:104F400051EC170B52465B468DED007BFBF746F9A3
:104F500002460B4606460F46DDE90001FBF73CF929
:104F600052465B46FBF73AF9013DC4E90201C4E948
:104F7000006755E774E90223FBF730F908F1FF38C1
:104F800058E700BFAFF30080000000000000000001
:104F9000000070410000703E049B049A1F6008F1FD
:104FA00000445C609D6006F10043D36001F1004362
:104FB0001061536119E700BF70B555EC104BC5F394
:104FC0000A5106462B4691B925F0004323433DD0B4
:104FD000354B204629460022FBF7B6FA334B9E425A
:104FE00004460D460FDA28A3D3E900231EE040F261
:104FF000FF7291420BD1224620462946FBF7EEF87C
:1050000004460D4622E00B46C1F30A5136394CF2F4
:10501000503296420DDD002D1DA1D1E9000102DACA
:105020001DA1D1E900011AA3D3E90023FBF78CFAF3
:10503000E6E7721840F2FE718A42ECDC002A08DDD5
:1050400023F0FF4323F4E00343EA025545EC104B01
:1050500070BD12F1350F08DA002D0BA1D1E9000166
:10506000C1DA0FA1D1E90001BDE723F0FF433632D9
:1050700023F4E00343EA025520460D4B2946002263
:10508000D4E700BFAFF3008059F3F8C21F6EA5014B
:105090009C7500883CE4377E9C7500883CE437FEB4
:1050A00059F3F8C21F6EA58100005043B03CFFFFCA
:1050B0000000903C0000000051EC100BC1F30A53BB
:1050C0002DE9F041A3F2FF36132E0C46054680462B
:1050D00034DC002E17DA32A3D3E90023FBF77EF885
:1050E00000220023FBF7C0FC50B1002C55DA24F05D
:1050F00000442C430025AC422B4C08BF4FF0004429
:105100002146284623E0294F374101EA070303439C
:105110001DD023A3D3E90023FBF760F8002200236E
:10512000FBF7A2FC0028EBD0002CBEBF4FF480138D
:105130003341E41824EA07040025E1E7332E0ADDB1
:10514000B6F5806F03D102460B46FBF747F841ECFA
:10515000100BBDE8F081A3F213434FF0FF37DF409F
:105160000742F4D00EA3D3E90023FBF737F800225F
:105170000023FBF779FC0028C2D0002C0ADA142E99
:1051800001D1013406E0C6F134060123B3401D44C9
:105190004545F6D325EA0705B2E700252C46AFE7DB
:1051A0009C7500883CE4377E0000F0BFFFFF0F00D5
:1051B00002440346934200D1704703F8011BF9E70C
:1051C000144B1B68834270B5044622D0436C53B124
:1051D0000025636C5959B1B90435802DF9D1616C42
:1051E000204600F0ABF8A16B11B1204600F0A6F804
:1051F000E16C11B1204600F0A1F8636B4BB1204681
:10520000BDE8704018470E68204600F097F8314618
:10521000E1E770BD10000020014B1868704700BF27
:105220001000002070B50D4D0D4C641BA41000261D
:10523000A64209D10B4D0C4C00F0BCF9641BA41024
:105240000026A64205D170BD55F8043B98470136AB
:10525000EEE755F8043B98470136F2E7705800082E
:105260007058000870580008785800087047704758
:10527000024B13B1024800F005B87047000000006F
:10528000F5540008002301461A46184600F052B9AA
:105290002DE9F84306460820894600F03FF9244FDF
:1052A0008046304600F00AF9BB685D6825F00305CA
:1052B000A5F11104A4EB09044444B4FBF8F4013C47
:1052C00008FB04F4A04505DD304600F0FDF80020A1
:1052D000BDE8F8830021304600F0FCF8BB682B44A1
:1052E0009842F1D16142304600F0F4F8013010D11B
:1052F0000021304600F0EEF8BA68831A0F2BE3DD88
:105300000C490968401A0C4943F0010308605360D6
:10531000DAE7BB68084A2D1B45F001055D6013689C
:1053200030461B1B136000F0CFF80120D0E700BF10
:10533000440100203C01002038490020F8B5044613
:105340000F46002900F0B18000F0B8F857F8042C9F
:10535000564D22F00100A7F1080303EB000CA968E9
:10536000DCF80460614526F0030602F001021BD15F
:1053700006443AB957F8082C9B1A1644D3E902128E
:10538000CA60916046F001025A60AB60484B1B68EE
:10539000B34204D8474B20461968FFF779FF2046EF
:1053A000BDE8F84000F090B8CCF80460002A38D18D
:1053B00057F8081C5B1A0844996805F10807B942B8
:1053C00031D0DF68CF60B9600CEB06014968C907CE
:1053D0000BD4DCF8081030443ABB374EB14224D12C
:1053E000C5E90433C3E90211012240F0010159600B
:1053F0001850002AD3D1B0F5007F1BD2C20801217A
:1054000040098140686801320143696055F8320003
:1054100005EBC2010839C3E9020145F83230C36027
:10542000BDE70022D0E70122CEE7DCF80C60CE60B9
:10543000B160DAE7B0F5206F4FEA502214D282094A
:105440003832511C05EBC20655F831108E4225D179
:105450000120921000FA02F2686802436A60C3E910
:105460000216B360CB609AE7142A01D85B32E8E7F2
:10547000542A02D8020B6E32E3E7B2F5AA7F02D8B3
:10548000C20B7732DDE740F254518A429ABF820C58
:105490007C327E22D5E789688E4204D04A6822F0A9
:1054A00003028242F7D8CE68D9E7F8BD4401002054
:1054B00040010020604900204C0100200148FFF716
:1054C000D5BE00BF304900200148FFF7D0BE00BF65
:1054D0003049002038B5064D0023044608462B60AD
:1054E000FBF790FE431C02D12B6803B1236038BD4B
:1054F0002C49002038B5074D074C641BA4101CB97B
:10550000BDE8384000F05CB8013C55F824309847BD
:10551000F5E700BF785800087C580008082808B54F
:1055200006D0FFF779FE162303604FF0FF3008BD69
:105530008020FCE72DE9F047DFF874A00646DAF892
:10554000000098460F469146FFF790FE164B1C68E8
:105550000CB9164C1C606568DAF800001F2D05DDDB
:10556000FFF785FE4FF0FF30BDE8F0879EB104EBFA
:1055700085010122C1F88890D4F88831AA401343EC
:10558000C4F88831022EC1F8088102BFD4F88C31EA
:105590001343C4F88C316B1C0235636044F82570EA
:1055A000FFF765FE0020DFE7344900206449002052
:1055B00038010020F8B500BFF8BC08BC9E46704713
:0C55C000F8B500BFF8BC08BC9E46704760
:1055D00058560008D10E000800000000000000002E
:1055E000800000000000000000000000505600088D
:1055F00015410008000000000000000080000000CD
:10560000000000000000000048560008DD400008CF
:10561000000000000000000080000000000000000A
:105620000000000040560008A540000800000000EF
:1056300000000000800000000000000000000000EA
:105640004C45445F420000004C45445F4700000069
:105650004C45445F5200000064656661756C74548B
:1056600061736B00000000000102030400000000F1
:1056700000000000010203040607080900061016D6
:105680000006101649444C4500000000FB21F93F7C
:10569000FB2109407CD91240FB2119407A6A1F4046
:1056A0007CD92240BBFD2540FB2129403A462C40B5
:1056B0007A6A2F405C4731407CD932409C6B344041
:1056C000BBFD3540DB8F3740FB2139401BB43A40EE
:1056D0003A463C405AD83D407A6A3F404C7E404072
:1056E0005C4741406C1042407CD942408CA2434010
:1056F0009C6B4440AC344540BBFD4540CBC6464066
:10570000DB8F4740EB584840FB21494083F9A2001A
:10571000444E6E00FC291500D1572700DD34F500FA
:1057200062DBC0003C999500419043006351FE004C
:10573000BBDEAB00B761C5003A6E2400D24D42001B
:105740004906E00009EA2E001C92D100EB1DFE0084
:1057500029B11C00E83EA700F535820044BB2E00AD
:105760009CE98400B4267000417E5F00D691390028
:10577000538339009CF439008B5F840028F9BD0005
:10578000F81F3B00DEFF97000F980500112FEF0078
:105790000A5A8B006D1F6D00CF7E360009CB2700A3
:1057A000464FB7009E663F002DEA5F00BA2775009E
:1057B000E5EBC7003D7BF100F739070092528A0004
:1057C000FB6BEA001FB15F00085D8D0030035600DF
:1057D0007BFC4600F0AB6B0020BCCF0036F49A0097
:1057E000E3A91D005E619100081BE6008599650034
:1057F000A0145F008D40680080D8FF0027734D0023
:1058000006063100CA561500C9A873007BE2600085
:105810006B8CC0000000000000000040FB21F93F3D
:10582000000000002D44743E000000809846F83CC3
:105830000000006051CC783B00000080831BF039F1
:105840000000004020257A38000000802282E336E4
:10585000000000001DF36935020000000300000095
:08586000040000000600000036
:0858680074B3FF7F0100000092
:0858700071520008B5010008A7
:045878009101000892
:10587C000024F4000100000010000000AAAAAAAA4B
:10588C00180000200000000000000000F447002079
:10589C005C480020C448002000000000000000000C
:1058AC0000000000000000000000000000000000EC
:1058BC0000000000000000000000000000000000DC
:1058CC0000000000000000000000000000000000CC
:1058DC0000000000000000000000000000000000BC
:1058EC0000000000000000000000000000000000AC
:1058FC00000000000000000000000000000000009C
:10590C00000000000000000000000000000000008B
:10591C00000000000000000000000000000000007B
:10592C0001000000000000000E33CDAB34126DE618
:10593C00ECDE05000B000000000000000000000081
:10594C00000000000000000000000000000000004B
:10595C00000000000000000000000000000000003B
:10596C00000000000000000000000000000000002B
:10597C00000000000000000000000000000000001B
:10598C00000000000000000000000000000000000B
:10599C0000000000000000000000000000000000FB
:1059AC00000000000000000031490020FFFFFFFF55
:1059BC000000020000000000000000004401002074
:1059CC00440100204C0100204C0100205401002017
:1059DC00540100205C0100205C01002064010020C7
:1059EC00640100206C0100206C0100207401002077
:1059FC00740100207C0100207C0100208401002027
:105A0C00840100208C0100208C01002094010020D6
:105A1C00940100209C0100209C010020A401002086
:105A2C00A4010020AC010020AC010020B401002036
:105A3C00B4010020BC010020BC010020C4010020E6
:105A4C00C4010020CC010020CC010020D401002096
:105A5C00D4010020DC010020DC010020E401002046
:105A6C00E4010020EC010020EC010020F4010020F6
:105A7C00F4010020FC010020FC01002004020020A5
:105A8C00040200200C0200200C0200201402002052
:105A9C00140200201C0200201C0200202402002002
:105AAC00240200202C0200202C02002034020020B2
:105ABC00340200203C0200203C0200204402002062
:105ACC00440200204C0200204C0200205402002012
