:020000040800F2
:10000000000002204D210008512000085320000864
:100010005520000857200008592000080000000063
:10002000000000000000000000000000F15800087F
:100030005B2000080000000091590008F5590008F5
:100040009D2100089D2100089D2100089D21000898
:100050009D2100089D2100089D2100089D21000888
:100060009D2100089D2100089D2100089D21000878
:100070009D2100089D2100089D2100089D21000868
:100080009D2100089D2100089D2100089D21000858
:100090009D2100089D2100089D2100089D21000848
:1000A0009D2100089D2100089D2100089D21000838
:1000B0009D2100089D2100089D2100089D21000828
:1000C0009D2100089D2100089D2100089D21000818
:1000D0009D2100089D2100089D2100089D21000808
:1000E0009D2100089D2100089D2100089D210008F8
:1000F0009D2100085D2000089D2100089D21000829
:100100009D2100089D2100089D2100089D210008D7
:100110009D2100089D2100089D2100089D210008C7
:100120009D2100089D2100089D2100089D210008B7
:100130009D2100089D2100089D2100089D210008A7
:100140009D2100089D2100089D2100086D200008C8
:100150009D2100089D2100089D2100089D21000887
:100160009D2100089D2100089D2100089D21000877
:100170009D2100089D2100089D210008000000002D
:080180009D2100089D210008EB
:1001900010B5054C237833B9044B13B10448AFF3C1
:1001A00000800123237010BDB00700200000000074
:1001B00060B6000808B5034B1BB103490348AFF311
:1001C000008008BD00000000B407002060B60008F1
:1001D00053B94AB9002908BF00281CBF4FF0FF31AE
:1001E0004FF0FF3001F0F6B8ADF1080C6DE904CE28
:1001F00000F006F8DDF804E0DDE9022304B0704702
:100200002DE9F047089D0C46002B4ED194468C45B5
:100210008646B2FA82F262D94AB1C2F12003914015
:1002200020FA03F30CFA02FC194300FA02FE4FEA2B
:100230001C471FFA8CF6B1FBF7F44FEA1E4307FB8D
:10024000141143EA014304FB06F199420AD91CEB5D
:10025000030304F1FF3080F01281994240F20F81D4
:10026000023C6344591A1FFA8EF3B1FBF7F007FB07
:10027000101143EA014300FB06F69E420AD91CEB2B
:10028000030300F1FF3180F0FC809E4240F2F980D0
:10029000634402389B1B40EA044000211DB1D34057
:1002A0000022C5E90032BDE8F0878B4205D90DB1C7
:1002B000C5E9000100210846F5E7B3FA83F10029FA
:1002C00046D1A34202D39042C0F0F080861A64EB7C
:1002D00003030120002DE6D0C5E90063E3E7002A0F
:1002E00040F09080A1EB0C044FEA1C481FFA8CF7F9
:1002F0000121B4FBF8F64FEA1E4308FB164443EA1B
:10030000044307FB06F0984208D91CEB030306F1EF
:10031000FF3402D2984200F2CD8026461C1A1FFA02
:100320008EF3B4FBF8F008FB104443EA044300FBEF
:1003300007F79F4208D91CEB030300F1FF3402D2F8
:100340009F4200F2B0802046DB1B40EA0640A5E752
:10035000C1F120068B4022FA06F71F4320FA06FC63
:1003600004FA01F343EA0C03F44000FA01F8380CF4
:100370004FEA1349B4FBF0FE1FFA87FC00FB1E4452
:1003800049EA04440EFB0CF9A14502FA01F20AD92C
:100390003C190EF1FF3A80F08480A14540F2818043
:1003A000AEF1020E3C44A4EB09041FFA83F9B4FB3E
:1003B000F0F300FB134449EA044403FB0CFCA4459E
:1003C00007D93C1903F1FF3067D2A44565D9023B38
:1003D0003C4443EA0E40A0FB0293A4EB0C049C4275
:1003E000CE469C4651D34ED055B1B8EB0E0364EBCC
:1003F0000C0404FA06F6CB401E43CC40C5E9006469
:10040000002150E7C2F1200320FA03F10CFA02FCAC
:1004100024FA03F394400C434FEA1C4800FA02FE0E
:100420001FFA8CF7B3FBF8F008FB1031230C43EAFA
:10043000014300FB07F1994208D91CEB030300F1CB
:10044000FF362CD299422AD9023863445B1AA4B2EF
:10045000B3FBF8F108FB113344EA034401FB07F353
:10046000A34208D91CEB040401F1FF3613D2A342C6
:1004700011D902396444E41A41EA004139E70446DB
:10048000F0E6084606E7C845AED2B9EB020E63EBCC
:10049000070C0138A8E73146EDE7034699E73046F7
:1004A000D4E7D6467FE7634402384DE70646234645
:1004B00008460FE7023E634430E700BF03685A0076
:1004C0004CBF43F0004323F000431844704700BF83
:1004D0002DE9F84349B34F1E044615463E464FF0FA
:1004E000000909EB060101EBD171491004EBC108C9
:1004F0004046FFF7E3FF8F4203464FEAC1000FD0AB
:100500000830AB42204407D8FFF7D8FF0138A84293
:1005100008D201F10109E4E7894506D04E1EE0E763
:10052000AB42F9D84046BDE8F8834FF0000840469A
:10053000BDE8F883012807D0022807D0044B002823
:100540000CBF1846002070470248704702487047A9
:10055000FD0B0008010C0008050C000830B5214B0C
:1005600083B004468D1E1BB301A92846AFF300805B
:1005700088B301992A46FFF7ABFF014658B3FFF74E
:100580009DFF4B68A064012B28D0002B01F10400D3
:100590001FDBFFF793FF002323650368E064002B54
:1005A0000DDBFFF78BFF03460020236103B030BD56
:1005B0000D4B0E49C91AC91018460191DAE7C3F369
:1005C0000360FFF7B7FF034628B10020236103B0A3
:1005D00030BD0123E0E700230920E6E700230520E2
:1005E000E3E700BF000000000CBB0008F4BB0008FC
:1005F0000368DA0710B5044606D49B0700F14800EB
:1006000009D500F069FC2368590709D51A070ED5EA
:10061000DB0613D510BD00F057FC23685907F5D44D
:1006200004F1D00000F060FC23681A07F0D404F550
:10063000A87000F061FC2368DB06EBD404F5E870D9
:10064000BDE8104000F09CBC0920704703460068DC
:1006500000B11844704700BF704700BF70B5044632
:100660000E46316C2046FFF779FF054688B9326C9B
:100670006261236932462146012098470828F0D05C
:10068000072806D12846316CFFF7E6FF301D00F041
:100690000FFC06F091FA00BF2DE9F0470D1DD0F8D0
:1006A0000C80D0F81890074614460FCDADF5727D3A
:1006B0000DF10C0CACE80F000FCDACE80F000FCD26
:1006C000ACE80F0095E80F0002AE4FF0000E8CE88A
:1006D0000F00C6F800E020E0336C7B614FF4F0724D
:1006E00031467AA806F082FC3B697AAA3946504620
:1006F0009847889B73642146CDE9006905463B46CF
:100700003A460120C047044618BB4FF4F0727AA95C
:10071000304606F06BFC082D19D1316C3846FFF7D6
:100720001DFF09345FFA84FA05460028D4D0B36B64
:1007300073643A46CDE900693B464AF01001012056
:10074000C04730B928460DF5727DBDE8F087072D0A
:1007500005D0092528460DF5727DBDE8F0872046B5
:10076000316CFFF779FF03A800F0A2FB406C7047E3
:10077000F0B5CB6B0B6401F1040C0E460546BCE8EA
:100780000F00F9B001AC0FC4BCE80F000FC4BCE807
:100790000F000FC49CE80F004FF0FF3784E80F00F4
:1007A000009706E02B696A462946984708280446C0
:1007B00008D110992846FFF7D1FE0028F2D0092071
:1007C00079B0F0BD6846FFF713FF062CF7D131462C
:1007D0002846FFF743FF00BFC160D96B82611964EF
:1007E0000022194658E700BF70B5C66843690B641C
:1007F000AEB903690A4604460D46014602209847F1
:10080000072805D008280FD129462046FFF726FFE4
:100810003046296CFFF720FF281D00F049FB01221C
:10082000FFF73AFF06F0C8F906F0C6F9C2681AB138
:10083000CA6B0A6400222FE79AE700BF704700BF27
:10084000836801460BB1012018477047012910D079
:1008500009D883B90F2A0ED800EB820218465368D4
:10086000009A13607047033901298CBF02200120D0
:100870007047084670470220704700BF00B585B03A
:100880000A46002303A900911946FFF7DFFF0398EA
:1008900005B05DF804FB00BF012910D009D883B969
:1008A0000F2A0ED8009900EB8202096851601846A1
:1008B0007047033901298CBF022001207047084688
:1008C00070470220704700BF10B584B0002303AC0E
:1008D000039200940A461946FFF7DEFF04B010BDEC
:1008E00070B5D36B136402F1040C05460C46BCE8EA
:1008F0000F00ADF50E7D0DF15C0EAEE80F00BCE80B
:100900000F00AEE80F00BCE80F00AEE80F009CE857
:100910000F004FF0FF368EE80F00169610E0FFF73D
:10092000D3FF214616A8A847034616AA6946082001
:1009300083B9049B9847052806460CD0092809D09E
:1009400026996846FFF70AFE03466A460C2116A858
:10095000002BE4D0092616A8FFF74AFE30460DF515
:100960000E7D70BD2DE9F04F9346CA6C89B00D46DF
:1009700052F8041B069200F0030C002B79D00C0CEB
:100980008DF81D400904E4B2059102EB84020221B6
:100990002F6D8DF81C10BCF1020F08BFAA6B17F069
:1009A00001070CD005A9584600F084FB18B90820AF
:1009B00009B0BDE8F08F092009B0BDE8F08F1668D6
:1009C000002EEFD000F008010191B2460297644674
:1009D0009946B9F1020F48D0B2F800A0568802F14A
:1009E0000408AA6C26F001030F2158469F18FFF750
:1009F00045FF874237D82AF001023A44824294BF29
:100A000000220122730003F002030AF0010A43EA04
:100A10000A03012B47D0022B31D0002BCBD114B1CC
:100A2000002A40F0C98008F10402D2F800A0BAF10F
:100A3000000FCED105A95846029F00F03BFB0028CD
:100A4000B9D1002FB3D00F215846FFF717FF0E2161
:100A500002465846FFF738FF674A0F215846FFF70E
:100A600033FF0720A8E70022CCE7566802F1080808
:100A7000B7E7090205918DF81D30032188E7D8F802
:100A8000006026F00043002C44D122B1019A002AD4
:100A90005AD0002B58D0002E01DA08F10408013397
:100AA00008EB8302C1E7ECB9CAB1D8F80430D8F832
:100AB0000020991C4FEAD2723FF47DAF05F1580136
:100AC0000133049100F08B8008F10400FFF7BEFDB4
:100AD00004AB01462846AFF30080002857D108F147
:100AE0000802A2E70D215846FFF7C8FE2B6A834291
:100AF000F5D1AB6A9845F2D14046FFF7DFFC0F21F4
:100B000002465846FFF7E0FE2A4600215846FFF706
:100B1000DBFEA6E70D2158460393FFF7AFFE2A6AD6
:100B2000039B8242B7D1AA6A9045B4D10027042220
:100B3000C5E90B724244AB626A63D8F80020BA423E
:100B400055DB01220292AAE7039408F1040A002669
:100B500005F158071C460DE050460497FFF776FD57
:100B60000022014604AB284601360AF1040AAFF31D
:100B70000080E0B9A642EFD10D215846FFF77EFE76
:100B8000049BC5F82880C5E90803062014E704463D
:100B90000D215846FFF772FE049E2862022C04BF06
:100BA000EE6205F12C06C5E90968062004E7234634
:100BB000D8F80060039C6EE74046FFF77FFC08F121
:100BC00004020446AA632846AFF3008000283FF4DD
:100BD000F2AE22460F215846FFF776FE41E70C465B
:100BE00058460D21FFF74AFE26462862DBE7581CCF
:100BF00008EB800081E700BF000000000023B1E6A1
:100C00000123AFE60223ADE62DE9F0430646C3B06B
:100C100015461C46042900F2D180DFE801F0AC51F2
:100C2000CF2A0300002C40F0C980102A00F2C680B1
:100C30000368DC0600F1E78020AF384600F0AAF92F
:100C4000B46B394600234FF0010C0CFA03F22A4230
:100C5000204603F1010303D050F8042B0A60044638
:100C6000042B01F10401F0D1B463384600F088F997
:100C700099E0032C40F0A28094B204EB1243102BB5
:100C80004FEA124500F29A8003681F0700F1C38003
:100C900020AF384600F052F9B26B07EBC50154B1F2
:100CA0000B46D01A01EBC401E4001D5843F8045B65
:100CB0008B42FAD12244B263384600F01DF972E04B
:100CC000012C4FEA124895B271D0052C76D108EB71
:100CD0000509B9F1200F71D8B8F10F0F72D8B9F129
:100CE000100F036800F29F80D90708D523F0010395
:100CF000304643F0020340F8483B00F0F1F820AFE3
:100D0000384600F0EDF8B36B002D00F0B9806D00AF
:100D10006A1E07EBC80100250132043903EB820289
:100D200053F8040B41F8040F9342F9D1002D00F061
:100D3000A1804146102938BF10216B0010396F4641
:100D4000013B07EBC1010133043902EB830352F885
:100D5000040B41F8040F9A42F9D1012C00F088806D
:100D6000B8F10F0FB26302D820A800F0B5F83846EA
:100D700000F0BAF817E00CBB806B23461FFA82FC28
:100D80000124371D04FA03F111EA0C0F024604D0C6
:100D900052F8041B47F8231010460133102BF1D1F1
:100DA000AC0400D4B063002043B0BDE8F08308EB8E
:100DB0000503102B02D8B8F1100F14D1022043B054
:100DC000BDE8F083002DEED003685A075CD46F466F
:100DD000384600F08DF8B26B6B00A8F11001013BB2
:100DE00007EBC101AFE70368DA0759D420AF3846F3
:100DF00000F06EF8B36B002D89D10433B36338462D
:100E000000F062F8CFE723F01003036000F5E8700C
:100E100000F0C0F810E723F00803036000F5A870A5
:100E200000F08CF834E7D90708D523F0010343F02C
:100E3000020340F8483B00F053F83368580706D5E2
:100E4000304623F0040340F8D03B00F051F820AFC7
:100E5000384600F045F8684600F04AF8C8F110023C
:100E60005200B36BA9F11005013A07EBC80153E733
:100E700020AFC2E7012CC0D0B8F10F0FB36392D8F6
:100E8000384600F029F88EE723F0040340F8D03B01
:100E90006F4600F02DF8384600F02AF8B26B9BE759
:100EA000304623F0030340F8483B00F011F89DE77B
:100EB00000F1340191E838009C46A6464CF8045DE8
:100EC00090E8FF0FE54600BD90EC210B704700BF96
:100ED00080EC210B704700BF90EC200B704700BFE7
:100EE00080EC200B704700BFD0EC200B704700BF98
:100EF000C0EC200B704700BFF0EC0201F0EC0211D7
:100F0000F0EC0221F0EC0231F0EC0241F0EC025185
:100F1000F0EC0261F0EC0271F0EC0281F0EC029175
:100F2000F0EC02A1F0EC02B1F0EC02C1F0EC02D165
:100F3000F0EC02E1F0EC02F1704700BFE0EC0201DE
:100F4000E0EC0211E0EC0221E0EC0231E0EC0241C5
:100F5000E0EC0251E0EC0261E0EC0271E0EC0281B5
:100F6000E0EC0291E0EC02A1E0EC02B1E0EC02C1A5
:100F7000E0EC02D1E0EC02E1E0EC02F1704700BFEE
:100F8000B0FC0181B0FC0191B0FC01A1B0FC01B149
:100F9000704700BFA0FC0181A0FC0191A0FC01A151
:100FA000A0FC01B1704700BFEC4600B52DE9005030
:100FB0002DE9FF1F4FF000032DE90C0001A9FFF7F9
:100FC000D7FBDDF840E012B0704700BFEC4600B53B
:100FD0002DE900502DE9FF1F4FF000032DE90C0013
:100FE00001A9FFF701FCDDF840E012B0704700BF37
:100FF000EC4600B52DE900502DE9FF1F4FF000032E
:101000002DE90C0001A9FFF711FCDDF840E012B05A
:10101000704700BFEC4600B52DE900502DE9FF1FD9
:101020004FF000032DE90C0001ABFFF7D5FBDDF815
:1010300040E012B0704700BFEC4600B52DE900500B
:101040002DE9FF1F4FF000032DE90C0001AAFFF767
:1010500047FCDDF840E012B0704700BF027A03465B
:101060007AB9427AA2B14168013A10B44272086872
:1010700003220C1D1A7202025C60000E10BC1A6082
:1010800070470068013A1A7202021A60000E704737
:10109000B020704700B585B0002303AA009219461E
:1010A0000C22FFF7D3FB039805B05DF804FB00BFEB
:1010B000F0E700BF2DE9F043064685B00D464FF03E
:1010C00000082846FFF7CAFFB028044600F0DA807F
:1010D000070646D500F0F003802B5ED0B02B73D00E
:1010E0001BD8902B00F09B80A02B12D1C34303F0A0
:1010F00007034FF47F621A41010702F47F6201D5B2
:1011000042F48042002319463046FFF77DFD002857
:10111000D7D0092005B0BDE8F083C02B6DD1C6281B
:1011200000F09380C72800F0B28000F0F803C02BD5
:1011300000F0D280C82800F0DD80C928E9D1284617
:10114000FFF78CFF020300F00F0002F47022013061
:101150000243012105233046FFF756FD0028B0D099
:10116000D7E78300DBB21F1D0DF10C0900231946E0
:10117000CDF800900D223046FFF768FB039BCDF8B9
:10118000009060064CBFDF1BFF1800230D2219469C
:1011900030460397FFF780FB93E72846FFF75EFF93
:1011A00024022043B0F5004FB3D004010023A2B2C3
:1011B00019463046FFF728FD0028AAD114F4004F45
:1011C00018BF4FF001087CE7B12851D0B22800F0D9
:1011D000AD80B3286DD000F0FC03B42B99D000F0A3
:1011E00007020132012342F4002219463046FFF77C
:1011F0000BFD00283FF465AF8BE700F0F803D02B20
:1012000087D100F007020132052342F400220121B8
:101210003046FFF7F9FC00283FF453AF79E700F0C0
:101220000D030D2B3FF475AF03AF002300F00F0249
:10123000194600973046FFF709FB002300970D225F
:1012400019463046FFF728FB3BE72846FFF706FF25
:10125000020300F00F00013002F470220323024366
:1012600019463046FFF7D0FC00283FF42AAF50E77C
:101270002846FFF7F3FE431EDBB20E2B02467FF635
:1012800041AF46E7B8F1000F40D0002042E72846C2
:10129000FFF7E4FE431EDBB20E2B02463FF639AFEA
:1012A000002304213046FFF7AFFC00283FF409AFCC
:1012B0002FE72846FFF7D2FE020300F00F000130AF
:1012C00002F470220123024319463046FFF79CFCCA
:1012D00000283FF4F6AE1CE700F00F0201320323B2
:1012E00042F4202219463046FFF78EFC00283FF4D6
:1012F000E8AE0EE72846FFF7B1FE00F0F00200F07E
:101300000F031032013343EA023222E703AC4346B3
:1013100041460E2200943046FFF798FA0094434667
:101320000F2241463046FFF7B7FAAEE700230DF132
:101330000C090D221946CDF800903046FFF786FAC9
:101340002846FFF78BFE0206039C4FF002070BD5E1
:1013500000F07F00B840044428460394FFF77EFE67
:10136000030607F10707F3D400FA07F204F5017446
:10137000224400230392CDF800900D2219463046F6
:10138000FFF78AFA9DE600BF10B5C26C536884B0BF
:101390004FF0030C08321C0208461B0E01A90194F1
:1013A00002928DF80CC08DF80D30FFF783FE04B06B
:1013B00010BD00BF08B5FFF77BFE806C08BD00BF05
:1013C00008B5FFF775FEC06CC379023300EB8300EC
:1013D00008BD00BF704700BF034613F8012B002A69
:1013E000FBD1181A0138704700000000000000000F
:1013F00001F0FF01102A2BDB10F0070F08D010F8C6
:10140000013B013A8B422DD010F0070F42B3F6D1C9
:10141000F0B441EA012141EA014122F007047FF0E2
:1014200000070023F0E80256083C85EA010586EA39
:10143000010685FA47F5A3FA87F586FA47F6A5FA75
:1014400087F68EB9EED1F0BC01F0FF0102F0070281
:1014500032B110F8013B013A83EA010313B1F8D12C
:101460000020704701387047002D06BF354603380D
:10147000073815F0010F07D1013015F4807F02BF46
:10148000013015F4C03F0130F0BC0138704700BF97
:1014900081F0004102E000BF83F0004330B54FEA25
:1014A00041044FEA430594EA050F08BF90EA020F92
:1014B0001FBF54EA000C55EA020C7FEA645C7FEA25
:1014C000655C00F0E2804FEA5454D4EB5555B8BF48
:1014D0006D420CDD2C4480EA020281EA030382EAB9
:1014E000000083EA010180EA020281EA0303362D4B
:1014F00088BF30BD11F0004F4FEA01314FF4801C1E
:101500004CEA113102D0404261EB410113F0004F2F
:101510004FEA03334CEA133302D0524263EB4303E6
:1015200094EA050F00F0A780A4F10104D5F1200E84
:101530000DDB02FA0EFC22FA05F2801841F10001DF
:1015400003FA0EF2801843FA05F359410EE0A5F1B3
:1015500020050EF1200E012A03FA0EFC28BF4CF0E4
:10156000020C43FA05F3C01851EBE37101F000459A
:1015700007D54FF0000EDCF1000C7EEB00006EEBA7
:101580000101B1F5801F1BD3B1F5001F0CD3490831
:101590005FEA30004FEA3C0C04F101044FEA445288
:1015A00012F5800F80F09A80BCF1004F08BF5FEA0F
:1015B000500C50F1000041EB045141EA050130BDEF
:1015C0005FEA4C0C404141EB0101013C28BFB1F501
:1015D000801FE9D291F0000F04BF01460020B1FA4C
:1015E00081F308BF2033A3F10B03B3F120020CDA1F
:1015F0000C3208DD02F1140CC2F10C0201FA0CF0FD
:1016000021FA02F10CE002F11402D8BFC2F1200C61
:1016100001FA02F120FA0CFCDCBF41EA0C01904017
:10162000E41AA2BF01EB0451294330BD6FEA040460
:101630001F3C1CDA0C340EDC04F11404C4F120024B
:1016400020FA04F001FA02F340EA030021FA04F35D
:1016500045EA030130BDC4F10C04C4F1200220FAB4
:1016600002F001FA04F340EA0300294630BD21FAF2
:1016700004F0294630BD94F0000F83F4801306BFB8
:1016800081F480110134013D4EE77FEA645C18BFAC
:101690007FEA655C29D094EA050F08BF90EA020F43
:1016A00005D054EA000C04BF1946104630BD91EA3B
:1016B000030F1EBF0021002030BD5FEA545C05D13E
:1016C0004000494128BF41F0004130BD14F580047D
:1016D0003CBF01F5801130BD01F0004545F0FE41F1
:1016E00041F470014FF0000030BD7FEA645C1ABF26
:1016F000194610467FEA655C1CBF0B46024650EA5D
:10170000013406BF52EA033591EA030F41F4002188
:1017100030BD00BF90F0000F04BF0021704730B50E
:101720004FF4806404F132044FF000054FF00001E3
:1017300050E700BF90F0000F04BF0021704730B5A4
:101740004FF4806404F1320410F0004548BF404279
:101750004FF000013EE700BF42004FEAE2014FEACE
:1017600031014FEA02701FBF12F07F4393F07F4FA9
:1017700081F06051704732F07F4208BF704793F0AC
:101780007F4F04BF41F40021704730B54FF46074BF
:1017900001F0004521F000411CE700BF50EA0102C2
:1017A00008BF704730B54FF000050AE050EA01026B
:1017B00008BF704730B511F0004502D5404261EBDB
:1017C00041014FF4806404F132045FEA915C3FF41C
:1017D000D8AE4FF003025FEADC0C18BF03325FEAB9
:1017E000DC0C18BF033202EBDC02C2F1200300FA6A
:1017F00003FC20FA02F001FA03FE40EA0E0021FA8F
:1018000002F11444BDE600BF70B54FF0FF0C4CF47C
:10181000E06C1CEA11541DBF1CEA135594EA0C0F2E
:1018200095EA0C0F00F0DEF82C4481EA030621EA69
:101830004C5123EA4C5350EA013518BF52EA0335A4
:1018400041F4801143F4801338D0A0FB02CE4FF056
:101850000005E1FB02E506F00042E0FB03E54FF086
:101860000006E1FB03569CF0000F18BF4EF0010E7E
:10187000A4F1FF04B6F5007F64F5407404D25FEA7A
:101880004E0E6D4146EB060642EAC62141EA55512D
:101890004FEAC52040EA5E504FEACE2EB4F1FD0C6F
:1018A00088BFBCF5E06F1ED8BEF1004F08BF5FEAED
:1018B000500E50F1000041EB045170BD06F000469F
:1018C00046EA010140EA020081EA0301B4EB5C044C
:1018D000C2BFD4EB0C0541EA045170BD41F4801144
:1018E0004FF0000E013C00F3AB8014F1360FDEBF69
:1018F000002001F0004170BDC4F10004203C35DA45
:101900000C341BDC04F11404C4F1200500FA05F3C7
:1019100020FA04F001FA05F240EA020001F0004268
:1019200021F0004110EBD37021FA04F642EB0601DE
:101930005EEA430E08BF20EAD37070BDC4F10C0408
:10194000C4F1200500FA04F320FA05F001FA04F2CC
:1019500040EA020001F0004110EBD37041F10001B8
:101960005EEA430E08BF20EAD37070BDC4F12005C3
:1019700000FA05F24EEA020E20FA04F301FA05F22B
:1019800043EA020321FA04F001F0004121FA04F2D3
:1019900020EA020000EBD3705EEA430E08BF20EAA3
:1019A000D37070BD94F0000F0FD101F000464000DD
:1019B00041EB010111F4801F08BF013CF7D041EA5F
:1019C000060195F0000F18BF704703F00046520063
:1019D00043EB030313F4801F08BF013DF7D043EA34
:1019E0000603704794EA0C0F0CEA135518BF95EAEA
:1019F0000C0F0CD050EA410618BF52EA4306D1D171
:101A000081EA030101F000414FF0000070BD50EA8F
:101A1000410606BF1046194652EA430619D094EA19
:101A20000C0F02D150EA013613D195EA0C0F05D103
:101A300052EA03361CBF104619460AD181EA030157
:101A400001F0004141F0FE4141F470014FF000000F
:101A500070BD41F0FE4141F4780170BD70B54FF0AA
:101A6000FF0C4CF4E06C1CEA11541DBF1CEA13552A
:101A700094EA0C0F95EA0C0F00F0A7F8A4EB05040C
:101A800081EA030E52EA03354FEA013100F0888003
:101A90004FEA03334FF0805545EA131343EA1263CC
:101AA0004FEA022245EA111545EA10654FEA002681
:101AB0000EF000419D4208BF964244F1FD0404F53A
:101AC000407402D25B084FEA3202B61A65EB030596
:101AD0005B084FEA32024FF480104FF4002CB6EB53
:101AE000020E75EB030E22BFB61A754640EA0C00D3
:101AF0005B084FEA3202B6EB020E75EB030E22BF13
:101B0000B61A754640EA5C005B084FEA3202B6EB53
:101B1000020E75EB030E22BFB61A754640EA9C0012
:101B20005B084FEA3202B6EB020E75EB030E22BFE2
:101B3000B61A754640EADC0055EA060E18D04FEAA0
:101B4000051545EA16754FEA06164FEAC30343EA40
:101B500052734FEAC2025FEA1C1CC0D111F4801F0D
:101B60000BD141EA00014FF000004FF0004CB6E706
:101B700011F4801F04BF01430020B4F1FD0C88BFA5
:101B8000BCF5E06F3FF6AFAEB5EB030C04BFB6EBB0
:101B9000020C5FEA500C50F1000041EB045170BDA3
:101BA0000EF0004E4EEA113114EB5C04C2BFD4EBD0
:101BB0000C0541EA045170BD41F480114FF0000E54
:101BC000013C90E645EA060E8DE60CEA135594EAD0
:101BD0000C0F08BF95EA0C0F3FF43BAF94EA0C0FD3
:101BE0000AD150EA01347FF434AF95EA0C0F7FF448
:101BF00025AF104619462CE795EA0C0F06D152EA9C
:101C000003353FF4FDAE1046194622E750EA41067F
:101C100018BF52EA43067FF4C5AE50EA41047FF490
:101C20000DAF52EA43057FF4EBAE12E74FF0FF3CF5
:101C300006E000BF4FF0010C02E000BF4FF0010CC6
:101C40004DF804CD4FEA410C7FEA6C5C4FEA430C3F
:101C500018BF7FEA6C5C1BD001B050EA410C0CBF8E
:101C600052EA430C91EA030F02BF90EA020F0020F0
:101C7000704710F1000F91EA030F58BF994208BF57
:101C800090422CBFD8176FEAE37040F00100704714
:101C90004FEA410C7FEA6C5C02D150EA013C07D16B
:101CA0004FEA430C7FEA6C5CD6D152EA033CD3D0B6
:101CB0005DF8040B704700BF8446104662468C46B0
:101CC0001946634600E000BF01B5FFF7B7FF0028E3
:101CD00048BF10F1000F01BD4DF808EDFFF7F4FF0C
:101CE0000CBF012000205DF808FB00BF4DF808ED97
:101CF000FFF7EAFF34BF012000205DF808FB00BFBA
:101D00004DF808EDFFF7E0FF94BF012000205DF8DB
:101D100008FB00BF4DF808EDFFF7CEFF94BF012090
:101D200000205DF808FB00BF4DF808EDFFF7C4FF89
:101D300034BF012000205DF808FB00BF4FEA410CD2
:101D40007FEA6C5C02D150EA013C0AD14FEA430CB5
:101D50007FEA6C5C02D152EA033C02D14FF00000F2
:101D600070474FF0010070474FEA410212F5001230
:101D700015D211D56FF47873B3EB625212D94FEAD2
:101D8000C12343F0004343EA505311F0004F23FABC
:101D900002F018BF404270474FF00000704750EA11
:101DA000013005D111F0004008BF6FF000407047CE
:101DB0004FF00000704700BF08B504F0F1FB0120B0
:101DC00003F0F0FCFBE70000034B0360034B0B60E8
:101DD00080231360704700BFD0090020CC0700208B
:101DE00010B58EB0124C0DF11C0CA646BEE80F00CB
:101DF000ACE80F009EE807008CE80700002107A868
:101E000003F09DFC0B4B1860EE4604F11C0CBCE883
:101E10000F00AEE80F009CE807008EE807000021E5
:101E2000684603F08CFC044B18600EB010BD00BF78
:101E300078B600084C0B0020480B002084B000222C
:101E40000192104B196B41F001011963196B01F0FC
:101E50000101019101990292196B41F0040119638A
:101E6000196B01F004010291029903921A6B42F07E
:101E700080021A631B6B03F080030393039B04B07F
:101E8000704700BF0038024008B50268034B9A4211
:101E900000D008BD00F09EF9FBE700BF0020004025
:101EA00072B6FEE700B595B03022002108A804F014
:101EB000B0FF0023039304930593069307930193C4
:101EC000204A116C41F080511164126C02F0805272
:101ED0000192019A02931C4B1A6842F480421A60E4
:101EE0001B6803F480430293029B012308934FF481
:101EF0008033099302230E934FF480020F9206223F
:101F00001092A822119212930723139308A801F0AC
:101F10001FF998B90F230393022304930023059319
:101F20004FF4A05306934FF480530793052103A861
:101F300001F05EFB20B915B05DF804FBFFF7B0FFC0
:101F4000FFF7AEFF003802400070004008B500F017
:101F500027F9FFF7A7FFFFF771FFFFF741FF03F036
:101F6000E9FB04F0ABFDFCE700B583B00022009272
:101F70000D4B596C41F480415964596C01F4804116
:101F8000009100990192196C41F0805119641B6C09
:101F900003F080530193019B0F216FF0010000F0CB
:101FA00093F903B05DF804FB0038024030B589B006
:101FB000044600230193214B1A6C42F480721A6488
:101FC0001B6C03F480730193019B02A903A801F029
:101FD000D5FB069BCBB901F0C1FB0346184AA2FB17
:101FE00003239B0C013B1748174A026040F2E7327B
:101FF000C2604360002303618360836101F042FD9E
:10200000054630B1284609B030BD01F0A7FB4300BA
:10201000E4E70C4801F0D2FB05460028F2D12D2060
:1020200000F062F90F2C01D90125EBE700222146CF
:102030002D2000F049F9054B1C60E3E70038024011
:1020400083DE1B43500B00200020004008000020CE
:10205000FEE7FEE7FEE7FEE7FEE7704708B5024849
:1020600001F0F4FB08BD00BF500B002008B502488A
:1020700000F065FD08BD00BFF45F0020012070473F
:1020800008B504F085FF162303604FF0FF3008BD4C
:1020900008B54FF0FF31FFF7F3FFFEE770B50C46D0
:1020A0001646002506E0AFF30080214601F8010B3B
:1020B00001350C46B542F6DB304670BD70B50C46B6
:1020C0001646002504E014F8010BAFF3008001353B
:1020D000B542F8DB304670BD4FF0FF3070474FF42B
:1020E00000534B600020704701207047002070476C
:1020F00010B503460C4A0D490D48006840B10C4824
:1021000000680344521A934206D8094A136010BD6E
:102110000748084C0460F2E704F03AFF0C23036020
:102120004FF0FF30F3E700BF000002200020000066
:10213000980B002068680020034AD2F8883043F4E6
:102140007003C2F88830704700ED00E0DFF834D04B
:10215000FFF7F2FF0C480D490D4A002302E0D45866
:10216000C4500433C4188C42F9D30A4A0A4C0023E1
:1021700001E013600432A242FBD304F00FFFFFF72B
:10218000E5FE70470000022000000020B00700209C
:1021900000BC0008B007002068680020FEE70000CF
:1021A00008B50B4B1A6842F400721A601A6842F4C0
:1021B00080621A601A6842F480721A60032000F08C
:1021C00071F80F20FFF7F2FEFFF7CEFE002008BDEA
:1021D000003C0240034A1168034B1B780B44136018
:1021E000704700BF9C0B002004000020014B1868C2
:1021F000704700BF9C0B002038B50446FFF7F6FF80
:102200000546B4F1FF3F02D0044B1B781C44FFF796
:10221000EDFF401BA042FAD338BD00BF04000020F0
:10222000002807DB00F01F02400901239340024A07
:1022300042F82030704700BF00E100E0002808DBD2
:102240000901C9B200F1604000F5614080F8001357
:10225000704700F00F000901C9B2014B19547047D3
:1022600014ED00E000B500F00700C0F1070CBCF170
:10227000040F28BF4FF0040C031D062B0FD9C31EFB
:102280004FF0FF3E0EFA0CF021EA000199400EFAE1
:1022900003FE22EA0E0241EA02005DF804FB00237D
:1022A000EEE70000074AD36823F4E0631B041B0C2D
:1022B000000200F4E060034343F0BF6343F40033E3
:1022C000D360704700ED00E010B50446054BD868B8
:1022D000C0F30220FFF7C6FF01462046FFF7AEFF1E
:1022E00010BD00BF00ED00E008B5FFF799FF08BD85
:1022F00000230F2B00F2E98070B582B065E085689D
:102300004FEA430E032404FA0EF425EA0405CC68D0
:1023100004FA0EF42C438460446824EA02044A68F8
:10232000C2F300129A40224342605CE0DC080834A9
:1023300050F8242003F00705AD004FF00F0E0EFA01
:1023400005FE22EA0E0E0A69AA4042EA0E0240F891
:1023500024205CE0072200E0002202FA0EF22A4369
:1023600002345A4D45F82420594A94686FEA0C0209
:1023700024EA0C054E6816F4801F01D04CEA0405CF
:10238000534CA560E46802EA04054E6816F4001F89
:1023900001D04CEA04054E4CE560646802EA04058D
:1023A0004E6816F4003F01D04CEA0405484C6560C5
:1023B000246822404D6815F4803F01D04CEA0402A5
:1023C000434C226001330F2B7DD801229A400C68C8
:1023D00004EA020C32EA0404F4D14C6804F0030469
:1023E000013C012C8BD94A6802F00302032A09D070
:1023F000C4685D000322AA4024EA02048A68AA4055
:102400002243C2604A6802F00302022A8ED00468A6
:102410004FEA430E032202FA0EF224EA02044A684B
:1024200002F0030202FA0EF2224302604A6812F43A
:10243000403FC7D000220192264A546C44F48044A5
:102440005464526C02F480420192019A9C08A51CCB
:102450001E4A52F8255003F0030E4FEA8E0E0F224B
:1024600002FA0EF225EA02051B4A90423FF474AFCD
:1024700002F5806290421AD002F58062904218D034
:1024800002F58062904216D002F58062904214D02C
:1024900002F58062904212D002F58062904210D024
:1024A00002F5806290423FF455AF082255E70122C1
:1024B00053E7022251E703224FE704224DE70522AA
:1024C0004BE7062249E702B070BD70470038014073
:1024D000003C014000380240000002402DE9F0437A
:1024E00083B0D0F8008001EBC10300EB83039A6A4C
:1024F0005B6A9A4254D807460C469B1A01EBC1020C
:1025000000EB8202D2699A4200D31A4602F1030913
:102510004FEA990915E006F103094FEA9909BB79D9
:1025200004EBC40507EB8505296A0093B3B2E2B258
:10253000404601F008FE2B6A33442B62AB6A3344F9
:10254000AB6208EB441303F510639B699BB24B45E8
:1025500012D304EBC40307EB83039A6A5B6A9A42C3
:102560000AD24BB19B1A04EBC40207EB8202D66974
:102570009E42D0D31E46CEE704EBC40307EB83078D
:102580007A6ABB6A9A420FD804F00F040122A24073
:10259000D8F8343823EA0203C8F83438002000E0C1
:1025A000012003B0BDE8F0830020FAE730B583B026
:1025B00000287AD00446056890F89534C3B1032307
:1025C00084F89534B5F1A04F17D0206801F06EFB68
:1025D000237C8DF80030231D0ECB206801F0A5FA76
:1025E00070B1022384F895340125284603B030BD2C
:1025F00080F8943404F0E2F8E1E70023A371E4E703
:102600000021206801F0BBFF024608B9034617E02D
:10261000022384F895340125E7E703EBC30104EBBB
:102620008101012048750B75CB8500200876C861B3
:10263000086203EBC30104EB810148620133DBB2A2
:1026400020799842E9D816E002EBC20304EB830339
:10265000002183F8551283F8542283F85812C3F8E6
:102660005C12C3F8601202EBC20304EB8303C3F8ED
:1026700064120132D2B29042E6D8237C8DF8003049
:10268000231D0ECB206801F067FB054620B1022315
:1026900084F895340125A8E700236374012384F8A6
:1026A0009534206801F02AFF9FE701259DE7036824
:1026B00090F89424012A1AD010B50446012280F81B
:1026C0009424DA6812F0400F02D0427B012A09D02C
:1026D000206801F0E5FA206801F002FF002084F88C
:1026E000940410BD9A6B42F480329A63F0E70220A2
:1026F0007047000070B504460D460068066C00EB9C
:10270000411303F530639A68A179012911D0384942
:102710008E4256D03DB905EBC50304EB8303D3F8D5
:102720006432002B5ED0E9B2204604F0BDF80020F0
:1027300070BD12F0080F09D02E498E42F7D912F45D
:10274000004FF4D04FF400429A60F0E712F0200FEF
:1027500002D020229A60EAE712F0280FE7D125493B
:102760008E4206D912F4004F03D04FF400429A6013
:10277000DDE705EBC50204EB8202D2F874121B6997
:10278000C3F31203CB1AC2F868327DB905EBC50258
:1027900004EB8202D2F864226AB105EBC50204EBB5
:1027A0008202D2F860121944C2F86012E9B22046DF
:1027B00004F07AF8BBE704F29C42012101F020FF0B
:1027C000F4E712F4004F03D04FF400429A60AEE7F2
:1027D00012F0200F01D020229A60E9B2204604F0C6
:1027E00063F8A4E704F29C42002101F009FF9AE794
:1027F0000A31544F0A30544F38B5044603681D6CF3
:1028000003EB4113D3F8081B0E4A954207D903F591
:10281000306311F4004F02D04FF400429A6020461A
:1028200004F03AF8074B9D4202D9A379012B01D05D
:10283000002038BD04F29C420121206801F0E0FE36
:10284000F6E700BF0A30544F90F89434012B0CD0B7
:1028500010B50446012380F894344174006801F0F7
:102860002FFE002084F8940410BD0220704738B574
:1028700005468C4611F0800F2BD101F00F0E0EEBA8
:10288000CE04A40004F514740444211D0EEBCE0EF6
:1028900000EB8E0E00208EF855020CF00F0C81F824
:1028A00000C0C2F30A028A600B714A780AB1A1F82B
:1028B0001AC0022B1CD095F89434012B1BD0012395
:1028C00085F89434286801F022FB002085F89404F0
:1028D00038BD01F00F0000EBC00189001031294420
:1028E000043100EBC00005EB800001244475D4E7FF
:1028F00000234B71DFE70220EAE710B504460A46E1
:1029000011F0800F20D101F00F0000EBC0039B00FD
:1029100003F514732344191D00EBC00004EB800081
:10292000002380F8553202F00F020A7094F89434B4
:10293000012B18D0012384F89434206801F034FB73
:10294000002084F8940410BD01F00F0000EBC003D8
:102950009B0010332344191D00EBC00004EB8000E2
:1029600001234375DFE70220EDE710B5144601F0BF
:102970000F0C0CEBCC01890001F5147101440431FA
:102980000CEBCC0E00EB8E0ECEF86022CEF864324B
:102990000023CEF868328EF855328EF854C2827910
:1029A000012A04D0006801F0E5FB002010BDCEF83C
:1029B0007042F7E701F00F0101EBC10100EB81006C
:1029C000D0F86802704710B5144601F00F0C0CEBFC
:1029D000CC0189001031014404310CEBCC0E00EB2A
:1029E0008E0ECEF82020CEF824300023CEF82830EA
:1029F00001238EF815308EF814C082799A4204D0E3
:102A0000006801F0B7FB002010BDCEF83040F7E7BA
:102A100038B501F00F050279AA4238D304460B46B7
:102A200011F0800F1FD101EBC101890001F5147174
:102A30000144043103EBC30300EB8303002283F85A
:102A4000552201238B700D7094F89434012B20D003
:102A5000012384F89434206801F0D7FC85B100206C
:102A600084F8940438BD05EBC50189001031014498
:102A7000043105EBC50300EB830301225A75E0E73F
:102A800004F29C42A179206801F0BAFDE7E7012039
:102A9000E8E70220E6E701F00F0302799A4230D31B
:102AA00010B5044611F0800F1ED103EBC30189005D
:102AB00001F514710144043103EBC30200EB8202FF
:102AC000002082F8550200228A700B7094F894342A
:102AD000012B18D0012384F89434206801F0C2FC43
:102AE000002084F8940410BD03EBC3018900103169
:102AF0000144043103EBC30200EB82020120507554
:102B0000E1E7012070470220EDE708B511F0800FE2
:102B10000CD101F00F0101EBC101890001F5147125
:102B200001440431006801F0AFFA08BD01F00F0163
:102B300001EBC1018900103101440431F2E72DE9B4
:102B4000F04F83B004460568284601F014FD10B12B
:102B500003B0BDE8F08F0646206801F0DDFC0028D8
:102B6000F6D005F50067BB68C3F30D23C4F8D43471
:102B7000206801F0D1FC10F0020F04D022685369E4
:102B800003F002035361206801F0C6FC10F0100F3F
:102B900013D02268936923F010039361D5F8208045
:102BA00008F00F09C8F34343022B4BD0062B6FD01C
:102BB0002268936943F010039361206801F0ACFC34
:102BC00010F4002F76D1206801F0A6FC10F4802FBD
:102BD00040F0E080206801F09FFC0028C0F2618195
:102BE000206801F099FC10F4006F09D0BB6813F065
:102BF000010F40F06E812268536903F40063536152
:102C0000206801F089FC10F4805F40F06681206844
:102C100001F082FC10F4005F40F0B381206801F005
:102C20007BFC10F0080F40F0C481206801F074FCB8
:102C300010F0800F00F0D781AB6923F08003AB6107
:102C40000126C0E147F6F07318EA030FB0D04FEA4F
:102C5000181A4FEAC903019309EBC90B04EB8B0B5C
:102C6000C8F30A12DBF86012284601F0ABFBDBF870
:102C70006032CAF30A0A5344CBF86032DBF8683298
:102C8000019A4A4404EB82025344C2F868328FE747
:102C9000082204F29C41284601F094FB09EBC90389
:102CA00004EB8303D3F86822C8F30A184244C3F83C
:102CB00068227DE7206801F033FC8046B14635E0AC
:102CC00005EB49130122C3F8082B49462046FFF7BC
:102CD00011FD3CE005EB49130822C3F8082B4946D7
:102CE0002046FFF789FD35E009EBC90304EB8303B8
:102CF00093F85732012B41D005EB49130222C3F858
:102D0000082B1AF0200F04D005EB49132022C3F83A
:102D1000082B1AF4005F05D005EB49134FF400525D
:102D2000C3F8082B09F101094FEA5808B8F1000F60
:102D30003FF449AF18F0010FF4D05FFA89FB594610
:102D4000206801F0FDFB824610F0010FB8D11AF0A7
:102D5000080FBFD11AF0100F04D005EB4913102251
:102D6000C3F8082B1AF0020FCBD06B6913F0800F59
:102D7000BAD07B6843F480637B60B5E709EBC90395
:102D800004EB8303002283F857225946204603F0C0
:102D9000DBFDB1E7206801F0CBFB8046B14625E0C2
:102DA0005946204603F08CFD1AF0080F04D005EBBD
:102DB00049130822C3F808291AF0100F04D005EBB4
:102DC00049131022C3F808291AF0400F04D005EB6C
:102DD00049134022C3F808291AF0020F40D11AF013
:102DE000800F59D109F101094FEA5808B8F1000FD5
:102DF0003FF4F0AE18F0010FF4D05FFA89FB5946AA
:102E0000206801F0A6FB824610F0010FCCD009F03B
:102E10000F02012101FA02F27B6B23EA02037B63BA
:102E200005EB4913C3F80819A3798B42B8D109EB14
:102E3000C90304EB83031A6AD9690A441A62B9F117
:102E4000000FADD109EBC90304EB83035B6A002BD0
:102E5000A6D104F29C420121206801F0D1FB9FE73A
:102E60004946284600F028FF09EBC90304EB830319
:102E7000DB7D012B05D005EB49130222C3F808299D
:102E8000ADE709EBC90304EB83030022DA75594669
:102E9000204603F05FFDEEE749462046FFF71EFBA4
:102EA000A0E77B6823F001037B6094F8CC34012B0E
:102EB00008D0204603F042FD2268536903F0004326
:102EC00053618DE6002184F8CC14204600F03FF9D0
:102ED000F2E7204603F01AFD8DE67B6823F001033C
:102EE0007B601021206800F0E7FE1AE005EB461336
:102EF0004FF67F31C3F80819D3F8002922F40012E5
:102F0000C3F80029C3F8081BD3F8002B22F40012E1
:102F1000C3F8002BD3F8002B42F00062C3F8002B5B
:102F200001362379B342E1D8FB6943F00113FB6119
:102F3000E37BDBB1D7F8843043F00B03C7F8843070
:102F40007B6C43F00B037B64D5F8003823F4FE63FD
:102F5000C5F8003804F29C42A179206801F050FBCA
:102F60002268536903F48053536150E67B6943F44C
:102F7000005343F02B037B613B6943F00B033B6140
:102F8000E2E7206801F02CFB206800F0AFFFE07161
:102F9000266800F0DDFB0146E279304600F00EFEC7
:102FA000204603F09EFC2268536903F400535361EA
:102FB00034E6204603F08FFC2268536903F00803CF
:102FC000536132E601362379B3420CD906EBC603CE
:102FD00004EB830393F85732012BF3D1F1B220466F
:102FE000FFF793FDEEE7206801F096FA10F4801FDA
:102FF00025D1206801F090FA10F4001F59D0012368
:1030000026E001362379B3421BD905EB4613D3F8EA
:10301000002906EBC60304EB83031B7E012BF0D1D2
:10302000002AEEDA06EBC60304EB83030122DA750D
:1030300066F07F01C9B22046FFF767FDE1E7012690
:10304000E0E72268536903F480135361D1E7013349
:1030500022799A4228D905EB4312D2F8001B03EBE0
:10306000C30204EB820292F85822012AEFD1002910
:10307000EDDA01F48031D4F8D42402F00102914257
:10308000E5D103EBC30204EB8202012182F857125F
:10309000AA6942F08002AA616A6912F0800FD6D153
:1030A0007B6843F400737B602268536903F4001368
:1030B0005361206801F030FA10F0804F10D1206881
:1030C00001F02AFA10F0040F3FF442AD23685D6866
:1030D00015F0040F0DD1226853682B43536037E578
:1030E000204603F03DFC2268536903F0804353619E
:1030F000E5E7204603F03AFCEDE710B40468606AA7
:1031000031B940EA0240A06200205DF8044B7047EC
:103110008C46A36A00EB1340002308E003F1400152
:1031200004EB8101496800EB11400133DBB20CF183
:10313000FF318B42F2D340EA02400CF13F0104EB35
:1031400081046060E0E703685962002070477047BF
:10315000002800F0E08170B582B00446036813F0E7
:10316000010F3BD09F4B9B6803F00C03042B2CD02A
:103170009C4B9B6803F00C03082B21D06368B3F5CC
:10318000803F4FD0B3F5A02F52D0964B1A6822F44F
:1031900080321A601A6822F480221A606368002B59
:1031A00050D0FFF723F805468E4B1B6813F4003F01
:1031B00014D1FFF71BF8401B6428F5D90320B1E1B7
:1031C000884B5B6813F4800FD8D0864B1B6813F4D0
:1031D000003F03D06368002B00F09F81236813F049
:1031E000020F54D07F4B9B6813F00C0F3ED07D4BE9
:1031F0009B6803F00C03082B33D0E368002B68D0E6
:10320000794B01221A60FEF7F1FF0546754B1B68EA
:1032100013F0020F54D1FEF7E9FF401B0228F5D945
:1032200003207FE16F4A136843F480331360B5E7EE
:103230006C4B1A6842F480221A601A6842F4803299
:103240001A60ABE7FEF7D2FF0546664B1B6813F426
:10325000003FC3D0FEF7CAFF401B6428F5D9032006
:1032600060E1604B5B6813F4800FC6D15D4B1B6857
:1032700013F0020F03D0E368012B40F05081594A4C
:10328000136823F0F803216943EAC103136023683C
:1032900013F0080F42D063696BB3534B0122C3F89C
:1032A000802EFEF7A3FF05464E4B5B6F13F0020F17
:1032B00034D1FEF79BFF401B0228F5D9032031E1F2
:1032C000484A136823F0F803216943EAC1031360F5
:1032D000DDE7454B00221A60FEF788FF0546414BAB
:1032E0001B6813F0020FD2D0FEF780FF401B0228AC
:1032F000F5D9032016E13C4B0022C3F8802EFEF7DF
:1033000075FF0546374B5B6F13F0020F06D0FEF7D3
:103310006DFF401B0228F5D9032003E1236813F059
:10332000040F77D02F4B1B6C13F0805F33D1002339
:1033300001932C4B1A6C42F080521A641B6C03F000
:1033400080530193019B0125284B1B6813F4807F58
:1033500023D0A368012B34D0052B38D0214B1A6F12
:1033600022F001021A671A6F22F004021A67A3689A
:10337000002B3DD0FEF73AFF06461A4B1B6F13F0A9
:10338000020F46D1FEF732FF801B41F2883398428C
:10339000F3D90320C6E00025D6E7144A136843F4A6
:1033A00080731360FEF722FF0646104B1B6813F470
:1033B000807FCED1FEF71AFF801B0228F5D90320AB
:1033C000B0E0084A136F43F001031367CFE7054BE2
:1033D0001A6F42F004021A671A6F42F001021A676C
:1033E000C5E700BF003802400000474200700040BF
:1033F000FEF7FCFE0646524B1B6F13F0020F08D07F
:10340000FEF7F4FE801B41F288339842F3D9032083
:1034100088E0EDB9A369002B00F08380484A9268E8
:1034200002F00C02082A51D0022B17D0454B002283
:103430001A66FEF7DBFE0446414B1B6813F0007F63
:1034400042D0FEF7D3FE001B0228F5D9032069E025
:103450003B4A136C23F080531364DBE7394B0022A3
:103460001A66FEF7C3FE0546354B1B6813F0007F56
:1034700006D0FEF7BBFE401B0228F5D9032051E021
:10348000E369226A1343626A43EA8213A26A52081A
:10349000013A43EA0243E26A43EA0263284A53607C
:1034A000284B01221A66FEF7A1FE0446244B1B6836
:1034B00013F0007F06D1FEF799FE001B0228F5D914
:1034C00003202FE000202DE000202BE0012B2BD04B
:1034D0001B4B5B6803F48001E269914226D103F043
:1034E0003F02216A8A4223D1616A47F6C0721A40BC
:1034F000B2EB811F1ED103F44031A26A5208013A97
:10350000B1EB024F18D103F07063E26AB3EB026FC4
:1035100014D1002006E001207047012002E00120C4
:1035200000E0002002B070BD0120FBE70120F9E7B8
:103530000120F7E70120F5E70120F3E70120F1E79B
:10354000003802400000474208B5264B9B6803F054
:103550000C03042B41D0082B41D1224B5A6802F0B6
:103560003F025B6813F4800F12D01E4B5968C1F301
:1035700088111D480023A1FB0001FCF729FE194B0F
:103580005B68C3F3014301335B00B0FBF3F027E05A
:10359000144B5868C0F388104FEA401CBCEB000C79
:1035A0006EEB0E0E4FEA8E1343EA9C634FEA8C11CA
:1035B000B1EB0C0163EB0E03DB0043EA5173C9006E
:1035C00011EB000C43F10003990200234FEA8C2019
:1035D00041EA9C51FCF7FCFDD1E7034800E00348B9
:1035E00008BD00BF00380240001BB7000024F400F3
:1035F000002800F09B8070B50D4604464F4B1B68B9
:1036000003F007038B4208D2CBB24C4A1370136805
:1036100003F007038B4240F08B80236813F0020F06
:1036200017D013F0040F04D0454A936843F4E053D5
:103630009360236813F0080F04D0414A936843F461
:10364000604393603E4A936823F0F003A1680B4304
:103650009360236813F0010F32D06368012B21D0EF
:103660009A1E012A25D9364A126812F0020F61D03B
:1036700033498A6822F0030213438B60FEF7B6FDDC
:1036800006462F4B9B6803F00C036268B3EB820F76
:1036900016D0FEF7ABFD801B41F288339842F0D97B
:1036A000032042E0264A126812F4003FE0D10120D4
:1036B0003BE0234A126812F0007FD9D1012034E0A8
:1036C0001E4B1B6803F00703AB4207D9EAB21B4B42
:1036D0001A701B6803F00703AB422DD1236813F067
:1036E000040F06D0164A936823F4E053E1680B43B5
:1036F0009360236813F0080F07D0114A936823F4EE
:103700006043216943EAC1039360FFF71DFF0C4B3F
:103710009B68C3F303130B4AD35CD8400A4B186071
:103720000A4B1868FEF742FC002070BD012070476C
:103730000120FAE70120F8E70120F6E7003C02400B
:1037400000380240D0B60008000000200800002029
:10375000014B1868704700BF0000002008B5FFF754
:10376000F7FF044B9B68C3F38223034AD35CD84022
:1037700008BD00BF00380240C8B600080F23036030
:103780000B4B9A6802F0030242609A6802F0F00262
:1037900082609A6802F4E052C2609B68DB0803F41E
:1037A000E0530361034B1B6803F007030B60704792
:1037B00000380240003C02407047000090F83D3065
:1037C000DBB2012B37D1022380F83D300268D36889
:1037D00043F00103D3600368194A934220D0B3F148
:1037E000804F1DD0A2F57C42934219D002F5806231
:1037F000934215D002F58062934211D002F57842CF
:1038000093420DD002F57052934209D0A2F5943242
:10381000934205D01A6842F001021A6000207047F6
:103820009A6802F00702062A07D01A6842F00102DD
:103830001A6000207047012070470020704700BFC9
:1038400000000140704770477047704770B50446EC
:103850000368DE681D6915F0020F10D016F0020F24
:103860000DD06FF002021A610123037703689B6990
:1038700013F0030F5ED0FFF7E6FF0023237715F068
:10388000040F12D016F0040F0FD023686FF004025B
:103890001A610223237723689B6913F4407F4FD07A
:1038A0002046FFF7D0FF0023237715F0080F12D032
:1038B00016F0080F0FD023686FF008021A61042376
:1038C00023772368DB6913F0030F40D02046FFF70E
:1038D000BAFF0023237715F0100F12D016F0100F47
:1038E0000FD023686FF010021A6108232377236832
:1038F000DB6913F4407F31D02046FFF7A4FF00239B
:10390000237715F0010F02D016F0010F2DD115F01D
:10391000800F02D016F0800F2FD115F0400F02D08B
:1039200016F0400F31D115F0200F02D016F0200F05
:1039300033D170BDFFF786FF2046FFF785FF9CE778
:103940002046FFF77FFF2046FFF77EFFABE72046CC
:10395000FFF778FF2046FFF777FFBAE72046FFF72B
:1039600071FF2046FFF770FFC9E723686FF001027F
:103970001A612046FEF788FAC9E723686FF08002D3
:103980001A61204600F0ABF8C7E723686FF04002E9
:103990001A612046FFF759FFC5E723686FF0200240
:1039A0001A61204600F09AF8C3E700000368344A21
:1039B000904212D0B0F1804F0FD0A2F57C429042DD
:1039C0000BD002F58062904207D002F580629042EF
:1039D00003D002F57842904203D123F070034A6885
:1039E0001343274A90422AD0B0F1804F27D0A2F546
:1039F0007C42904223D002F5806290421FD002F5B3
:103A0000806290421BD002F57842904217D002F5B6
:103A10007052904213D002F5806290420FD002F5AE
:103A2000806290420BD0A2F59832904207D002F506
:103A30008062904203D002F58062904203D123F469
:103A40004073CA68134323F080034A691343036039
:103A50008B68C3620B688362094B984203D003F5FD
:103A60008063984201D10B690363012343610369B9
:103A700013F0010F03D0036923F0010303617047C2
:103A80000000014040B310B5044690F83D30F3B15A
:103A9000022384F83D30214651F8040BFFF786FFDE
:103AA000012384F8463084F83E3084F83F3084F8AF
:103AB000403084F8413084F8423084F8433084F850
:103AC000443084F8453084F83D30002010BD80F843
:103AD0003C30FFF771FEDBE701207047704770470D
:103AE00082B000230193019B01330193019BB3F149
:103AF000706F15D80369002BF5DA00230193036971
:103B000043F001030361019B01330193019BB3F176
:103B1000706F08D8036913F0010FF4D1002000E0A2
:103B2000032002B070470320FBE784B010B50446C1
:103B300003A880E80E009DF81130012B21D1A36B62
:103B400023F48033A363E36823F4840323F0400366
:103B5000E360E36823F44013E3609DF81830012B21
:103B60000AD02046FFF7BCFF9DF80E30012B1CD079
:103B7000BDE8104004B07047E36843F48013E3608D
:103B8000EFE7E36843F04003E3602046FFF7A8FF58
:103B90009DF8153023B9A36B43F48033A363E3E7A7
:103BA000A36B23F48033A363DEE7A36843F006032B
:103BB000A360A36843F02003A360D9E7022A0AD0D8
:103BC0000922C36823F47053C360C36843EA8223A5
:103BD000C36000207047234B0B44234A93422FD9E4
:103BE000224B0B44224A93422CD9A1F57403A3F52E
:103BF0001053204A934227D9A1F18373A3F5E743D9
:103C00001D4A934222D31D4B0B441D4A93421FD998
:103C10001C4B0B441C4A93421CD31C4B0B441C4AA8
:103C2000934219D3A1F1B773A3F55853194A93429C
:103C300014D3194B0B44194A934211D20722C0E7FF
:103C40000F22BEE70E22BCE70D22BAE70C22B8E72E
:103C50000B22B6E70A22B4E70922B2E70822B0E74E
:103C60000622AEE7405327FFFF340C00401E1BFF27
:103C70003F420F007F4F120020D6130060B6E5FED2
:103C80005FE3160000D3CEFE40771B00C05BB3FE9F
:103C9000C091210020753800E05459FEE09C41009D
:103CA000836843F00103836000207047836823F03A
:103CB000010383600020704782B000230193019BC1
:103CC00001330193019BB3F1706F15D80369002B89
:103CD000F5DA00230193890141F020010161019B84
:103CE00001330193019BB3F1706F08D8036913F09E
:103CF000200FF4D1002000E0032002B07047032021
:103D0000FBE782B000230193019B01330193019BE8
:103D1000B3F1706F13D80369002BF5DA0023019318
:103D200010230361019B01330193019BB3F1706F79
:103D300008D8036913F0100FF4D1002000E003202D
:103D400002B070470320FBE7D0F800381943C0F8F1
:103D5000001800207047000084B0F8B5044607A89A
:103D600080E80E00002306E003F1400204EB82022B
:103D70000021516001330E2BF6D99DF8266006BB59
:103D8000D4F8043843F00203C4F80438A36B43F4B6
:103D90000013A363A36B23F40023A363A36B23F497
:103DA0008023A3630023C4F8003E9DF82130012B3B
:103DB00015D19DF81F306BB900212046FFF7C4FFD5
:103DC00011E0A36B23F40013A363A36B43F400235C
:103DD000A363E7E701212046FFF7B6FF03E00321D5
:103DE0002046FFF7B1FF10212046FFF765FF05468B
:103DF00000B101252046FFF784FF00B1012504F53D
:103E0000006C0023CCF81030CCF81430CCF81C3007
:103E10000AE0CBB94FF00060C2F8000900220A6145
:103E20004FF67F328A6001339DF81C10994210D9F9
:103E300004EB431202F51061D2F800090028E8DB18
:103E40000020C2F80009E9E74FF09040C2F80009ED
:103E5000E4E700230AE0BBB14FF09047C2F8007BD3
:103E6000002202614FF67F3282600133994210D9FD
:103E700004EB431202F53060D2F8007B002FEADB3E
:103E80000027C2F8007BEBE74FF00067C2F8007B29
:103E9000E6E7DCF8103023F48073CCF81030002310
:103EA000A3616FF0804363619DF81E301BB9A36965
:103EB00043F01003A361A2690B4B1343A3619DF868
:103EC00022301BB1A36943F00803A361012E04D083
:103ED0002846BDE8F84004B07047A36943F080432A
:103EE00043F00403A361F3E700383C80D0F80838BE
:103EF00013F0060307D0022B07D0062B01D00F20AA
:103F0000704702207047002070470220704710B5AC
:103F100091F800C04B78012B23D000F5006ED0F84B
:103F20001C380CF00F040122A24043EA0243C0F8FF
:103F30001C3800EB4C10D0F8003B13F4004F0ED1AE
:103F4000D0F8003B8A68C2F30A02097942EA81424A
:103F5000134343F0805343F40043C0F8003B002078
:103F600010BDD0F81C280CF00F0E03FA0EF39BB214
:103F70001343C0F81C3800EB4C10D0F8003913F490
:103F8000004FECD1D0F800398A68C2F30A020979EF
:103F900042EA814242EA8C52134343F0805343F495
:103FA0000043C0F80039DAE730B40B784A78012AC8
:103FB00026D000EB4313D3F8002B002A52DBD0F8B5
:103FC0003C480A7802F00F024FF0010C0CFA02F2A2
:103FD00024EA0242C0F83C28D0F81C28097801F0F5
:103FE0000F010CFA01FC22EA0C42C0F81C28D3F89D
:103FF000001B234A0A40C3F8002B002030BC704746
:1040000000EB4313D3F80029002A1EDBD0F83C58FC
:104010000A7802F00F02012404FA02F292B225EAB1
:104020000202C0F83C28D0F81C28097801F00F01E2
:104030008C40A4B222EA0402C0F81C28D3F800196C
:10404000104A0A40C3F80029D7E7D3F8002942F004
:104050000062C3F80029D3F8002942F08042C3F877
:104060000029D3E7D3F8002B42F00062C3F8002BFD
:10407000D3F8002B42F08042C3F8002B9FE700BF2B
:104080000078F3EF007833EC10B483B002460023DD
:104090000193487801280BD00B7802EB4313D3F837
:1040A000000B00282DDB002003B05DF8044B7047A7
:1040B0000B7802EB4313D3F80049002C01DB0020FE
:1040C000F2E7D3F8004944F00064C3F800490B78E4
:1040D00002EB4313D3F8004944F08044C3F800498D
:1040E000019B01330193019C42F210739C42DBD887
:1040F0000B7802EB4313D3F80039002BF0DB0020E0
:10410000D2E7D3F8000B40F00060C3F8000B0B7847
:1041100002EB4313D3F8000B40F08040C3F8000BD0
:10412000019B01330193019842F21073984208D821
:104130000B7802EB4313D3F8003B002BF0DB00209D
:10414000B2E70120B0E710B59DF8084084B9033309
:104150004FEA930E4FF0000C08E000EB023303F53A
:10416000805351F8044B1C600CF1010CF445F4D35E
:10417000002010BDF0B583B00C784B78012B2FD008
:1041800000EB441C0CF530631D69ED0CED041D6162
:104190001D6925F0FF5525F4C0151D61002C40F068
:1041A000D2800C690CB18C680C618C680C621D6942
:1041B000C4F312042C431C611C6944F400241C61E8
:1041C000012A00F0E3800B79012B00F0E580DCF898
:1041D000003B43F00443CCF8003B002003B0F0BDAB
:1041E0000B6983BB00EB4413D3F8105925F0FF553E
:1041F00025F4C015C3F81059D3F8105945F400251B
:10420000C3F81059D3F81059ED0CED04C3F8105948
:10421000012A56D000EB4414D4F8003943F004438B
:10422000C4F800390B79012B74D00B69002BD4D062
:10423000D0F83438097801F00F0101228A40134385
:10424000C0F83438C9E700EB441303F510631D6967
:10425000ED0CED041D611D6925F0FF5525F4C01519
:104260001D6184B90E698D68AE4200D90D611D696A
:1042700045F400251D611D690E69C6F3120C45EA5F
:104280000C051D61C4E70D698E683544013DB5FB21
:10429000F6F51E691FFA85FC494F07EAC545354307
:1042A0001D610D79012DE6D11D6925F0C0451D6107
:1042B0001D694FEA4C7C0CF0C04C45EA0C051D61B1
:1042C000D9E7CB691BB100EB4412C2F814390B7962
:1042D000012B08D000EB4414D4F8003943F0044318
:1042E000C4F8003979E7D0F8083813F4807F08D192
:1042F00000EB4412D2F8003943F00053C2F8003901
:10430000E8E700EB4412D2F8003943F08053C2F8DA
:104310000039DFE7D0F8083813F4807F0CD1D4F8E7
:10432000003943F00053C4F8003900920B8A0A7830
:10433000C968FFF708FF50E7D4F8003943F080530D
:10434000C4F80039F1E70C6954B91C698D68C5F3EC
:1043500012052C431C611C6944F400241C612FE7E6
:104360008D682C44013CB4FBF5F4A4B204FB05F5C4
:104370000D621D69124E06EAC4442C431C611C697F
:104380000D6AC5F312052C431C6119E7CA68002A9F
:104390003FF419AF5A6116E7D0F8083813F4807F5C
:1043A00006D1DCF8003B43F00053CCF8003B0EE7AD
:1043B000DCF8003B43F08053CCF8003B07E700BF3C
:1043C0000000F81F10B5844608464FEA920E02F02E
:1043D0000302002305E00CF58051096840F8041B36
:1043E00001337345F7D37AB10CF5805CDCF80040FB
:1043F0000021CBB2DB0024FA03F300F8013B0131CA
:10440000013A92B2002AF4D110BD0B784A78012A01
:1044100014D000EB4310D0F8002B002A06DB2BB1A0
:10442000D0F8003B23F08043C0F8003BD0F8003BBD
:1044300043F40013C0F8003B0020704700EB43102A
:10444000D0F80029002A06DB2BB1D0F8003923F080
:104450008043C0F80039D0F8003943F40013C0F8A5
:104460000039E9E70B784A78012A0ED000EB4310B7
:10447000D0F8003B23F40013C0F8003B0B79023B5B
:10448000DBB2012B15D90020704700EB4310D0F8A8
:10449000003923F40013C0F800390B79023BDBB27A
:1044A000012BF0D8D0F8003943F08053C0F8003920
:1044B000E9E7D0F8003B43F08053C0F8003BE2E767
:1044C000D0F8003823F4FE63C0F80038D0F8003884
:1044D000090101F4FE610B43C0F800380020704769
:1044E000D0F8003E23F00303C0F8003ED0F80438B3
:1044F00023F00203C0F8043800207047D0F8003ED3
:1045000023F00303C0F8003ED0F8043843F0020360
:10451000C0F8043800207047426980691040704735
:10452000D0F8183800F50060C0691840000C7047DA
:10453000D0F8183800F50060C069184080B27047A4
:1045400000EB4111D1F8082B00F5006040691040E4
:104550007047D0F81028D0F8343801F00F0C23FA47
:104560000CF3DB01DBB2134300EB411000F51060EC
:10457000806818407047406900F00100704738B506
:104580000546C36823F0C043C360012913D019BB9B
:10459000C36843F08043C36000240A20FDF72CFE6B
:1045A0000A342846FFF7E7FF08B1C72CF5D9C82C15
:1045B00014D0002038BDC36843F00053C36000240A
:1045C0000A20FDF719FE0A342846FFF7D4FF012818
:1045D000EDD0C72CF4D9EAE70120EBE70120E9E7A9
:1045E000D0F8003923F4FF6323F00703C0F8003943
:1045F000D0F8043843F48073C0F8043800207047C2
:1046000010B4046C154B9C4203D9D0F8003B002B2E
:1046100016DB0024C0F8104BD0F8104B44F40024F3
:10462000C0F8104BD0F8104B44F01804C0F8104BF1
:10463000D0F8104B44F0C044C0F8104B012903D00F
:1046400000205DF8044B7047C0F8142BD0F8003BF5
:1046500043F08023C0F8003BF2E700BF0A30544F1C
:1046600010B5D0F8D43203F1B00250F822408CB12A
:1046700000EB820043687BB194F80002FF280DD064
:104680009B6894F8012221469847FF2384F8003262
:10469000002010BD0320FCE70020FAE70020F8E727
:1046A0000A2303800048704788000020F8B50646BA
:1046B0000F4F8221384600F03FFC05460121384665
:1046C00000F03AFC04468121384600F035FC0DB17B
:1046D0001022AA711CB1402222710022627118B10D
:1046E0004022027100224271432333800048F8BD0A
:1046F0000C000020F8B506460F4F8221384600F026
:104700001BFC05460121384600F016FC04468121B9
:10471000384600F011FC0DB11022AA711CB14022E4
:1047200022710022627118B140220271002242718E
:10473000432333800048F8BD0C000020F8B506463E
:104740000F4F8221384600F0F7FB0546012138461D
:1047500000F0F2FB04468121384600F0EDFB0DB17C
:104760001022AA711CB1002222710222627118B1BA
:104770000022027102224271432333800048F8BDB7
:104780000C00002038B5D0F8D432B03350F82350A4
:1047900095B1044602F03AF9C5F80C02D4F8D432C7
:1047A000B03304EB83046368DB6805F50371D5F867
:1047B00004029847002038BD0320FCE738B5D0F844
:1047C000C852D0F8D432B03350F8234084B301F04B
:1047D0000F0303EB830200EB820292694AB103EB01
:1047E000C30C05EB8C05ED69B2FBF5FC05FB1C2247
:1047F00092B10023C4F81432D0F8D432B03300EBB5
:10480000830043681B69ABB10A4604F50471D4F810
:1048100008029847002038BD03EB830300EB8303B5
:1048200000249C612346224602F038F92046F2E734
:104830000320F0E70020EEE7F0B583B0D0F8D432E3
:1048400003F1B00250F8227000228DF80720ADF875
:104850000420002F7BD004460D46097811F0600635
:1048600034D0202E6CD1EA882AB311F0800F07D102
:104870006B7887F80032EA883F2A13D8D2B212E068
:10488000B03300EB83035B689B68394668789847D0
:10489000EA88072A28BF07223946204600F002FF8F
:1048A000002651E0402287F801223946204600F0D8
:1048B0000EFF002648E0B03300EB83035B689B6883
:1048C000002229466878984700263DE06F780B2F34
:1048D00031D8DFE807F00639303030303030303052
:1048E000162690F89C32DBB2032B04D0294600F048
:1048F00060FB032628E0022201A900F0D3FE3E4619
:1049000022E090F89C32DBB2032B04D0294600F061
:1049100050FB032618E001220DF1070100F0C2FE52
:1049200012E090F89C32DBB2032B0DD0294600F048
:1049300040FB032608E0294600F03BFB032603E08A
:10494000294600F036FB0326304603B0F0BD0326AF
:10495000FAE738B50446812102F080F80025258762
:104960000121204602F07AF8A4F8785182212046ED
:1049700002F074F8A4F84C50A4F84E50D4F8D43295
:1049800003F1B00254F822209AB1B03304EB830350
:104990005B685B689847D4F8D432B03354F823008E
:1049A00002F03EF8D4F8D432B03344F82350C4F8BF
:1049B000BC52002038BD70B504464FF4077002F0B9
:1049C0002BF8002849D005464FF40772002102F069
:1049D00020FAD4F8D432B03344F82350C4F8BC528F
:1049E000237C002B41D14FF4007302228121204609
:1049F00002F029F8012626874FF40073022231467F
:104A0000204602F020F8A4F878611023A4F84E3074
:104A1000082303228221204602F015F80123A4F87E
:104A20004C300026C5F80462D4F8D432B03304EB1D
:104A300083035B681B689847C5F81462C5F8186261
:104A4000D5F8042262B3257C1DBB4FF4007301210D
:104A5000204602F02BF8284670BDD4F8D432B0338B
:104A6000002244F823200225F5E740230222812179
:104A7000204601F0E8FF0126268740230222314626
:104A8000204601F0E0FFA4F878611023A4F84E302E
:104A9000BEE740230121204602F008F80025DAE7AE
:104AA0000225D8E739B1D0F8D432B03300EB830017
:104AB00041600020704703207047D0F8D432B033F3
:104AC00050F823302BB1C3F80812C3F8102200208D
:104AD000704703207047D0F8D432B03350F82330F9
:104AE0001BB1C3F80412002070470320704708B5BB
:104AF000D0F8D432B03350F823208AB1D2F814322F
:104B00000BB1012008BD0123C2F81432D2F81032D3
:104B1000C362D2F80822812101F0C0FF0020F1E732
:104B20000320EFE710B5D0F8D432B03350F823208B
:104B300092B1047C44B94FF40073D2F804220121ED
:104B400001F0B4FF204610BD4023D2F80422012119
:104B500001F0ACFF0024F5E70324F3E798B108B5B2
:104B600003460020C3F8B802C3F8C402C3F8D00259
:104B700009B1C3F8B412012183F89C121A701846C7
:104B800001F0FAFE08BD0320704710B582B0002383
:104B9000ADF8063089B10446C0F8B812CB6A23B12B
:104BA0000DF106009847C4F8D002D4F8D83201338A
:104BB000C4F8D832002002B010BD0320FBE708B5CE
:104BC00001F039FF08BD08B5D0F8B83213B11B6841
:104BD000984708BD0020FCE708B5D0F8B8325B68FC
:104BE000984700B908BD0320FCE738B5044600F239
:104BF000AA25284600F0C9F90123C4F89432B4F874
:104C0000B032C4F8983294F8AA1201F01F03012BB5
:104C10000DD0022B10D02BB101F08001204601F005
:104C200025FF03E02946204600F084FB38BD2946D5
:104C3000204600F0BAFBF9E72946204600F0F7FBD2
:104C4000F4E7F8B50446012380F89C320023C0F84D
:104C500094324360C0F8A43280F8A032D0F8B83261
:104C6000DBB15B68DBB1002198470746C8B9402338
:104C700000221146204601F0E6FE0126A4F86461F8
:104C80004025C4F860512B4600228021204601F0C7
:104C9000DAFEA68425623846F8BD0027E7E700273C
:104CA000E5E70327E3E701740020704790F89C32A2
:104CB000DBB2042B04D090F89C32DBB280F89D323A
:104CC000042380F89C320020704790F89C32DBB2BD
:104CD000042B01D00020704790F89D32DBB280F8A1
:104CE0009C32F7E708B590F89C32DBB2032B01D079
:104CF000002008BDD0F8B832002BF9D0DB69002BBA
:104D0000F6D09847F4E708B5D0F8D432AE3350F86F
:104D100023205AB190F89C32DBB2032B01D0002043
:104D200008BD136A23B198470020F9E70320F7E78D
:104D30000020F5E708B5D0F8D432AE3350F8232080
:104D40005AB190F89C32DBB2032B01D0002008BD91
:104D5000536A23B198470020F9E70320F7E70020C2
:104D6000F5E70020704708B5012380F89C32D0F8A1
:104D7000B83223B15B680179984710B908BD0020AB
:104D8000FCE70320FAE7002070470020704738B5A1
:104D900004460D46002943D11346D0F89422032A35
:104DA00001D0084638BDD0F85C11D0F8602191429E
:104DB00012D890F8AA3203F01F03012B17D0022B50
:104DC0001CD0284694F89C32DBB2032B1BD0204623
:104DD00000F094FC2846E5E7891AC0F85C118A4285
:104DE00028BF0A46194600F081FC2846DAE790F809
:104DF000AE12FFF7C8FF0028E9D1E3E790F8AE1242
:104E0000FFF7C3FFF7E700F1AE0354F823301A6948
:104E1000002ADCD0C4F8D4021B6920469847D6E7A4
:104E200001F07F01FFF7B1FF90B994F89C32DBB23B
:104E3000032BB7D100F1AE0354F823309A69002A4E
:104E4000B0D0C4F8D4029B69294620469847A9E708
:104E50000020A7E738B504460D4600294BD113467C
:104E6000D0F89422022A07D094F8A00218B10023A7
:104E700084F8A032284638BDC269016A8A420ED839
:104E80008A4218D094F89C32DBB2032B27D08021C1
:104E9000204601F0EBFD204600F03BFCE4E7521A0F
:104EA000C261194600F00BFC00231A461946204641
:104EB00001F0FCFDD8E783699942E3D8D0F8982245
:104EC0009342DFD20022114600F0F9FB0021C4F822
:104ED00098120B460A46204601F0E8FDC4E7D4F8D4
:104EE000B832DA68002AD2D00022C4F8D422DB68B3
:104EF00020469847CBE741F08001FFF746FF90B985
:104F000094F89C32DBB2032BB5D100F1AE0354F818
:104F100023305A69002AAED0C4F8D4025B6929460E
:104F200020469847A7E70020A5E70B88027813449E
:104F30000B80037818447047428803789A4218D946
:104F400030B583B004460D46ADF806306388BDF831
:104F500006209A420AD20DF10601FFF7E6FF4378D8
:104F6000052BF3D18378AB42F0D100E0002003B0F1
:104F700030BD002070470346002002E00130C0B27F
:104F800001331A78002AF9D170470B7803704B78F7
:104F900043708B78CA7843EA022343800B794A79BD
:104FA00043EA022383808B79CA7943EA0223C380D0
:104FB000704710B50446802101F058FD00212046BD
:104FC00001F054FD10BD30B583B004460D460023FA
:104FD000ADF806304A88130A013B062B00F2AB807D
:104FE000DFE803F0041F33A9A98D9A00D0F8B4328A
:104FF0001B680DF10601007C9847EA88002A00F042
:10500000A380BDF80630002B00F099809A4228BF9B
:105010001A46ADF806200146204600F043FB03B0D7
:1050200030BD037C43B9D0F8B8329B6A0DF106005D
:10503000984702234370E0E7D0F8B832DB6A0DF1FD
:105040000600984702234370D7E7D2B2052A52D808
:10505000DFE802F003101D2A3744D0F8B4325B6851
:1050600023B10DF10601007C9847C6E72946FFF7FA
:10507000A0FFD4E7D0F8B4329B6823B10DF106014C
:10508000007C9847B9E72946FFF793FFC7E7D0F8B8
:10509000B432DB6823B10DF10601007C9847ACE720
:1050A0002946FFF786FFBAE7D0F8B4321B6923B16F
:1050B0000DF10601007C98479FE72946FFF779FF2D
:1050C000ADE7D0F8B4325B6923B10DF10601007C85
:1050D000984792E72946FFF76CFFA0E7D0F8B43273
:1050E0009B6923B10DF10601007C984785E72946AD
:1050F000FFF75FFF93E72946FFF75BFF8FE7037C2E
:1051000033B9D0F8B8325B6B0DF10600984774E7FD
:105110002946FFF74EFF82E7037C43B9D0F8B83247
:105120001B6B0DF1060098470723437065E729467E
:10513000FFF73FFF73E72946FFF73BFF6FE729467D
:105140002046FFF736FF6AE7204600F0D7FA66E709
:1051500038B504468B88FBB9CB88EBB94B887F2BDD
:105160001AD803F07F0590F89C32DBB2032B0CD0E9
:1051700080F89E52294601F089FC204600F0BEFAD4
:1051800035B1022384F89C3209E0FFF712FF06E0F4
:10519000012384F89C3202E02046FFF70AFF38BD65
:1051A00070B504460E468D782F4B1D70012D10D81A
:1051B00090F89C32DBB2022B0FD0032B26D0FFF7E6
:1051C000F8FE294B19782046FFF706FD03252846EF
:1051D00070BDFFF7EEFE0325F9E7A5B1456029464E
:1051E000FFF7F1FC054638B131462046FFF7E1FEF6
:1051F000022384F89C32EAE7204600F07FFA03237A
:1052000084F89C32E3E700F079FAE0E7CDB1416839
:105210008D4225D0C9B2FFF7DFFC134B19786160CE
:105220002046FFF7D0FC0546B0B131462046FFF7D7
:10523000C0FE21792046FFF7CFFC022384F89C3280
:10524000C5E7022380F89C3245602946FFF7C4FC7D
:10525000204600F053FABAE7204600F04FFAB6E7CE
:1052600000F04CFA0025B2E7A00B002008B5CB886F
:10527000012B0BD190F89C32DBB2022B09D9032B06
:1052800009D10122011D00F00DFA01E0FFF791FEA6
:1052900008BD5BB213B9FFF78CFEF9E701460023A6
:1052A00041F8083F012200F0FDF9F1E708B590F858
:1052B0009C32013B022B12D8CB88022B0CD101234C
:1052C000C360D0F8A4320BB10323C360022200F103
:1052D0000C0100F0E7F908BDFFF76BFEFBE7FFF7F5
:1052E00068FEF8E708B54B88012B04D0022B07D0E5
:1052F000FFF75FFE08BDC0F8A43200F0FFF9F9E740
:105300008B881B0A80F8A03200F0F8F9F2E708B5A4
:1053100090F89C32013B022B09D84B88012B00D01E
:1053200008BD0023C0F8A43200F0E8F9F8E7FFF761
:1053300040FEF5E738B50C7804F06004202C06D068
:10534000402C04D06CB1FFF734FE002407E0D0F805
:10535000D432AE3350F823309B6898470446204639
:1053600038BD4D78092D1DD8DFE805F012191C163F
:105370001C08051C0F0BFFF726FEF0E7FFF7E8FE01
:10538000EDE7FFF70DFF0446E9E7FFF76FFFE6E7FC
:10539000FFF78CFF2C46E2E7FFF7A4FFDFE7FFF7FC
:1053A000B6FFDCE7FFF705FED9E770B505460C460A
:1053B0000B7803F06003202B07D0402B05D023B1DE
:1053C000FFF7F7FD0026304670BD95F89C32013B93
:1053D000022B26D82179012905D921462846FFF735
:1053E000E8FD0026EFE72846FFF7CDFC68B900F19D
:1053F000AE0255F82220916889B1C5F8D4029368AD
:10540000214628469847064600E00326E388002BFD
:10541000D9D1002ED7D1284600F070F9D3E7032662
:10542000F4E721462846FFF7C4FD0026CBE72DE927
:10543000F04106460D468B88DFB20C7804F060041C
:10544000202C08D0402C06D0DCB1FFF7B2FD0024A0
:105450002046BDE8F08139463046FFF796FC044609
:10546000002840F0F880C6F8D40200F1AE0356F8E8
:1054700023309B68002BEBD02946304698470446E2
:10548000E6E791F80180B8F1010F31D0B8F1030FD0
:1054900005D0B8F1000F67D0FFF78BFDD8E790F883
:1054A0009C32DBB2022B04D0032B12D0FFF781FD1C
:1054B000CEE70FB1802F04D129463046FFF779FDA2
:1054C000C6E7394601F0D2FA8021304601F0CEFA23
:1054D000BEE74B8823B91FB1802F01D0CB881BB109
:1054E000304600F00BF9B3E7394601F0BFFAF7E7B1
:1054F00090F89C32DBB2022B04D0032B12D0FFF7C2
:1055000058FDA5E70FB1802F04D129463046FFF79B
:1055100050FD9DE7394601F0A9FA8021304601F09F
:10552000A5FA95E74B88002B92D117F07F0F17D182
:10553000304600F0E3F839463046FFF726FC0028F5
:1055400086D1C6F8D40200F1AE0256F82220926845
:10555000002A00F08280294630469047044677E7CB
:10556000394601F08BFAE3E790F89C22D2B2022A86
:1055700005D0032A27D0FFF71CFD444668E70FB18A
:10558000802F13D113F0800F14D107F07F0707EBA2
:105590008707B90001F5A8713144043100230B607D
:1055A0000222304600F07EF8444651E7FFF701FD45
:1055B00044464DE707F07F0707EB8707B900103136
:1055C00031440431EAE75BB2002B1FDB07F00F0226
:1055D00002EB820200EB8202B2F864211AB3002BC4
:1055E00025DB07F07F0303EB83039C0004F5A8741D
:1055F000344404340FB1802F22D1002323600222CF
:105600002146304600F04EF8444621E707F00F02ED
:1056100002EB820200EB8202928C002ADFD1FFF7BC
:10562000C8FC444614E7FFF7C4FC444610E707F003
:105630007F0303EB83039C00103434440434D9E724
:105640003946304601F0CCF910B101232360D6E78A
:1056500000232360D3E70024FAE60446F8E600B30B
:1056600070B50D4616460446FFF785FC0130430031
:10567000B3F5007F06D89BB233802B7003236B7089
:1056800002230AE04FF40073F6E7EA5401345A1C8F
:10569000D2B20021A9540233DBB22278002AF4D11D
:1056A00070BD704708B513460222C0F8942283618A
:1056B000C3610A46002101F0F1F9002008BD08B5D8
:1056C00013460A46002101F0E9F9002008BD08B59B
:1056D00013460322C0F89422C0F85831C0F85C3158
:1056E0000A46002101F0E2F9002008BD08B5134682
:1056F0000A46002101F0DAF9002008BD08B50422AD
:10570000C0F8942200231A46194601F0C7F9002078
:1057100008BD08B50522C0F8942200231A46194690
:1057200001F0C4F9002008BD842801D0033070477F
:105730000020704708B500F069FD002008BD2DE984
:10574000F04387B00E464469C4B18569B5B1476876
:10575000D0F80080D0F81090B0F90800FFF7E4FF0F
:1057600002950194009033464A464146384600F07F
:10577000DDFC0590059807B0BDE8F0834468056836
:105780000769B0F90800FFF7CFFF05AB0193009060
:105790003346BAB22946204600F005FD0128E9D07B
:1057A0000020E8E708B500B9012000F081FE0020E4
:1057B00008BD00F1080343604FF0FF328260C36010
:1057C000036100230360704700230361704743684F
:1057D0004B609A688A605160996008610368013380
:1057E0000360704730B40D68B5F1FF3F11D000F190
:1057F00008031C465B681A68AA42FAD963684B60C2
:1058000099608C606160086103680133036030BC9B
:1058100070470469F2E70369416882688A604168F9
:1058200051605A68824206D0002202611A68013A29
:105830001A601868704782685A60F5E782B00023E2
:1058400001930D4B1B68B3F1FF3F08D04FF050039D
:1058500083F31188BFF36F8FBFF34F8FFEE74FF0D5
:10586000500383F31188BFF36F8FBFF34F8F019BFA
:10587000002BFCD002B0704794000020084800685C
:10588000006880F308884FF0000080F3148862B647
:1058900061B6BFF34F8FBFF36F8F00DF00BF000013
:1058A00008ED00E0DFF80C00016841F470010160D0
:1058B0007047000088ED00E04FF0807340F8043C32
:1058C00021F0010140F8081C054B40F80C3C40F861
:1058D000202C6FF0020340F8243C4438704700BF8E
:1058E0003D5800080000000000000000000000001B
:1058F000074B19680868B0E8F04F80F30988BFF3D8
:105900006F8F4FF0000080F311887047AFF3008075
:10591000F44800204FF0500383F31188BFF36F8FDA
:10592000BFF34F8F0B4A136801331360012B00D074
:1059300070474FF0E023D3F8043D13F0FF0FF7D08A
:105940004FF0500383F31188BFF36F8FBFF34F8F76
:10595000FEE700BF94000020094B1B6843B94FF0DD
:10596000500383F31188BFF36F8FBFF34F8FFEE7B0
:10597000013B034A13600BB983F31188704700BFE2
:105980009400002000000000000000000000000063
:10599000EFF30980BFF36F8F154B1A681EF0100FDD
:1059A00008BF20ED108A20E9F04F10602DE90900B2
:1059B0004FF0500080F31188BFF34F8FBFF36F8F0C
:1059C00000F09CFD4FF0000080F3118809BC1968BD
:1059D0000868B0E8F04F1EF0100F08BFB0EC108A56
:1059E00080F30988BFF36F8F704700BFAFF300806B
:1059F000F448002008B54FF0500383F31188BFF33B
:105A00006F8FBFF34F8F00F04BFC28B14FF0E023B6
:105A10004FF08052C3F8042D002383F3118808BD92
:105A20004FF0E022002313619361054B1B68054989
:105A3000A1FB03139B09013B5361072313617047CB
:105A400000000020D34D62104FF0E023D3F8002D6A
:105A50003D4B9A421CD04FF0E023D3F8002D3B4B36
:105A60009A421ED030B583B0394B1A78D2B2019227
:105A7000FF221A701B78DBB28DF803309DF80330DB
:105A800003F05003334A1370334B07221A601BE0B4
:105A90004FF0500383F31188BFF36F8FBFF34F8F25
:105AA000FEE74FF0500383F31188BFF36F8FBFF30E
:105AB0004F8FFEE7284A1368013B13609DF80330BF
:105AC0005B00DBB28DF803309DF8033013F0800FDC
:105AD000F0D1214B1B68032B08D04FF0500383F308
