:020000040800F2
:1000000038470020E90200087B1600087115000837
:100010007916000843050008191B000800000000BD
:10002000000000000000000000000000290200089D
:100030000906000800000000850200088916000873
:100040000303000803030008030300080303000878
:100050000303000803030008030300080303000868
:100060000303000803030008030300080303000858
:100070004505000803030008030300080303000804
:100080000303000803030008030300080303000838
:100090000303000803030008030300080303000828
:1000A0000303000803030008030300080303000818
:1000B0000303000803030008030300080303000808
:1000C00003030008030300080303000803030008F8
:1000D00003030008030300080303000803030008E8
:1000E00003030008030300080303000803030008D8
:1000F0000303000841170008030300080303000876
:1001000003030008030300080303000803030008B7
:1001100003030008030300080303000803030008A7
:100120000303000803030008030300080303000897
:100130000303000803030008030300080303000887
:100140000303000803030008030300080303000877
:100150000303000803030008030300080303000867
:100160000303000803030008030300080303000857
:100170000303000803030008030300080000000055
:10018000030300080303000800F002F800F03CF845
:100190000AA090E8000C82448344AAF10107DA45E2
:1001A00001D100F031F8AFF2090EBAE80F0013F0F8
:1001B000010F18BFFB1A43F0010318474424000045
:1001C00064240000103A24BF78C878C1FAD85207D6
:1001D00024BF30C830C144BF04680C6070470000C1
:1001E0000023002400250026103A28BF78C1FBD840
:1001F000520728BF30C148BF0B6070471FB502F0DF
:10020000D5F91FBD10B510BD00F061F91146FFF71B
:10021000F5FF01F0D5FC00F07FF903B4FFF7F2FF22
:1002200003BC00F087F900002C4B19680868B0E89F
:10023000F04F80F30988BFF36F8F4FF0000080F319
:10024000118870470000000008480068006880F3CB
:1002500008884FF0000080F3148862B661B6BFF3DF
:100260004F8FBFF36F8F00DF00BF00BF08ED00E0CE
:10027000DFF80C00016841F470010160704700BFB5
:1002800088ED00E0EFF30980BFF36F8F134B1A681E
:100290001EF0100F08BF20ED108A20E9F04F10600B
:1002A00009B44FF0500080F31188BFF34F8FBFF3B4
:1002B0006F8F01F0B3FF4FF0000080F3118809BC8D
:1002C00019680868B0E8F04F1EF0100F08BFB0ECD6
:1002D000108A80F30988BFF36F8F704714000020E5
:1002E000EFF3058070470000094880470948004740
:1002F000FEE7FEE7FEE7FEE7FEE7FEE7FEE7FEE7D6
:10030000FEE7FEE704480549054A064B7047000032
:1003100031170008890100083841002038470020C3
:10032000384300203843002053EA020C00F0698073
:100330002DE9F04B4FF00006002B1FBFB3FA83F5F9
:1003400003FA05F424FA05F65E4012BF1643B2FA2A
:1003500082F502FA05F4C5F120051EBF22FA05FC5C
:1003600044EA0C04203556EA044C4FEA144418BF02
:10037000641C4FF000084FF00009904271EB030C31
:1003800039D3002919BFB1FA81F701FA07F6B0FA9B
:1003900080F700FA07F6C7F120071EBF20FA07FC16
:1003A00046EA0C062037B6FBF4FCA7EB0507103F26
:1003B00007F01F0BCBF120060CFA0BFB2CFA06F60C
:1003C00044BFB3460026202FA4BF5E464FF0000B6B
:1003D0005BEA060C08BF4FF0010B19EB0B09ABFBF6
:1003E000027C48EB0608C01B06FB02CC0BFB03CCCF
:1003F00071EB0C01C1E70B46024641464846BDE899
:10040000F08B13B54FF000004FF00001AFF3008008
:10041000BDE81C40704710B5203AC0F00B80B1E831
:100420001850203AA0E81850B1E81850A0E8185029
:10043000BFF4F5AF5FEA027C24BFB1E81850A0E832
:10044000185044BF18C918C0BDE810405FEA827C4C
:1004500024BF51F8043B40F8043B08BF7047D20763
:1004600028BF31F8023B48BF11F8012B28BF20F804
:10047000023B48BF00F8012B70474FF0000200B567
:10048000134694469646203922BFA0E80C50A0E8B7
:100490000C50B1F12001BFF4F7AF090728BFA0E865
:1004A0000C5048BF0CC05DF804EB890028BF40F831
:1004B000042B08BF704748BF20F8022B11F0804F73
:1004C00018BF00F8012B704770477047704775469A
:1004D00000F02CF8AE4605006946534620F00700B0
:1004E000854618B020B5FFF70DFFBDE820404FF05E
:1004F00000064FF000074FF000084FF0000B21F00E
:100500000701AC46ACE8C009ACE8C009ACE8C009DA
:10051000ACE8C0098D46704710B50446AFF30080C3
:100520002046BDE81040FFF778BE00000048704745
:10053000D840002001491820ABBEFEE7260002008B
:100540007047FEE710B50449044801F097F8BDE88C
:100550001040034800F05CB87C000020C44000203C
:100560002C03002001681823CAB2103AB2FBF3F240
:10057000054B6FF30901032A9B5CC36500D9091D74
:100580008165084670470000D425000810B5014673
:1005900000208B698A6A4FF0C07453B1B3F5005FD5
:1005A00015D072B1012A0CD0022A0AD0032A09D12F
:1005B00004E01AB1012A06D0022A03D1C96AC9018E
:1005C00000D5012010BDC96AA142FAD010BD002A91
:1005D000F7D0012AF2D0022AF3D0032AF3D010BDBB
:1005E00030B50468256825F48025256004686360BB
:1005F0008368402B036803D099600068C26030BDF7
:100600009A600068C16030BD704772B6FEE70000B6
:100610002DE9F84304464FF00009CDF800906348F7
:100620004FF41651A56D0068B0FBF1F72E6894F8F1
:100630005C10082000FA01F131420FD021680A68ED
:1006400052070BD50A6822F004020A6094F85C1085
:100650008840A860606D40F00100606594F85C100F
:100660004FF0010808FA01F0304208D021684969CA
:10067000090604D5A860606D40F00200606594F83A
:100680005C1004208840304208D02168096889073E
:1006900004D5A860606D40F00400606594F85C10BB
:1006A00010208840304218D021680968090714D505
:1006B000A86020680168490304D50068000308D5D4
:1006C000A16C07E00168C90503D4016821F00801A5
:1006D0000160216C09B12046884794F85C10202005
:1006E0008840304231D021680968C9062DD5A860FC
:1006F00094F8350005282068016806D0490347D5DD
:10070000006800031DD4616C1CE021F0160101603B
:100710002068416921F080014161206C08B9A06C1A
:1007200020B12068016821F00801016094F85C1094
:100730003F208840A86084F8358084F83490216D8B
:100740001FE0E16B09B120468847606D00282BD07F
:10075000606DC00714D0052084F83500206801685A
:1007600021F0010101600098401C0090B84203D8BC
:1007700020680068C007F6D184F8358084F834908A
:10078000E16C002910D001B02046BDE8F0430847D5
:100790000168C905D5D4016821F01001016084F811
:1007A000358084F83490CCE7BDE8F8831000002051
:1007B0002DE9F041044600F09BF906465CB10220A9
:1007C00084F83500002584F834502068016821F051
:1007D000010101600DE00120BDE8F08100F088F921
:1007E000801B052805D920206065032084F835008A
:1007F000F2E720680068C007F0D12268116820483D
:100800000140D4E901031843D4E9033633431843C4
:1008100063691843A3691843E3691843236A1843BB
:100820000843616A042903D1D4E90B13194308432F
:10083000106020684069666A20F0070130460E4368
:10084000012704280CD1A06A0643E06A40B1204683
:10085000FFF79CFE20B14020606584F83570BAE750
:10086000206846612046FFF77DFE94F85C203F211A
:1008700091408160656584F835700020ACE7000028
:100880003F8010F02DE9F0410446866D90F8340069
:10089000002501280DD0012084F8340094F835702B
:1008A0000020012F07D084F8340002252846BDE837
:1008B000F0810220FBE7022784F83570606520464E
:1008C000FFF78EFE94F85C103F208840B0602068EF
:1008D000016841F016010160206C20B120680168B8
:1008E00041F0080101602068016841F001010160E8
:1008F000DCE700002DE9F84FDFF8BCA1002201255C
:1009000003264FF00F090AF1040BAAF1040E00BFF1
:100910000B6805FA02F42340A34270D10F7907F067
:100920000307012F01D0022F16D187684FEA420832
:1009300006FA08FC27EA0C07D1F80CC00CFA08FCF0
:100940004CEA070CC0F808C04768A7430C79C4F309
:10095000001494403C4344600C79E443A4070AD05B
:10096000C4684FEA420C06FA0CF7BC438F6807FADA
:100970000CF72743C7600C7904F00304022C12D152
:10098000D40800EB840CDCF820405707FF0E09FA6E
:1009900007F824EA0804D1F8108008FA07F848EAB2
:1009A0000408CCF8208004684FEA420C06FA0CF7E1
:1009B000BC430F7907F0030707FA0CF727430760DA
:1009C0004C6814F4403F70D03C4C276847F4804793
:1009D0002760246822F0030704F480440094384C14
:1009E00007EB040CDCF8084897074FEA177809FA78
:1009F00008F7BC43334FB84202D1002724E054E04B
:100A0000314FB84201D101271EE0304FB84201D129
:100A1000022719E02E4FB84201D1032714E02D4FD1
:100A2000B84201D104270FE02B4FB84201D105276E
:100A30000AE02A4FB84201D1062705E0284FB84204
:100A400001D1072700E0082707FA08F72743CCF869
:100A50000878DAF800405746D1F804C09C435FEAB2
:100A6000CC2C00D51C433C60DBF800405F46D1F83D
:100A700004C09C435FEA8C2C00D51C433C60DEF82C
:100A800000407746D1F804C09C435FEA8C3C00D517
:100A90001C433C60084F083F3C68D1F804C09C43AD
:100AA0005FEACC3C00D51C433C60521C102AFFF48A
:100AB0002FAFBDE8F88F0000083C014044380240E9
:100AC00000300140000002400004024000080240E3
:100AD000000C0240001002400014024000180240C6
:100AE000001C02400AB1816170470904FBE7000065
:100AF00001488068704700000400002002488168B7
:100B00000278114481607047040000200B4810B542
:100B1000016841F400710160016841F48061016085
:100B2000016841F480710160032000F09FF80F20FC
:100B300000F006F800F050F8002010BD003C024024
:100B400030B505461F4887B00024016841F4807124
:100B50000160006806A900F48070009001A800F010
:100B600031F90498A8B100F04DF940001649174A30
:100B7000B0FBF1F11648491E026040F2E732C0E9CD
:100B80000324C0E90114846100F046FB040003D093
:100B900015E000F037F9E9E70D4800F06BFB0400C1
:100BA0000DD12D2000F034F8102D07D20022294657
:100BB0002D2000F03BF80748056000E0012407B055
:100BC000204630BD4038024040420F000020004027
:100BD0008C030020080000200C4882B0016841F41A
:100BE00080410160006800F4804000900748001FC9
:100BF000016841F0805101600068002200F08050DF
:100C000000900F21901E02B000F010B8443802404E
:100C1000002809DB00F01F020121914040098000FB
:100C200000F1E020C0F8001170470000F0B40E4B56
:100C30001B680C46C3F30223C3F10705042D00D93A
:100C40000425191D072901D2002300E0DB1E01261F
:100C500006FA05F1491E214099409E40761E164035
:100C60003143F0BC00F059BF0CED00E0064900F044
:100C7000070208684FF6FF03184040EA0220034AC3
:100C800010430860704700000CED00E00000FA051A
:100C90002DE9F0470E46050065D0DFF81481D8F83D
:100CA0000000F7B200F00700B04207D288F80070E9
:100CB000D8F8000000F00700B04254D128683D4C3D
:100CC000810712D5400703D5206840F4E05020602A
:100CD0002878000703D5206840F460402060206831
:100CE000A96820F0F000084320602878C0072DD0C4
:100CF000304968680839012812D0022813D0032827
:100D000011D00968890700292DDA216821F0030133
:100D100001432160FFF7ECFE814641F2883A0EE084
:100D200009688903EFE709688901ECE7FFF7E0FE4E
:100D3000A0EB0901514502D90320BDE8F0872068E6
:100D4000696800F00C00B0EB810FEFD1D8F800100B
:100D5000404601F00701B14207D90770006800F072
:100D60000700B04201D00120E7E72878400705D509
:100D70002068E96820F4E0500843206028780007E4
:100D800006D52068296920F4604040EAC10020604F
:100D900000F058F82168084AC1F30311515CC840BB
:100DA0000649086006480068FFF7CAFE0020C4E74D
:100DB000003C024008380240DC25000810000020FA
:100DC000080000200F2202600C4A136803F003039E
:100DD0004360136803F0F0038360136803F4E05387
:100DE000C36012684FF4E05303EAD2020261044880
:100DF000006800F0070008607047000008380240F3
:100E0000003C02400448054900680968044AC1F3EF
:100E10008221515CC8407047100000200838024011
:100E2000EC2500080448054900680968044AC1F334
:100E30004231515CC8407047100000200838024021
:100E4000EC250008154810B5006810F00C02144895
:100E500013D01449042A0FD0082A0ED10F4C241F96
:100E60002268236802F03F025B0207D52068C0F3C6
:100E70008810A0FB010106E0084610BD2168C1F3FF
:100E80008811A1FB00010023FFF74EFA2168C1F38E
:100E90000141491C4900B0FBF1F010BD0838024087
:100EA0000024F40040787D012DE9F84F04006ED055
:100EB0002078DFF84C93C007A9F104054AD009F166
:100EC00004000168C1F38101012908D00068C0F362
:100ED000810002280AD1D9F80000400206D528680E
:100EE000800337D560680028E1D033E06068B0F552
:100EF000803F10D0B0F5A02F286810D020F48030AB
:100F00002860286820F4802028606068A8B1FFF776
:100F1000EFFD06460DE0286840F48030F4E740F429
:100F200080202860F7E700BFFFF7E2FD801B642800
:100F300073D828688003F7D50CE0FFF7D9FD064683
:100F400005E000BFFFF7D4FD801B6428F0D82868B7
:100F50008003F7D42078DFF8AC8280074FF0000AD6
:100F60003ED5A748001D016811F00C0F08D000689D
:100F7000C0F3810002280BD1D9F80000400207D449
:100F80002868800716D5E068012800D112E033E117
:100F9000E068B8B10120C8F80000FFF7A9FD0646D7
:100FA00005E000BFFFF7A4FD801B0228C0D8286819
:100FB0008007F7D52868216920F0F80040EAC100D1
:100FC00028600DE0C8F800A0FFF792FD064604E097
:100FD000FFF78EFD801B02281FD828688007F7D4F2
:100FE0002078000722D5864F87486169703771B134
:100FF00001210160FFF77CFD064604E0FFF778FD64
:10100000801B022809D838688007F7D50EE0C0F8A1
:1010100000A0FFF76DFD064605E082E0FFF768FDE2
:10102000801B02287DD838688007F7D420784007D5
:1010300068D5DFF8CCB100270BF13C0BDBF80000E2
:10104000C0000BD4DBF8001041F08051CBF8001049
:10105000DBF80000012700F0805000906B4E3068F4
:10106000C00510D4306840F480703060FFF740FD58
:10107000009005E0FFF73CFD0099401A022850D887
:101080003068C005F6D55E4EA0686C3601280FD0DA
:101090000528306810D020F001003060306820F062
:1010A00004003060A068B8B1FFF722FD00900FE0A7
:1010B000306840F00100F4E740F004003060F7E7EA
:1010C000FFF716FD0099411A41F28830814266D837
:1010D00030688007F4D50EE0FFF70AFD009007E0C6
:1010E000FFF706FD0099411A41F28830814256D837
:1010F00030688007F4D42FB1DBF8001021F0805164
:10110000CBF80010A069C8B33D49091D0968C1F3B7
:10111000810102294AD00228504607D0C8F8600051
:1011200000E03CE0FFF7E4FC04463BE04746C8F83B
:101130006000FFF7DDFC064605E000BFFFF7D8FCC6
:10114000801B02282BD828688001F7D4D4E9070136
:101150000843A16A2E4A490802EB0141626A41EA4A
:101160008211084394F82C1040EA0161C9F800107C
:1011700001203866FFF7BCFC044606E03EE000BFF5
:10118000FFF7B6FC001B022809D828688001F7D5B4
:1011900034E000BFFFF7ACFC001B022802D903209B
:1011A000BDE8F88F28688001F4D427E00128F7D043
:1011B000D9F80000E26900F4800191421CD1226A52
:1011C00000F03F01914217D147F6C071626A0140B9
:1011D000B1EB821F10D1A26A4FF0FF3300F440310F
:1011E00003EB5202B1EB024F06D194F82C1000F041
:1011F0007060B0EB016F01D00120D1E70020CFE794
:101200000438024000004742800E47420070004010
:101210000000FFFF7047704710B5040003D094F83A
:101220003D0010B107E0012010BD002084F83C0013
:10123000204600F01EF8022084F83D00211D2068A1
:1012400000F084FA012084F8460084F83E0084F817
:101250003F0084F8400084F8410084F8420084F89C
:10126000430084F8440084F8450084F83D000020E1
:1012700010BD704790F83D10012901D00120704742
:10128000022180F83D100168CA6842F00102CA607C
:1012900000681149884214D0B0F1804F11D00F4935
:1012A00088420ED00E4988420BD00E49884208D0A1
:1012B0000D49884205D00D49884202D00C49884228
:1012C00004D1816801F00701062903D0016841F0CB
:1012D000010101600020704700000140000400404F
:1012E00000080040000C00400004014000400140A4
:1012F0000018004070472DE9F04104460068C668B8
:1013000005694FF00007A90713D5B10711D5F91EDC
:10131000016101202077206880698007204602D083
:10132000FFF7E8FF04E000F07EF8204600F07CF8CC
:101330002777680716D5700714D521686FF0040069
:101340000861022020772068806910F4407F2046E1
:1013500002D0FFF7CFFF04E000F065F8204600F070
:1013600063F82777280715D5300713D521686FF064
:1013700008000861042020772068C06980072046A3
:1013800002D0FFF7B7FF04E000F04DF8204600F070
:101390004BF82777E80616D5F00614D521686FF0CC
:1013A00010000861082020772068C06910F4407F91
:1013B000204602D0FFF79EFF04E000F034F82046FC
:1013C00000F032F82777E80708D0F00706D0216848
:1013D0006FF001000861204600F028F8280608D5C3
:1013E000300606D521686FF0800008612046FFF7BF
:1013F00011FF680608D5700606D521686FF0400019
:101400000861204600F01CF8A8060AD5B00608D5E9
:1014100021686FF0200008612046BDE8F041FFF729
:10142000FABEBDE8F08170477047000000680349CC
:10143000884201D1FFF762BB7047000000200040E6
:1014400070477047704770B5040004D094F84100AD
:10145000002510B106E0012070BD84F84050204600
:1014600000F024F8242084F841002068C16821F4A9
:101470000051C160204600F081FA2068016921F422
:10148000904101612068416921F02A014161206891
:10149000C16841F40051C1606564202084F84100B6
:1014A00084F842006563002070BD000070B586B00E
:1014B000064614216846FEF7E0FF2049306888425E
:1014C00039D11F480025016841F48021016000687E
:1014D00000F4802005901A481038016841F004019A
:1014E00001600068694600F0040005904FF4406018
:1014F00000900220CDE9010503200390072004900D
:101500001048FFF7F7F9114C0F4820604FF00060CA
:10151000C4E901054014C4E9035080106561C4E9C1
:101520000650256220466562FFF742F908B1FFF7D1
:101530006CF8F463A66306B070BD0000004800407C
:101540004038024000080240286002402C0300207E
:1015500090F84230202B01D00220704721B11AB1FF
:101560000023036300F090BA012070477047704772
:10157000FEE70000094808B5016841F40011016068
:101580000068002200F40010009005210C20FFF7F5
:101590004DFBBDE808400C20FFF73ABB3038024055
:1015A00000B587B01C2206496846FEF734FF0021CB
:1015B000684600F028FB0349086007B000BD000042
:1015C000B82500080000002070B586B014216846D8
:1015D000FEF753FF16480024016841F00101016045
:1015E000016801F001010591016841F00401016009
:1015F000016801F004010591016841F0800101607A
:1016000000680C4E00F080004FF4E0550590002279
:1016100029463046FFF766FA01200095CDE901041E
:10162000694630460394FFF765F906B070BD0000C7
:1016300030380240001C02400D4810B50B490160D3
:101640000C49416000214FF480628160C0E90312BF
:101650000C22C0E90521C161FFF7F5FE002803D087
:10166000BDE81040FEF7D1BF10BD000000480040AB
:10167000E4020020A0860100FEE7FEE70988C1F32E
:101680000A0101807047000010B5502080F31188D6
:10169000BFF34F8FBFF36F8F00F0C0FE18B1044946
:1016A0004FF080500860002080F3118810BD0000CA
:1016B00004ED00E010B592B030216846FEF7DDFE83
:1016C00014210CA8FEF7D9FE17480024016841F048
:1016D00080510160006800F080501190134801684B
:1016E00041F4804101600068069400F4804011904C
:1016F0000220009001200390102004906846FFF71C
:10170000D3FB08B172B6FEE70F20CDE90C040E94AE
:101710000F9400210CA81094FFF7BAFA002801D00A
:1017200072B6FEE712B010BD4038024000700040B3
:101730000248016841F470010160704788ED00E0E3
:101740000148FFF7D8BD00008C030020F0B5026807
:10175000294C2A4D2A4E2B4F2B4B4FF0804CA04248
:1017600009D0604507D0A84205D0B04203D0B842A6
:1017700001D0984204D122F0700E4A6842EA0E026B
:10178000A0421BD0604519D0A84217D0B04215D056
:10179000B84213D0984211D01C4DA8420ED01C4D17
:1017A000A8420BD01B4DA84208D01B4DA84205D023
:1017B0001A4DA84202D01A4DA84203D122F4407516
:1017C000CA682A434D6922F080022A4302608A686F
:1017D000C2620A688262A04201D0984201D10969BE
:1017E0000163012141610169C90703D0016921F049
:1017F00001010161F0BD0000000001400004004053
:1018000000080040000C004000040140004001407E
:10181000004401400048014000180040001C004006
:101820000020004070B5846B2068406994F8411036
:10183000C0F3C0100025212904D118B1E584204649
:1018400000F08EF82068406994F84210C0F38010D0
:10185000222904D118B1E585204600F05AF8606CC1
:1018600040F0100060642046FFF7ECFD70BD10B53D
:101870000146806B096809684FF00002C9052ED443
:10188000C28501680C3151E8003F23F4807341E8C0
:101890000034002CF5D10168143151E8003F23F0E9
:1018A000010341E80034002CF5D10168143151E8FE
:1018B000003F23F0400341E80034002CF5D1202103
:1018C00080F84210016B012909D101680C3151E8FF
:1018D000003F23F0100341E80034002CF5D14263AF
:1018E000016B012902D0FFF741FE10BD818DFFF78A
:1018F000A8FD10BD10B5806B01214163016B01296A
:1019000002D0FFF734FE10BD818D4908FFF799FD25
:1019100010BD01680C3151E8002F22F4907241E8AB
:101920000023002BF5D10168143151E8002F22F07B
:10193000010241E80023002BF5D1016B012909D1F7
:1019400001680C3151E8002F22F0100241E8002319
:10195000002BF5D1202180F842100021016370474F
:1019600001680C3151E8002F22F0C00241E8002349
:10197000002BF5D1202180F84110704770B5044646
:1019800000680169E26821F4405111430161216955
:10199000A068E26908436169114308432168CA6885
:1019A00049F20C639A430243CA6020684169A26904
:1019B00021F440711143416131492068884202D0CD
:1019C0003049884202D1FFF72DFA01E0FFF71AFAF9
:1019D000E2690023192164253226B2F5004F6268BE
:1019E00028D0A0FB0101930F9200FEF79DFC014659
:1019F000B0FBF5F06FF01802504301EB800006EBEE
:101A00000010B0FBF5F000F0F002B1FBF5F002EBD6
:101A10000012B1FBF5F06FF01803584301EB8000A2
:101A200006EB0010B0FBF5F000F00F002168104449
:101A3000886070BDA0FB010192185B41FEF774FC49
:101A40000146B0FBF5F00201B1FBF5F06FF01803B1
:101A5000584301EB800006EBC000B0FBF5F000F04E
:101A6000F80002EB4002B1FBF5F0584301EB8000B7
:101A700006EBC000B0FBF5F000F00700D6E7000071
:101A8000001001400014014038B58162044682858F
:101A9000002013466064222284F84220E56B1B4A32
:101AA000EA63E56B1A4A2A64E56B1A4AEA64E26B58
:101AB00010650A462168E06B091DFEF7E3FE206809
:101AC000016840680090206948B120680C3050E8F7
:101AD000001F41F4807140E80012002AF5D120680F
:101AE000143050E8001F41F0010140E80012002AC4
:101AF000F5D12068143050E8001F41F0400140E863
:101B00000012002AF5D1002038BD00006F1800082F
:101B1000F518000825180008FEE70907090E002837
:101B200004DB00F1E02080F80014704700F00F00A3
:101B300000F1E02080F8141D704700001F4C1E4D7E
:101B40004FF48066E7144FF48058288801280ED19E
:101B5000012231462046FEF7C5FF002239462046C5
:101B6000FEF7C0FF002241462046FEF7BBFF288853
:101B700014280ED1002231462046FEF7B3FF012281
:101B800039462046FEF7AEFF002241462046FEF7CA
:101B9000A9FF28881E28D8D1002231462046FEF70A
:101BA000A1FF002239462046FEF79CFF0122414654
:101BB0002046FEF797FFC8E7C4400020001C024003
:101BC000FEF7A4FFFFF776FDFFF7FEFCFFF7D2FC60
:101BD000FFF732FD122204490448FFF7B9FCFFF772
:101BE000DFFC00F00BF8FEE77C000020E4020020A0
:101BF00001460020842900D0C81C704710B500F0B1
:101C0000CFFA002010BD7FB50D4604464169B0F9FA
:101C1000080081B1A16971B1FFF7EAFFD4E90512AB
:101C20008DE80700D4E900102B46226900F0CBFBB9
:101C3000039004B070BDFFF7DBFF03A9CDE90001FD
:101C4000208A2B4682B2D4E9001000F08FFB0128D5
:101C500001D00020EDE70398EBE700002DE9F0410B
:101C6000054600F025FA2E4CA068401CA0602068B4
:101C70002C4F10B1606940B32DE02560A0680128A9
:101C800029D1002606EB860007EB800000F0F6F96C
:101C9000761C072EF6D323488C3000F0EFF921484C
:101CA000A03000F0EBF91F48B43000F0E7F91D4810
:101CB000C83000F0E3F91B48DC3000F0DFF91948C8
:101CC0008C3060631430A06305E02068E96AC06A64
:101CD000884200D82560606A401C6062E96A012081
:101CE000226988401043206101EB810007EB8000EE
:101CF000291D00F0D1F900F0FBF9606900280CD033
:101D00002068E96AC06A884207D207494FF08050CC
:101D10000860BFF34F8FBFF36F8FBDE8F081000005
:101D200014000020D403002004ED00E010B50446A8
:101D300090F8510058B101280CD002280FD0502043
:101D400080F31188BFF34F8FBFF36F8FFEE7206BD7
:101D500000F0E2F92046BDE8104000F0DDB910BD0A
:101D600010484FF47051420706D0C01D0D4920F0B5
:101D70000700411AC1F570510B4A00230144C2E922
:101D800000030839183A21F0070111604B600B601D
:101D90000B1AC0E9001393604FF00040536050618C
:101DA00070470000C404002068000020144E154C49
:101DB000A6F1C8074FF08058DFF84C9012E000BF42
:101DC00000F076F9F068C568281D00F039F9A068C0
:101DD000401EA0606068401E606000F089F92846DF
:101DE000FFF7A4FF60680028EAD138680128F9D914
:101DF000C9F80080BFF34F8FBFF36F8FF2E7000089
:101E00009C0400201400002004ED00E02DE9F047C0
:101E10009A46DDE9098481466FF00303206B03EBEA
:101E200082021044089E20F00707780707D0502050
:101E300080F31188BFF34F8FBFF36F8FFEE700254C
:101E400061B1002023180A5C83F834200A5C12B1C7
:101E5000401C1028F6D384F8435001E084F8345035
:101E6000072E00D30626E662C4E91165201D00F0A6
:101E700010F904F1180000F00CF92461C6F1070014
:101E80006462A061E56484F8505052464946384681
:101E900000F0C0F82060B8F1000F01D0C8F8004091
:101EA000BDE8F08730B5114900E011460A6882426A
:101EB000FBD34B685C18844203D1406818444860E7
:101EC000084643681C18944209D1084C183C246801
:101ED000A24209D052681A4442600A68126802603D
:101EE000814200D0086030BD0460F9E7680000203E
:101EF0000648416B096829B1416BC968C9684968DE
:101F0000816270474FF0FF31FAE7000014000020B3
:101F100008484068401C4FF0500080F3118804D0FE
:101F2000BFF34F8FBFF36F8FFEE7BFF34F8FBFF34A
:101F30006F8FFEE7700000202DE9F0410546002775
:101F400000F064F9324E306808B9FFF709FF706994
:101F500005424ED1C5B3083568070ED005F007001D
:101F6000C0F108000544680707D0502080F31188AD
:101F7000BFF34F8FBFF36F8FFEE72DB370688542BD
:101F800037D82348183001460C6801E020460C463B
:101F90006168A94202D221680029F7D131688C42D8
:101FA00027D007682168016060680837411B102945
:101FB0000FD96019420708D0502080F31188BFF371
:101FC0004F8FBFF36F8FFEE713E041606560FFF74F
:101FD00069FF61687068401A7060B268904200D210
:101FE000B060706901430020C4E90001F068401C42
:101FF000F06000F079FA780707D0502080F311885C
:10200000BFF34F8FBFF36F8FFEE73846BDE8F08117
:102010005000002010B5031F4FF080741C601B1F80
:1020200021F001011960191F044B0B6014390A607B
:10203000091F6FF0020244380A6010BD111F00082A
:10204000D0E9013201699A60D0E901235A604A68F7
:10205000824201D182684A60002202610868401E03
:102060000860086870470000034B036003F15400E8
:1020700008608020106070479000002000F1080187
:102080004FF0FF32C0E90112C1600161002101601F
:10209000704700210161704742684A6093688B6015
:1020A00093685960916008610168491C016070473C
:1020B000502080F31188BFF34F8FBFF36F8F0A4911
:1020C0004868401C486001280CD10848006810F09E
:1020D000FF0F07D0502080F31188BFF34F8FBFF35D
:1020E0006F8FFEE7704700007000002004ED00E0F5
:1020F0000849486828B1401E486001D180F3118822
:102100007047502080F31188BFF34F8FBFF36F8F5C
:10211000FEE700007000002070B500282AD0164DA0
:10212000A0F1080460686969084207D1502080F373
:102130001188BFF34F8FBFF36F8FFEE722683AB16C
:10214000502080F31188BFF34F8FBFF36F8FFEE7EE
:102150008843606000F05AF8606869680844686005
:102160002046FFF79FFE2869401C2861BDE87040AB
:1021700000F0BAB970BD0000500000204FF0E02020
:1021800000210161816105494FF47A720968B1FB50
:10219000F2F1491E416107210161704710000020E2
:1021A00010B586B00024039405AA04A903A80494DA
:1021B000FFF75AFFDDE903010094CDE90110002388
:1021C0000EA11048059A00F0FEF80F490028C862D9
:1021D00011D0502080F31188BFF34F8FBFF36F8F62
:1021E0004FF0FF30886201204861CC6006B0BDE846
:1021F000104000F041B806B010BD000049444C4505
:1022000000000000AD1D0008140000200248016B12
:10221000491C016370470000140000201448016B42
:1022200011B10121C16170470021C1610169B1FA99
:1022300081F1C1F11F0101EB81020E4951F82230F9
:102240006BB101EB820101F108034A6852684A60F0
:102250009A4201D152684A60D168016070475020AB
:1022600080F31188BFF34F8FBFF36F8FFEE700003D
:1022700014000020D40300201CB537480168374AF9
:10228000914207D1502080F31188BFF34F8FBFF3E5
:102290006F8FFEE700683149491E884207D1502000
:1022A00080F31188BFF34F8FBFF36F8FFEE72C4988
:1022B00008780190FF20087008788DF800009DF8DC
:1022C00000009DF8002000F0F000904207D0502060
:1022D00080F31188BFF34F8FBFF36F8FFEE79DF838
:1022E0000000204C00F0500020700720A06005E0A6
:1022F0009DF8002052008DF80020401E9DF800201F
:102300001206F5D4A060032807D0502080F311886E
:10231000BFF34F8FBFF36F8FFEE74FF44070A060A5
:10232000019808700C482030016841F47001016088
:10233000016841F070410160FFF720FF00206060FC
:10234000FDF796FF0848016841F040410160FDF744
:102350007BFF00201CBD000000ED00E071C20F41BA
:1023600000E400E07000002034EF00E02DE9FF5FA2
:102370008346DDE90E87994616468A469000FFF7A8
:10238000DBFD05001CD05420FFF7D6FD040014D05F
:102390000020256384F85100CDE90240CDE9008793
:1023A0004B46324651465846FFF730FD2046FFF770
:1023B00055FC012004B0BDE8F09F2846FFF7ACFEB5
:1023C0004FF0FF30F6E7F0B585B0DDE90B640A9D0C
:1023D000A6B1DCB1542700972663022684F8516029
:1023E000002604AFCDE90246CDE90057FFF70EFD08
:1023F0002046FFF733FC049805B0F0BD502080F371
:102400001188BFF34F8FBFF36F8FFEE7502080F32B
:102410001188BFF34F8FBFF36F8FFEE72DE9F041B7
:102420002F4C0026206B28B1A069401CA0613046CB
:10243000BDE8F081E5686D1CE56013D1606B006854
:1024400038B1502080F31188BFF34F8FBFF36F8FE7
:10245000FEE7606BA16B6163A063206A401C206291
:10246000FFF746FDA06ADFF87C80854209D3606BE8
:102470000068A0B1606BC068C7687868854211D2F7
:10248000A0622068C06A00EB800158F82100012892
:1024900000D90126E0690028C9D00126C7E74FF01E
:1024A000FF30EDE7381DFFF7CBFDB86A18B107F133
:1024B0001800FFF7C5FDF96A012022698840104322
:1024C000206101EB810108EB8100391DFFF7E4FD7C
:1024D000F86A2168C96A8842C9D30126C7E70000A3
:1024E00014000020D40300202DE9F0472C4D0024D7
:1024F0002746286B38B1FFF7DBFD286B401E2863A9
:10250000286B40B146E0502080F31188BFF34F8F15
:10251000BFF36F8FFEE7A968224E0120D1B3A6F169
:10252000B40980463068E8B1F068C46804F1180066
:10253000FFF786FD201DFFF783FDE06A2A6908FA90
:1025400000F11143296100EB800109EB8100211D9D
:10255000FFF7A2FDE06A2968C96A8842E2D3C5F89C
:102560001C80DFE70CB1FFF7C3FCAC6944B1464601
:10257000FFF754FF00B1EE61641EF9D10020A8619D
:10258000E86938B10849012738070860BFF34F8F61
:10259000BFF36F8FFFF7ACFD3846BDE8F087000052
:1025A000140000208804002004ED00E04FF040708B
:1025B000E1EE100A70470000F42500083D1B0008FA
:1025C000000000000000000000010000000000000A
:1025D00000000000000610160006101600000000A3
:1025E00000000000010203040607080900000000C3
:1025F000010203046C65645F7461736B000000008A
:1026000020260008000000207C000000C401000813
:102610009C2600087C000020BC460000E001000869
:102620000000000001000000100000000000000099
:102630000024F40000000000000000000000000082
:10264000000000000000000000000000000000008A
:10265000000000000000000000000000000000007A
:10266000000000000000000000000000000000006A
:10267000000000000000000000000000000000005A
:10268000000000000000000000000000000000004A
:0C26900000000000AAAAAAAA0000000096
:040000050800018965
:00000001FF
