:020000040800F2
:1000000040470020E90200087D1B0008F1190008A4
:10001000311B0008430500082523000800000000EC
:10002000000000000000000000000000290200089D
:100030008B0600080000000085020008F51B000880
:100040000303000803030008030300080303000878
:100050000303000803030008030300080303000868
:100060000303000803030008030300080303000858
:100070004905000803030008030300080303000800
:100080000303000803030008030300080303000838
:100090000303000803030008030300080303000828
:1000A000030300087D1D0008030300080303000884
:1000B0000303000803030008030300080303000808
:1000C00003030008030300080303000803030008F8
:1000D00003030008030300080303000803030008E8
:1000E00003030008030300080303000803030008D8
:1000F00003030008030300080303000803030008C8
:1001000003030008030300080303000803030008B7
:1001100003030008030300080303000803030008A7
:100120000303000803030008030300080303000897
:100130000303000803030008030300080303000887
:100140000303000803030008030300080303000877
:100150000303000803030008030300080303000867
:100160000303000803030008030300080303000857
:100170000303000803030008030300080000000055
:10018000030300080303000800F002F800F03CF845
:100190000AA090E8000C82448344AAF10107DA45E2
:1001A00001D100F031F8AFF2090EBAE80F0013F0F8
:1001B000010F18BFFB1A43F001031847F02F00008E
:1001C00010300000103A24BF78C878C1FAD852071E
:1001D00024BF30C830C144BF04680C6070470000C1
:1001E0000023002400250026103A28BF78C1FBD840
:1001F000520728BF30C148BF0B6070471FB502F0DF
:10020000AFFF1FBD10B510BD00F061F91146FFF73B
:10021000F5FF02F0A5F800F07FF903B4FFF7F2FF55
:1002200003BC00F087F900002C4B19680868B0E89F
:10023000F04F80F30988BFF36F8F4FF0000080F319
:10024000118870470000000008480068006880F3CB
:1002500008884FF0000080F3148862B661B6BFF3DF
:100260004F8FBFF36F8F00DF00BF00BF08ED00E0CE
:10027000DFF80C00016841F470010160704700BFB5
:1002800088ED00E0EFF30980BFF36F8F134B1A681E
:100290001EF0100F08BF20ED108A20E9F04F10600B
:1002A00009B44FF0500080F31188BFF34F8FBFF3B4
:1002B0006F8F02F0A5FC4FF0000080F3118809BC9D
:1002C00019680868B0E8F04F1EF0100F08BFB0ECD6
:1002D000108A80F30988BFF36F8F704714000020E5
:1002E000EFF3058070470000094880470948004740
:1002F000FEE7FEE7FEE7FEE7FEE7FEE7FEE7FEE7D6
:10030000FEE7FEE704480549054A064B7047000032
:10031000E11C0008890100084041002040470020FE
:10032000404300204043002053EA020C00F0698063
:100330002DE9F04B4FF00006002B1FBFB3FA83F5F9
:1003400003FA05F424FA05F65E4012BF1643B2FA2A
:1003500082F502FA05F4C5F120051EBF22FA05FC5C
:1003600044EA0C04203556EA044C4FEA144418BF02
:10037000641C4FF000084FF00009904271EB030C31
:1003800039D3002919BFB1FA81F701FA07F6B0FA9B
:1003900080F700FA07F6C7F120071EBF20FA07FC16
:1003A00046EA0C062037B6FBF4FCA7EB0507103F26
:1003B00007F01F0BCBF120060CFA0BFB2CFA06F60C
:1003C00044BFB3460026202FA4BF5E464FF0000B6B
:1003D0005BEA060C08BF4FF0010B19EB0B09ABFBF6
:1003E000027C48EB0608C01B06FB02CC0BFB03CCCF
:1003F00071EB0C01C1E70B46024641464846BDE899
:10040000F08B13B54FF000004FF00001AFF3008008
:10041000BDE81C40704710B5203AC0F00B80B1E831
:100420001850203AA0E81850B1E81850A0E8185029
:10043000BFF4F5AF5FEA027C24BFB1E81850A0E832
:10044000185044BF18C918C0BDE810405FEA827C4C
:1004500024BF51F8043B40F8043B08BF7047D20763
:1004600028BF31F8023B48BF11F8012B28BF20F804
:10047000023B48BF00F8012B70474FF0000200B567
:10048000134694469646203922BFA0E80C50A0E8B7
:100490000C50B1F12001BFF4F7AF090728BFA0E865
:1004A0000C5048BF0CC05DF804EB890028BF40F831
:1004B000042B08BF704748BF20F8022B11F0804F73
:1004C00018BF00F8012B704770477047704775469A
:1004D00000F02CF8AE4605006946534620F00700B0
:1004E000854618B020B5FFF70DFFBDE820404FF05E
:1004F00000064FF000074FF000084FF0000B21F00E
:100500000701AC46ACE8C009ACE8C009ACE8C009DA
:10051000ACE8C0098D46704710B50446AFF30080C3
:100520002046BDE81040FFF778BE00000048704745
:10053000DC40002001491820ABBEFEE72600020087
:10054000704700BFFEE7000010B50849084801F0F9
:1005500017FB0649074801F0EDFA0449064801F087
:1005600049FA064800F096F810BD00008800002007
:10057000D04000207C0000208400002038030020B0
:100580000146087810381823B0FBF3F20848805C65
:10059000C865032A05D908686FF30900001D88653E
:1005A00003E008686FF309008865886D70470000F4
:1005B00088310008014600208A6A8B69CBB932B1C4
:1005C000012A0DD0022A03D0032A10D10EE000BF69
:1005D000CB6A03F08073B3F1807F00D1012007E084
:1005E000CB6AB3F1C07F00D1012001E000E000BF81
:1005F00034E08B69B3F5005F1AD132B1012A07D01C
:10060000022A03D0032A11D10AE000BF01200EE024
:10061000CB6A03F08073B3F1807F00D1012006E044
:10062000CB6AB3F1C07F00D1012000E000BF15E02C
:1006300032B1012A05D0022A04D0032A0CD103E0EA
:1006400000BF00BF012008E0CB6A03F08073B3F164
:10065000807F00D1012000E000BF00BF704730B5AF
:100660000468246824F4802405682C6004686360AE
:100670008468402C04D10468A2600468E16003E04F
:100680000468A1600468E26030BD704772B600BFC4
:10069000FEE70000F8B50446002000908C48006892
:1006A0004FF41651B0FBF1F7A56D2E6894F85C106D
:1006B00008208840304098B12068006800F00400AD
:1006C00070B12068006820F004002168086094F888
:1006D0005C1008208840A860606D40F001006065F3
:1006E00094F85C1001208840304068B1206840696F
:1006F00000F0800040B194F85C1001208840A860B0
:10070000606D40F00200606594F85C100420884041
:10071000304068B12068006800F0020040B194F8F1
:100720005C1004208840A860606D40F004006065A3
:1007300094F85C1010208840304078B3206800683E
:1007400000F0080050B394F85C1010208840A860B6
:100750002068006800F4802080B12068006800F400
:10076000002028B9206CC8B12046216C884715E0CC
:10077000A06C98B12046A16C88470FE02068006803
:1007800000F4807028B92068006820F00800216813
:100790000860206C10B12046216C884794F85C10EA
:1007A000202088403040002865D02068006800F094
:1007B000100000285FD094F85C1020208840A860CA
:1007C00094F83500052828D12068006820F016002C
:1007D000216808602068406920F080002168486135
:1007E000206C08B9A06C28B12068006820F00800CF
:1007F0002168086094F85C103F208840A8600120C0
:1008000084F8350000BF002084F8340000BF206D5C
:1008100010B12046216D8847F8BD2068006800F4BB
:10082000802080B12068006800F4002028B9606C46
:1008300010B12046616C88471DE0E06BD8B12046BE
:10084000E16B884717E02068006800F4807068B9A1
:100850002068006820F0100021680860012084F8FA
:10086000350000BF002084F8340000BFE06B10B1F9
:100870002046E16B8847606D38B3606D00F0010081
:10088000F0B1052084F835002068006820F00100F0
:100890002168086000BF0098401C0090B84200D951
:1008A00005E02068006800F001000028F3D100BFD7
:1008B000012084F8350000BF002084F8340000BF18
:1008C000E06C10B12046E16C884700BFA4E700004F
:1008D000100000202DE9F0410446002500F0BAF98F
:1008E000074614B90120BDE8F081606A00B100BF7D
:1008F000022084F8350000BF002084F8340000BFD7
:100900002068006820F00100216808600AE000F01B
:10091000A1F9C01B052805D920206065032084F8B3
:100920003500E0E72068006800F001000028EED103
:100930002068056821480540D4E901010843E168C1
:1009400008432169084361690843A1690843E169D3
:100950000843216A08430543606A042803D1D4E9A7
:100960000B0108430543206805602068456925F0B0
:100970000705606A0543606A04280DD1A06A054333
:10098000E06A48B12046FFF715FE28B140206065B7
:10099000012084F83500A6E7206845612046FFF76E
:1009A000EFFD064694F85C103F208840B0600020C0
:1009B0006065012084F83500002094E73F8010F046
:1009C0002DE9F04704460D4616461F464FF0000835
:1009D000D4F8589000BF94F83400012802D10220C6
:1009E000BDE8F087012084F8340000BF94F835009A
:1009F000012825D1022084F83500002060653B469F
:100A0000324629462046FFF72AFE94F85C103F2024
:100A10008840C9F808002068006840F01600216886
:100A20000860206C28B12068006840F00800216848
:100A300008602068006840F001002168086006E056
:100A400000BF002084F8340000BF4FF00208404689
:100A5000C6E70000F8B502460B460025002400203A
:100A60000021D6E0012606FA01F51E6806EA050413
:100A7000AC4274D11E7906F00306012E04D01E7913
:100A800006F00306022E13D190684F000326BE40E5
:100A9000B0434F00DE68BE4030439060506801268E
:100AA0008E40B0431E79C6F300168E40304350602E
:100AB0001E7906F00306032E09D0D0684F000326E6
:100AC000BE40B0434F009E68BE403043D0601E79A8
:100AD00006F00306022E13D1CF0802F1200656F8C5
:100AE00027004E07F70E0F26BE40B0434F07FF0EFC
:100AF0001E69BE403043CF0802F1200646F82700A9
:100B000010684F000326BE40B0431E7906F003066E
:100B10004F00BE40304310605E6806F44036002E41
:100B200076D000BF002600963C4E366846F48046DC
:100B30003A4F3E603E46366806F48046009600BF57
:100B400000BF374E8F0856F827008E07370F0F2645
:100B5000BE40B043334EB24202D1002624E057E0FB
:100B6000314EB24201D101261EE0304EB24201D1D7
:100B7000022619E02E4EB24201D1032614E02D4E7A
:100B8000B24201D104260FE02B4EB24201D105261C
:100B90000AE02A4EB24201D1062605E0284EB242B2
:100BA00001D1072600E008268F073F0FBE403043E3
:100BB0001B4E8F0846F82700224E3068A0435E681F
:100BC00006F4801606B120431E4E3060361D306894
:100BD000A0435E6806F4001606B12043194E361D88
:100BE0003060184E361F3068A0435E6806F4003649
:100BF00006B12043134E361F3060361F3068A043C5
:100C00005E6806F4803606B120430E4E083E306022
:100C1000491C1029FFF426AFF8BD000044380240FB
:100C20000838014000000240000402400008024071
:100C3000000C024000100240001402400018024064
:100C4000001C0240083C01400AB1816101E00B0434
:100C5000836170470148006870470000040000206D
:100C6000034800680349097808440149086070474F
:100C7000040000200C00002010B50D48006840F46E
:100C800000700B4908600846006840F48060086006
:100C90000846006840F480700860032000F0D6F831
:100CA0000F2000F007F800F055F8002010BD0000FC
:100CB000003C0240F0B587B004460026002700BF84
:100CC000002000901E48006840F001001C490860A8
:100CD0000846006800F00100009000BF00BF01A9B5
:100CE00002A800F089F900F0BFF946001548B6FBEC
:100CF000F0F0471E14481549086040F2E7311348E8
:100D0000C1604760002101618160816100F064FC85
:100D1000054695B90D4800F093FC05466DB91920BC
:100D200000F042F8102C07D200222146192000F0D2
:100D30004FF80748046000E00125284607B0F0BDE1
:100D40004438024040420F00000001409803002058
:100D50000800002008B500BF00200090114800687E
:100D600040F480400F4908600846006800F4804065
:100D7000009000BF00BF00BF00200090081F006867
:100D800040F08050091F08600846006800F080505D
:100D9000009000BF00BF00220F21901E00F018F845
:100DA00008BD0000443802400146084600280DDB1B
:100DB00000BF00BF00F01F0301229A4043099B00BF
:100DC00003F1E023C3F8002100BF00BF00BF70475C
:100DD0002DE9F05F80460D461646002701F0A4FA83
:100DE000074639462A46334601F00700C0F1070A94
:100DF000BAF1040F02D94FF0040A01E0C0F1070A6A
:100E0000D14600F1040ABAF1070F02D24FF0000AEE
:100E100001E0A0F1030AD4464FF0010A0AFA09FAE8
:100E2000AAF1010A0AEA020A0AFA0CFA4FF0010BC7
:100E30000BFA0CFBABF1010B0BEA030B4AEA0B04B8
:100E40002146404601F078FABDE8F09F00BF00F06F
:100E50000702064B19684FF6FF031940044B0B437A
:100E600043EA0221014B196000BF70470CED00E01E
:100E70000000FA0570B504460D460CB9012070BD9E
:100E80005848006800F00700A84209D255490D7083
:100E90000846006800F00700A84201D00120EEE7F4
:100EA000207800F0020002281DD1207800F0040014
:100EB000042805D14C48006840F4E0504A490860D5
:100EC000207800F00800082805D14748006840F461
:100ED0006040454908604448006820F0F000A1687F
:100EE000084341490860207800F00100A8B3606819
:100EF000012807D13C4808380068C0F34040B8B921
:100F00000120BCE76068022802D06068032807D18E
:100F1000354808380068C0F3406048B90120AEE7A2
:100F2000314808380068C0F3400008B90120A6E73E
:100F30002D48006820F00300616808432A490860D2
:100F4000FFF788FE064609E0FFF784FE801B41F2AA
:100F50008831884202D9032091E707E022480068DF
:100F600000F00C006168B0EB810FEDD11D48006806
:100F700000F00700A84209D91A490D700846006818
:100F800000F00700A84201D0012078E7207800F0A7
:100F90000400042807D11448006820F4E050E168F8
:100FA000084311490860207800F00800082808D19B
:100FB0000D48006820F46040216940EAC1000A49F8
:100FC000086000F061F808490968C1F30311074A95
:100FD000515CC8400649086006480068FFF76AFE91
:100FE00000204CE7003C02400838024090310008E5
:100FF00010000020080000200F2202600D4A126835
:1010000002F0030242600B4A126802F0F0028260B2
:10101000084A126802F4E052C260064A126802F4FA
:101020006042D2080261044A126802F007020A60B4
:101030007047000008380240003C02400148006848
:10104000704700001000002000B5FFF7F7FF0449CB
:101050000968C1F38221034A515CC84000BD000009
:1010600008380240A031000800B5FFF7E7FF044947
:101070000968C1F34231034A515CC84000BD000019
:1010800008380240A03100082DE9F047002400256F
:101090000026A1462548006800F00C0020B1042875
:1010A00005D008283AD105E0DFF8849039E0DFF870
:1010B000849036E01D48001F006800F03F041B4884
:1010C000001F006800F4800078B11A481749091F12
:1010D0000968C1F38811A0FB017001462246002374
:1010E0003846FFF721F905460EE011480F49091F60
:1010F0000968C1F38811A0FB017001462246002354
:101100003846FFF711F905460848001F0068C0F38C
:101110000140401C4600B5FBF6F902E0DFF81090F4
:1011200000BF00BF4846BDE8F08700000838024015
:101130000024F40040787D01F8B504460CB9012084
:10114000F8BD207800F00100002874D0F94800684C
:1011500000F00C0004280DD0F648006800F00C00E8
:10116000082813D1F348001F006800F48000B0F590
:10117000800F0BD1EF4808380068C0F340400028CA
:1011800059D06068002856D10120D9E700BF6068B7
:10119000B0F5803F08D1E7480838006840F4803057
:1011A000E449083908601EE06068B0F5A02F0DD151
:1011B000E0480838006840F48020DE4908390860BB
:1011C0000846006840F4803008600CE0D9480838D0
:1011D000006820F48030D749083908600846006864
:1011E00020F48020086000BF606890B1FFF732FDF6
:1011F000054606E0FFF72EFD401B642801D90320B9
:101200009EE7CC4808380068C0F340400028F1D081
:1012100011E0FFF71FFD054606E0FFF71BFD401B31
:10122000642801D903208BE7C24808380068C0F35E
:1012300040400028F1D1207800F0020002285FD160
:10124000BC48006800F00C0058B1BA48006800F0D3
:101250000C0008281CD1B748001F006800F480006B
:10126000B0B9B44808380068C0F3400020B1E06865
:10127000012801D0012063E7AE480838006820F05B
:10128000F800216940EAC100AA490839086037E03E
:10129000E06800B30120A8490860FFF7DBFC0546C1
:1012A00006E0FFF7D7FC401B022801D9032047E7DF
:1012B000A04808380068C0F340000028F1D09D48DD
:1012C0000838006820F0F800216940EAC100994917
:1012D0000839086014E0002097490860FFF7BAFC5D
:1012E000054606E0FFF7B6FC401B022801D90320A3
:1012F00026E7904808380068C0F340000028F1D184
:10130000207800F0080008282CD16069A8B10120DD
:101310008A490860FFF79EFC054606E0FFF79AFC45
:10132000401B022801D903200AE782486C3000687C
:10133000C0F340000028F1D014E000207F4908608D
:10134000FFF788FC054606E0FFF784FC401B0228F7
:1013500001D90320F4E677486C300068C0F3400000
:101360000028F1D1207800F00400042870D1002773
:1013700070483830006800F0805090B900BF0020FD
:1013800000906C483830006840F08050694938312E
:1013900008600846006800F08050009000BF00BF61
:1013A00001276748006800F48070B0B9644800689D
:1013B00040F4807062490860FFF74CFC054606E087
:1013C000FFF748FC401B022801D90320B8E65C481F
:1013D000006800F480700028F2D000BFA0680128E7
:1013E00008D154486830006840F001005149683124
:1013F00008601DE0A06805280DD14E4868300068DF
:1014000040F004004B49683108600846006840F02D
:10141000010008600CE047486830006820F00100D7
:101420004449683108600846006820F004000860FC
:1014300000BFA068A8B1FFF70DFC054609E0FFF763
:1014400009FC401B41F28831884202D9032077E62B
:1014500026E0384868300068C0F340000028EED02D
:1014600013E0FFF7F7FB054608E0FFF7F3FB401B2F
:1014700041F28831884201D9032061E62D48683065
:101480000068C0F340000028EFD1012F07D12948A0
:101490003830006820F0805026493831086000BF9D
:1014A000A069002845D02348006800F00C000828F7
:1014B0005DD0A069022845D100201F490866FFF7CA
:1014C000C9FB054606E0FFF7C5FB401B022801D912
:1014D000032035E6174808380068C0F3406000284C
:1014E000F1D1D4E907010843616A40EA8111012280
:1014F000A06AC2EB500041EA00412C20005D41EAA5
:1015000000600C49091F086001200B490866FFF7BD
:10151000A1FB054606E0FFF79DFB401B022801D911
:1015200003200DE6034808380068C0F34060002837
:10153000F1D049E00838024000004742800E47429F
:1015400000700040002021490866FFF783FB054634
:1015500006E0FFF77FFB401B022801D90320EFE5DF
:101560001B480068C0F340600028F2D12CE0A0695D
:10157000012800D1E4E51648001D0668A06901288D
:1015800020D006F48001E06981421BD106F03F01C2
:10159000206A814216D147F6C0703040616AB0EBD4
:1015A000811F0FD106F440310122A06AC2EB500026
:1015B000B1EB004F06D106F070612C20005DB1EB5D
:1015C000006F01D00120BBE50020B9E500004742D3
:1015D000003802407047704710B504460CB901202E
:1015E00010BD94F83D0028B9002084F83C00204646
:1015F00000F025F8022084F83D00211D206800F04D
:10160000C5FB012084F8460000BF84F83E0001219C
:101610003F200155402001554120015500BF00BF2A
:10162000012084F842004320015544200155452003
:10163000015500BF012084F83D000020D0E770472D
:10164000014691F83D00012801D001207047022099
:1016500081F83D000868C06840F001000B68D86060
:101660001A4B086898421BD00868B0F1804F17D019
:10167000174B0868984213D0164B086898420FD051
:10168000154B086898420BD0144B0868984207D055
:10169000134B0868984203D0124B086898420CD14B
:1016A0000868806800F00702062A0CD00868006805
:1016B00040F001000B68186005E00868006840F021
:1016C00001000B6818600020C0E700000000014026
:1016D0000004004000080040000C004000040140ED
:1016E0000040014000180040704770B50446206873
:1016F000C5682068066906F00200022819D105F0C5
:101700000200022815D1401F2168086101202077BE
:101710002068806900F0030018B12046FFF7E4FF5D
:1017200005E0204600F097F8204600F095F80020EC
:10173000207706F00400042819D105F004000428DD
:1017400015D1C04321680861022020772068806994
:1017500000F4407018B12046FFF7C6FF05E02046B0
:1017600000F079F8204600F077F80020207706F0A6
:101770000800082819D105F00800082815D1C04331
:1017800021680861042020772068C06900F0030008
:1017900018B12046FFF7A8FF05E0204600F05BF8EF
:1017A000204600F059F80020207706F0100010289D
:1017B00019D105F01000102815D1C0432168086127
:1017C000082020772068C06900F4407018B12046D6
:1017D000FFF78AFF05E0204600F03DF8204600F0C4
:1017E0003BF80020207706F0010048B105F0010029
:1017F00030B16FF0010021680861204600F02EF83A
:1018000006F08000802809D105F08000802805D1ED
:10181000C043216808612046FFF7DCFE06F0400067
:10182000402809D105F04000402805D1C043216877
:101830000861204600F01EF806F02000202809D19B
:1018400005F02000202805D1C0432168086120460A
:10185000FFF7C1FE70BD70477047000010B5044629
:1018600003492068884201D1FFF7FAF910BD000052
:101870000000014070477047704710B504460CB92E
:10188000012010BDA06900B100E000BF94F8410044
:1018900028B9002084F84000204600F029F82420D0
:1018A00084F841002068C06820F400502168C860B6
:1018B000204600F0BDFB2068006920F490402168BC
:1018C00008612068406920F02A002168486120688A
:1018D000C06840F400502168C86000206064202087
:1018E00084F8410084F842000020606300BFC8E72C
:1018F00010B586B00446142101A8FEF7BEFD2B49A1
:101900002068884250D100BF00200090284800681D
:1019100040F48020264908600846006800F48020D2
:10192000009000BF00BF00BF00200090204810388A
:10193000006840F004001E4910390860084600683D
:1019400000F00400009000BF00BF4FF44060019021
:1019500002200290002003900320049007200590AD
:1019600001A91448FFF776F81348144908604FF0AE
:1019700000604860002111488160C1604FF48061BF
:1019800001610021416181614FF48071C1610021D9
:1019900001624162FEF79EFF08B1FEF777FE00BFCD
:1019A0000648E063846300BF06B010BD00480040F5
:1019B00040380240000802402860024038030020FE
:1019C00070B504460D46164694F8420020280BD107
:1019D00005B10EB9012070BD0020206332462946B2
:1019E000204600F03BFCF6E70220F4E77047704722
:1019F00000BFFEE78A7B02807047000008B500BF89
:101A0000002000900A48006840F40010084908606F
:101A10000846006800F40010009000BF00BF0022DC
:101A200005210C20FFF7D4F90C20FFF7BDF908BD04
:101A30003038024000B587B01C2206496846FEF7E0
:101A4000EAFC0021684600F0B1FC0349086007B0D9
:101A500000BD00006C3100080000002000B587B018
:101A6000142102A8FEF709FD00BF002001901F48C5
:101A7000006840F001001D4908600846006800F059
:101A80000100019000BF00BF00BF00200190084688
:101A9000006840F0040008600846006800F0040098
:101AA000019000BF00BF00BF002001900846006801
:101AB00040F0800008600846006800F08000019057
:101AC00000BF00BF00224FF4E0510948FFF7BCF807
:101AD0004FF4E05002900120039004900020059004
:101AE00002A90348FEF7B6FF07B000BD3038024038
:101AF000001C024010B50B480B4908600B484860B9
:101B0000002109488160C1604FF4806101610C21AE
:101B1000416100218161C161FFF7AFFE08B1FEF7AD
:101B2000B5FD10BD00480040F0020020A086010075
:101B300000BFFEE78A791AB9CA79120212B20AB155
:101B4000012200E0002202800A7A1AB94A7A1202BF
:101B500012B20AB1012200E0002242808A7A12B950
:101B6000CA7A12020AB1012200E0002282800A7BB6
:101B700052B282714A7B52B2C271704700BFFEE717
:101B80000A781AB94A78120212B20AB1012200E0A8
:101B90000022C2F3090202804A78D21012B98A7870
:101BA00052010AB1012200E00022C2F30902428080
:101BB0008A78921122B9CA7812B90A7992020AB1C6
:101BC000012200E00022C2F3090282800A79521049
:101BD00012B94A79D2010AB1012200E00022C2F30F
:101BE0000902C2804A79C2F3011202724A7992094B
:101BF0004272704710B500BF502080F31188BFF3C8
:101C00004F8FBFF36F8F00BF01F084F918B14FF011
:101C100080500449086000BF002080F3118800BF95
:101C200010BD000004ED00E000B593B0302107A81E
:101C3000FEF723FC142102A8FEF71FFC00BF0020C2
:101C400001902548006840F080502349086008460C
:101C5000006800F08050019000BF00BF00BF00206E
:101C600001901E48006840F480401C490860084606
:101C7000006800F48040019000BF00BF0220079080
:101C800001200A9010200B9002200D9000210E914F
:101C900008210F91A8211091022111910421129184
:101CA00007A8FFF749FA08B1FEF7F0FC0F200290F1
:101CB00002200390002004904FF4A05005904FF4B0
:101CC00080500690052102A8FFF7D4F808B1FEF76E
:101CD000DDFC13B000BD0000403802400070004041
:101CE0000348006840F47000014908607047000034
:101CF00088ED00E03DE01F48007A012810D1012264
:101D000081021D48FEF7A0FF00224FF400611A482F
:101D1000FEF79AFF00224FF480511748FEF794FF18
:101D20001448007A02280FD1002241021248FEF71F
:101D30008BFF0122D1021048FEF786FF00224FF4EC
:101D400080510D48FEF780FF0A48007A032810D121
:101D500000224FF480610848FEF776FF00224FF41E
:101D600000610548FEF770FF012211030248FEF7EB
:101D70006BFFC0E7D0400020001C024010B50248B5
:101D8000FFF7B3FC10BD00009803002010B50268F7
:101D90002D4B98420ED0B0F1804F0BD02B4B984278
:101DA00008D02B4B984205D02A4B984202D02A4BA0
:101DB000984203D122F070024B681A43224B98429A
:101DC00020D0B0F1804F1DD0204B98421AD0204B2C
:101DD000984217D01F4B984214D01F4B984211D0F5
:101DE0001E4B98420ED01E4B98420BD01D4B984272
:101DF00008D01D4B984205D01C4B984202D01C4B7A
:101E0000984203D122F44072CB681A4322F0800337
:101E10004C6943EA040202608B68C3620B68836208
:101E2000094B984202D00C4B984201D10B690363D5
:101E300001234361036903F001031BB1036923F02C
:101E40000103036110BD00000000014000040040D8
:101E500000080040000C0040000401400040014028
:101E6000004401400048014000180040001C0040B0
:101E70000020004070B506460025B46B206840691C
:101E8000C0F3C01594F84100212805D125B10020E8
:101E9000E084204600F0B8F820684069C0F380155F
:101EA00094F84200222805D125B10020E085204683
:101EB00000F074F8606C40F0100060642046FFF79A
:101EC000DBFC70BD70B50546AC6B2868006800F49B
:101ED0008070002842D1E08500BF00BF21680C312E
:101EE00051E8001F21F4807021680C3141E80002A4
:101EF000002AF3D100BF00BF00BF2168143151E8B0
:101F0000001F21F001002168143141E80002002A7D
:101F1000F3D100BF00BF00BF2168143151E8001F9A
:101F200021F040002168143141E80002002AF3D179
:101F300000BF202084F84200206B01280ED100BF92
:101F400000BF21680C3151E8001F21F0100021680A
:101F50000C3141E80002002AF3D100BF0020606389
:101F6000206B012804D1A18D2046FFF784FC02E0FC
:101F70002046FFF73BFD70BD70B50546AC6B0120F8
:101F80006063206B012805D1A08D41082046FFF732
:101F900072FC02E02046FFF72AFD70BD00BF00BFC3
:101FA00002680C3252E8002F22F4907102680C3261
:101FB00042E80013002BF3D100BF00BF00BF02684E
:101FC000143252E8002F22F001010268143242E874
:101FD0000013002BF3D100BF016B01290ED100BF0C
:101FE00000BF02680C3252E8002F22F01001026894
:101FF0000C3242E80013002BF3D100BF202180F8FF
:10200000421000210163704700BF00BF02680C321C
:1020100052E8002F22F0C00102680C3242E800139F
:10202000002BF3D100BF202180F841107047000041
:102030002DE9F84F04462068006920F44050E1681B
:102040000843216808612169A06808436169084361
:10205000E169084300902068C06849F20C61884338
:10206000009908432168C8602068406920F44070E6
:10207000A16908432168486176492068884203D0F5
:1020800075492068884203D1FEF7EEFF814602E0E1
:10209000FEF7DAFF8146E069B0F5004F6CD102200F
:1020A0006168A0FB015003461920A9FB007001469E
:1020B0002A463846FEF738F96421B0FBF1F04FEAC2
:1020C000001A02206168A0FB01510B461920A9FBF0
:1020D00000712A463846FEF727F9834602206168D8
:1020E000A0FB015003461920A9FB00712A4638467F
:1020F000FEF71AF96421B0FBF1F000EBC00101EB2F
:102100000010ABEB8000322101EBC0006421B0FB7A
:10211000F1F000F0F8000AEB400A02206168A0FB31
:10212000015003461920A9FB007001462A46384693
:10213000FEF7FAF8834602206168A0FB01500346CF
:102140001920A9FB00712A463846FEF7EDF86421F4
:10215000B0FBF1F000EBC00101EB0010ABEB800035
:10216000322101EBC0006421B0FBF1F000F0070068
:102170005044216888606AE004206168A0FB015037
:1021800003461920A9FB007001462A463846FEF78F
:10219000CBF8824604206168A0FB01500346192059
:1021A000A9FB007001462A463846FEF7BDF86421B7
:1021B000B0FBF1F000EBC00101EB0010AAEB8000D6
:1021C000322101EB00106421B0FBF1F000F0F00AC5
:1021D00004206168A0FB017003461920A9FB00518F
:1021E0003A462846FEF7A0F86421B0FBF1F00AEB6E
:1021F000001A04206168A0FB01510B461920A9FBBD
:1022000000712A463846FEF78FF88346042061683D
:10221000A0FB015003461920A9FB007001462A4685
:102220003846FEF781F86421B0FBF1F000EBC00105
:1022300001EB0010ABEB8000322101EB00106421B8
:10224000B0FBF1F000F00F00504421688860BDE859
:10225000F88F0000001001400014014077B581B0F4
:10226000044615460298A062A585002060642220DD
:1022700084F842002848E16BC8632848E16B086491
:102280002748E16BC8640020E16B086502AE326844
:102290002368191D2B46E06BFEF792FB00BF002060
:1022A000009020680068009020684068009000BF9F
:1022B00000BF206970B100BF00BF21680C3151E838
:1022C000001F41F4807021680C3141E80002002AAF
:1022D000F3D100BF00BF00BF2168143151E8001FD7
:1022E00041F001002168143141E80002002AF3D1D5
:1022F00000BF00BF00BF2168143151E8001F41F04A
:1023000040002168143141E80002002AF3D100BFE7
:10231000002004B070BD0000C51E0008791F000831
:10232000751E000800BFFEE702480068C0F30220E7
:10233000704700000CED00E010B5002804DB0A0730
:10234000130E054A135406E00A07140E034A00F060
:102350000F031B1FD45410BD00E400E018ED00E093
:10236000FEF78AFCFFF760FCFFF778FBFFF746FB00
:10237000FFF7C0FB122205490548FFF721FBFFF7D5
:1023800059FB00F00EF800BFFEE7000088000020B7
:10239000F002002001460020842901D0CA1C10440C
:1023A000704710B500F0CCFB002010BD7FB504468F
:1023B0000D46606998B1A06988B1B4F90800FFF7CB
:1023C000E9FF0646D4E90510CDE9006102902B46ED
:1023D0002269D4E9001000F03FFD039013E0B4F946
:1023E0000800FFF7D7FF064603A8CDE90060238A5F
:1023F0009AB22B46D4E9001000F0FCFC012802D070
:10240000002004B070BD0398FBE7000010B504463F
:1024100000F0E8FA23480068401C2249086022487E
:10242000006840B9204804600846006801280DD1C2
:1024300000F03EF90AE01D48006838B91A48006803
:10244000C06AE16A884201D81748046018480068E9
:10245000401C1749086094F82C1001208840154949
:102460000968084313490860E16A01EB8101124AD7
:1024700002EB8100211D00F0A9FA00F0DDFA0B4803
:10248000006868B108480068C06AE16A884207D2FB
:102490004FF0805009490860BFF34F8FBFF36F8F33
:1024A00010BD000024000020140000203000002097
:1024B000400000202C000020E003002004ED00E09C
:1024C00010B516E000F08EFA0C48C068C468201DF4
:1024D00000F04CFA0A480068401E094908600948A3
:1024E0000068401E0749086000F0A6FA204600F088
:1024F0000BF8044800680028E4D110BDA8040020AF
:10250000240000202000002010B5044694F851005B
:1025100030B9206B00F0AEFA204600F0ABFA1AE0BA
:1025200094F85100012803D1204600F0A3FA12E0EC
:1025300094F85100022801D1012000E0002050B998
:1025400000BF502080F31188BFF34F8FBFF36F8F10
:1025500000BF00BFFEE710BD30B54FF47053174801
:1025600000F007042CB1C01D20F00700134C041B21
:102570001B1B0246124C22600024114D6C60D018C7
:10258000083820F007000F4C206000240D4D2D6806
:102590006C600C4D2D682C601146441A4C60094C3F
:1025A00024680C60084D4C682C60084D4C682C6009
:1025B0004FF00044064D2C6030BD0000D0040020D8
:1025C0005000002058000020600000205C00002027
:1025D0006C00002000BFFFF773FF06480068012869
:1025E000F9D94FF0805004490860BFF34F8FBFF313
:1025F0006F8FF0E7E003002004ED00E02DE9FF5FBE
:1026000081460E469246DDE90E7B109CAAF1010040
:10261000216B01EB800828F0070808F0070008B9D3
:10262000012000E0002050B900BF502080F3118845
:10263000BFF34F8FBFF36F8F00BF00BFFEE786B1C0
:10264000002507E0715D04F134004155705D00B96B
:1026500002E06D1C102DF5D300BF00214320015571
:1026600002E0002084F83400072F00D30627E76239
:1026700067640020A064201D00F0A5F904F1180093
:1026800000F0A1F92461C7F10700A0616462002095
:10269000E06484F8500049464046039A00F050F93F
:1026A0002060BBF1000F01D0CBF80040BDE8FF9FD8
:1026B00010B5002407E004EB84010F4A02EB81000F
:1026C00000F074F9641C072CF5D30C4800F06EF987
:1026D0000B4800F06BF90B4800F068F90A4800F06D
:1026E00065F90A4800F062F904480949086004489D
:1026F0000849086010BD0000E00300206C040020C1
:102700008004002094040020A8040020BC040020C1
:10271000180000201C00002010B50146164800E0FB
:10272000006803688B42FBD30246436813448B4224
:1027300004D143684C682344436001460A464B6811
:1027400013440468A34211D10C4C03682468A342CB
:1027500008D04B680468646823444B6003681B68B6
:102760000B6005E0054B1B680B6001E003680B6024
:10277000884200D0016010BD5000002058000020A9
:102780000A490968096809B9012100E0002121B15D
:102790004FF0FF31064A116006E004490968C96834
:1027A000C868034A416811607047000018000020A3
:1027B000440000200E480068401C08B9012000E0D9
:1027C000002050B900BF502080F31188BFF34F8F15
:1027D000BFF36F8F00BF00BFFEE700BF502080F344
:1027E0001188BFF34F8FBFF36F8F00BF00BFFEE7AD
:1027F000700000202DE9F04104464FF0000800F081
:10280000F7F94948006808B9FFF7A6FE474800688D
:102810002040002870D1D4B1083404F00700B0B1D2
:1028200004F00700C0F10800044404F0070008B9F0
:10283000012000E0002050B900BF502080F3118833
:10284000BFF34F8FBFF36F8F00BF00BFFEE7002CB9
:1028500052D03748006884424ED8364E304605681C
:1028600001E02E462D686868A04202D22868002840
:10287000F7D12D48006885423ED0306800F1080845
:10288000286830606868001B102819D92F1907F0D4
:10289000070008B9012000E0002050B900BF502017
:1028A00080F31188BFF34F8FBFF36F8F00BF00BF5E
:1028B000FEE76868001B78606C603846FFF72CFF05
:1028C0001B4968680968081A1949086008460068C1
:1028D00019490968884203D21548006816490860FA
:1028E0001249686809680843686000202860134836
:1028F0000068401C1149086000F0B0FB08F00700B8
:1029000008B9012000E0002050B900BF502080F33A
:102910001188BFF34F8FBFF36F8F00BF00BFFEE77B
:102920004046BDE8F0810000580000206C00002007
:102930005C000020500000206000002064000020A7
:10294000001F4FF080730360001F21F0010303603C
:10295000001F054B036014380260001F6FF0020374
:102960000360203870470000B527000801460A6957
:10297000D1E901309860D1E901035860506888427C
:1029800001D188685060002008611068401E106006
:1029900010687047034B0360034B0B608023136088
:1029A000704700009C000020F000002000F10801AA
:1029B00041604FF0FF31816000F10801C1600161A9
:1029C00000210160704700210161704742684A6040
:1029D00093688B60936859609160086103685B1C21
:1029E0000360704700BF502080F31188BFF34F8F02
:1029F000BFF36F8F00BF0E480068401C0C49086091
:102A000008460068012812D10A480068C0B208B917
:102A1000012000E0002050B900BF502080F3118851
:102A2000BFF34F8FBFF36F8F00BF00BFFEE770474C
:102A30007000002004ED00E00D48006850B900BFB0
:102A4000502080F31188BFF34F8FBFF36F8F00BF0B
:102A500000BFFEE706480068401E054908600846BA
:102A6000006820B9002080F3118800BF00BF7047C4
:102A70007000002070B506463546002E44D0083D53
:102A80002C46224960680968084008B1012000E02E
:102A9000002050B900BF502080F31188BFF34F8F42
:102AA000BFF36F8F00BF00BFFEE7206808B90120A9
:102AB00000E0002050B900BF502080F31188BFF320
:102AC0004F8FBFF36F8F00BF00BFFEE70F496068F5
:102AD00009680840C0B12068B0B90C49606809684D
:102AE0008843606000F084F8094960680968084418
:102AF000074908602046FFF70FFE06480068401CA3
:102B00000449086000F0AAFA70BD00006C000020C3
:102B10005C0000206800002000204FF0E0210861E8
:102B20008861064800684FF47A71B0FBF1F0401EEE
:102B30004FF0E02148610720086170471000002035
:102B400010B586B000200590049003AA04A905A83A
:102B5000FFF720FF0022DDE904101346CDE9002134
:102B600002901CA11D48039A00F076F91C490860E8
:102B70000846006808B1012400E00024012C15D1AA
:102B800000BF502080F31188BFF34F8FBFF36F8FCA
:102B900000BF4FF0FF301349086001201249086060
:102BA00000201249086000F071F810E0601C08B1C4
:102BB000012000E0002050B900BF502080F31188B0
:102BC000BFF34F8FBFF36F8F00BF00BFFEE706B0AC
:102BD00010BD000049444C4500000000D525000808
:102BE0004800002044000020300000202800002081
:102BF00002480068401C0149086070474C000020F2
:102C00001D48006818B101201C49086032E000200E
:102C10001A4908601A480068B0FA80F0C0F11F0134
:102C200001EB8100174A52F8200008B1012000E0B2
:102C3000002050B900BF502080F31188BFF34F8FA0
:102C4000BFF36F8F00BF00BFFEE701EB81020D4BAA
:102C500003EB820042685268426000F10802436858
:102C6000934202D14268526842604268D268064B81
:102C70001A6000BF704700004C00002038000020A0
:102C80002C000020E0030020140000201CB5524856
:102C900000685249884201D0012000E0002050B96C
:102CA00000BF502080F31188BFF34F8FBFF36F8FA9
:102CB00000BF00BFFEE7484800684849491E8842F7
:102CC00001D0012000E0002050B900BF502080F367
:102CD0001188BFF34F8FBFF36F8F00BF00BFFEE7B8
:102CE0003F49084600780190FF200A4610700846C8
:102CF000007800909DF8000000F0F0009DF80020A2
:102D0000904201D1012000E0002050B900BF5020C6
:102D100080F31188BFF34F8FBFF36F8F00BF00BFE9
:102D2000FEE79DF8000000F050002E4A10700720CA
:102D30002D4A106009E02C480068401E2A4A1060A5
:102D40009DF800004006000E00909DF8000000F085
:102D500080008028EFD024480068C0F107000428D4
:102D600001D1012000E0002050B900BF502080F3C5
:102D70001188BFF34F8FBFF36F8F00BF00BFFEE717
:102D8000194800680002184A10601046008800F4D4
:102D9000E0601060124A019810700F4820300068FF
:102DA00040F470000C49203108600846006840F08B
:102DB00070400860FFF7B0FE00200C490860FDF786
:102DC00057FA0B48006840F0404009490860FDF799
:102DD0003BFA00201CBD000000ED00E071C20F4175
:102DE00000E400E074000020780000207000002063
:102DF00034EF00E02DE9FF4F85B080468946174645
:102E0000DDE912ABB800FFF7F5FC064656B15420D9
:102E1000FFF7F0FC04460CB1266304E03046FFF7F0
:102E200029FE00E000248CB1002084F85100CDE997
:102E300000ABCDE902403A4649464046089BFFF7C1
:102E4000DDFB2046FFF7E2FA012501E04FF0FF35F8
:102E5000284609B0BDE8F08F2DE9F04F85B0074650
:102E6000884691469A46DDE90EB6109C0EB10120C7
:102E700000E0002050B900BF502080F31188BFF35C
:102E80004F8FBFF36F8F00BF00BFFEE70CB1012073
:102E900000E0002050B900BF502080F31188BFF33C
:102EA0004F8FBFF36F8F00BF00BFFEE7542003902A
:102EB0000398542801D1012000E0002050B900BF40
:102EC000502080F31188BFF34F8FBFF36F8F00BF87
:102ED00000BFFEE700BFB4B1AEB125462C462E635D
:102EE000022085F85100002004A953464A46CDE946
:102EF00000B1CDE9025041463846FFF77FFB284636
:102F0000FFF784FA01E000200490049805B0BDE8C2
:102F1000F08F00002DE9F0414FF0000844480068B0
:102F200000287CD143480068451C4248056015BB19
:102F300041480068006808B9012000E0002050B94D
:102F400000BF502080F31188BFF34F8FBFF36F8F06
:102F500000BF00BFFEE738480768384800683649B8
:102F600008603648076036480068401C34490860ED
:102F7000FFF706FC00BF3348006885423CD300BF22
:102F80002D480068006808B9012000E0002020B149
:102F90004FF0FF302B4908602DE027480068C068DB
:102FA000C4686668B54202D22648066023E0201D48
:102FB000FFF7DCFCA06A18B104F11800FFF7D6FC9B
:102FC00094F82C10012088401F49096808431E49C5
:102FD0000860E16A01EB81011C4A02EB8100211DBE
:102FE000FFF7F4FC1A49E06A0968C96A8842C7D346
:102FF0004FF00108C4E700BF15480068C06A00EB45
:103000008000124951F82000012801D94FF0010831
:103010001048006808B14FF0010805E0FFE70E48CE
:103020000068401C0C4908604046BDE8F081000083
:103030004C00002028000020180000201C00002068
:103040003C000020440000202C000020E003002071
:1030500014000020380000203400002070B5002447
:1030600000263648006850B900BF502080F3118810
:10307000BFF34F8FBFF36F8F00BF00BFFEE7FFF7B7
:10308000B1FC2E480068401E2C49086008460068C4
:1030900000284FD12A48006800284BD024E0294856
:1030A000C068C46804F11800FFF760FC201DFFF73A
:1030B0005DFC94F82C1001208840234909680843DE
:1030C00021490860E16A01EB8101204A02EB81009D
:1030D000211DFFF77BFC1E49E06A0968C96A884226
:1030E00002D301201B4908601648006808B9012076
:1030F00000E000200028D2D00CB1FFF741FB1648B9
:10310000056865B100BFFFF705FF10B10120114947
:1031100008606D1E002DF6D100200F4908600D4893
:10312000006838B1012630070C490860BFF34F8FA3
:10313000BFF36F8FFFF780FC304670BD4C0000205E
:1031400024000020940400202C000020E003002034
:1031500014000020380000203400002004ED00E0BE
:103160004FF04070E1EE100A70470000A8310008EF
:10317000F51C000800000000000000000001000035
:1031800000000000000000000006101600061016E7
:103190000000000000000000010203040607080907
:1031A00000000000010203044C454400CC3100083B
:1031B0000000002088000000C4010008543200080C
:1031C00088000020B8460000E00100080000000070
:1031D0000000000010000000010000000024F400C6
:1031E00000000000000000000000000000000000DF
:1031F00000000000000000000000000000000000CF
:1032000000000000000000000000000000000000BE
:1032100000000000000000000000000000000000AE
:10322000000000000000000000000000000000009E
:10323000000000000000000000000000AAAAAAAAE6
:10324000000000000000000000000000000000007E
:04325000000000007A
:040000050800018965
:00000001FF
